{
	"data": {
		"bytecode": {
			"linkReferences": {},
			"object": "6101606040526200001760006200022b60201b60201c565b6009553480156200002757600080fd5b50604051620045f8380380620045f883398181016040528101906200004d91906200062c565b60008251146200005e578162000095565b6040518060400160405280600981526020017f46484520546f6b656e00000000000000000000000000000000000000000000008152505b6000825114620000a65781620000dd565b6040518060400160405280600381526020017f46484500000000000000000000000000000000000000000000000000000000008152505b6040518060400160405280601181526020017f4668656e6978205065726d697373696f6e0000000000000000000000000000008152506040518060400160405280600381526020017f312e300000000000000000000000000000000000000000000000000000000000815250838381600390816200015c9190620008fc565b5080600490816200016e9190620008fc565b505050620001876005836200024760201b90919060201c565b6101208181525050620001a56006826200024760201b90919060201c565b6101408181525050818051906020012060e08181525050808051906020012061010081815250504660a08181525050620001e46200029f60201b60201c565b608081815250503073ffffffffffffffffffffffffffffffffffffffff1660c08173ffffffffffffffffffffffffffffffffffffffff168152505050505050505062000d72565b600062000240826002620002fc60201b60201c565b9050919050565b60006020835110156200026d576200026583620003b360201b60201c565b905062000299565b826200027f836200042060201b60201c565b6000019081620002909190620008fc565b5060ff60001b90505b92915050565b60007f8b73c3c69bb8fe3d512ecc4cf759cc79239f7b179b0ffacaa9a75d522b39400f60e051610100514630604051602001620002e195949392919062000a54565b60405160208183030381529060405280519060200120905090565b60006060608073ffffffffffffffffffffffffffffffffffffffff166319e1c5c46200032e866200042a60201b60201c565b856040518363ffffffff1660e01b81526004016200034e92919062000b2c565b600060405180830381865afa1580156200036c573d6000803e3d6000fd5b505050506040513d6000823e3d601f19601f8201168201806040525081019062000397919062000c14565b9050620003aa816200048b60201b60201c565b91505092915050565b600080829050601f815111156200040357826040517f305a27a9000000000000000000000000000000000000000000000000000000008152600401620003fa919062000cb7565b60405180910390fd5b805181620004119062000d02565b60001c1760001b915050919050565b6000819050919050565b6060602067ffffffffffffffff8111156200044a5762000449620004c8565b5b6040519080825280601f01601f1916602001820160405280156200047d5781602001600182028036833780820191505090505b509050816020820152919050565b600060208201519050919050565b6000604051905090565b600080fd5b600080fd5b600080fd5b600080fd5b6000601f19601f8301169050919050565b7f4e487b7100000000000000000000000000000000000000000000000000000000600052604160045260246000fd5b6200050282620004b7565b810181811067ffffffffffffffff82111715620005245762000523620004c8565b5b80604052505050565b60006200053962000499565b9050620005478282620004f7565b919050565b600067ffffffffffffffff8211156200056a5762000569620004c8565b5b6200057582620004b7565b9050602081019050919050565b60005b83811015620005a257808201518184015260208101905062000585565b60008484015250505050565b6000620005c5620005bf846200054c565b6200052d565b905082815260208101848484011115620005e457620005e3620004b2565b5b620005f184828562000582565b509392505050565b600082601f830112620006115762000610620004ad565b5b815162000623848260208601620005ae565b91505092915050565b60008060408385031215620006465762000645620004a3565b5b600083015167ffffffffffffffff811115620006675762000666620004a8565b5b6200067585828601620005f9565b925050602083015167ffffffffffffffff811115620006995762000698620004a8565b5b620006a785828601620005f9565b9150509250929050565b600081519050919050565b7f4e487b7100000000000000000000000000000000000000000000000000000000600052602260045260246000fd5b600060028204905060018216806200070457607f821691505b6020821081036200071a5762000719620006bc565b5b50919050565b60008190508160005260206000209050919050565b60006020601f8301049050919050565b600082821b905092915050565b600060088302620007847fffffffffffffffffffffffffffffffffffffffffffffffffffffffffffffffff8262000745565b62000790868362000745565b95508019841693508086168417925050509392505050565b6000819050919050565b6000819050919050565b6000620007dd620007d7620007d184620007a8565b620007b2565b620007a8565b9050919050565b6000819050919050565b620007f983620007bc565b620008116200080882620007e4565b84845462000752565b825550505050565b600090565b6200082862000819565b62000835818484620007ee565b505050565b5b818110156200085d57620008516000826200081e565b6001810190506200083b565b5050565b601f821115620008ac57620008768162000720565b620008818462000735565b8101602085101562000891578190505b620008a9620008a08562000735565b8301826200083a565b50505b505050565b600082821c905092915050565b6000620008d160001984600802620008b1565b1980831691505092915050565b6000620008ec8383620008be565b9150826002028217905092915050565b6200090782620006b1565b67ffffffffffffffff811115620009235762000922620004c8565b5b6200092f8254620006eb565b6200093c82828562000861565b600060209050601f8311600181146200097457600084156200095f578287015190505b6200096b8582620008de565b865550620009db565b601f198416620009848662000720565b60005b82811015620009ae5784890151825560018201915060208501945060208101905062000987565b86831015620009ce5784890151620009ca601f891682620008be565b8355505b6001600288020188555050505b505050505050565b6000819050919050565b620009f881620009e3565b82525050565b62000a0981620007a8565b82525050565b600073ffffffffffffffffffffffffffffffffffffffff82169050919050565b600062000a3c8262000a0f565b9050919050565b62000a4e8162000a2f565b82525050565b600060a08201905062000a6b6000830188620009ed565b62000a7a6020830187620009ed565b62000a896040830186620009ed565b62000a986060830185620009fe565b62000aa7608083018462000a43565b9695505050505050565b600081519050919050565b600082825260208201905092915050565b600062000ada8262000ab1565b62000ae6818562000abc565b935062000af881856020860162000582565b62000b0381620004b7565b840191505092915050565b600060ff82169050919050565b62000b268162000b0e565b82525050565b6000604082019050818103600083015262000b48818562000acd565b905062000b59602083018462000b1b565b9392505050565b600067ffffffffffffffff82111562000b7e5762000b7d620004c8565b5b62000b8982620004b7565b9050602081019050919050565b600062000bad62000ba78462000b60565b6200052d565b90508281526020810184848401111562000bcc5762000bcb620004b2565b5b62000bd984828562000582565b509392505050565b600082601f83011262000bf95762000bf8620004ad565b5b815162000c0b84826020860162000b96565b91505092915050565b60006020828403121562000c2d5762000c2c620004a3565b5b600082015167ffffffffffffffff81111562000c4e5762000c4d620004a8565b5b62000c5c8482850162000be1565b91505092915050565b600082825260208201905092915050565b600062000c8382620006b1565b62000c8f818562000c65565b935062000ca181856020860162000582565b62000cac81620004b7565b840191505092915050565b6000602082019050818103600083015262000cd3818462000c76565b905092915050565b6000819050602082019050919050565b600062000cf98251620009e3565b80915050919050565b600062000d0f8262000ab1565b8262000d1b8462000cdb565b905062000d288162000ceb565b9250602082101562000d6b5762000d667fffffffffffffffffffffffffffffffffffffffffffffffffffffffffffffffff8360200360080262000745565b831692505b5050919050565b60805160a05160c05160e05161010051610120516101405161382b62000dcd600039600061139a0152600061135f0152600061248a0152600061246901526000611bb701526000611c0d01526000611c36015261382b6000f3fe608060405234801561001057600080fd5b50600436106101425760003560e01c806384b0196e116100b8578063a9059cbb1161007c578063a9059cbb146103b7578063af575a00146103e7578063c4224c1914610417578063d918156e14610447578063dd62ed3e14610477578063f4b8ef15146104a757610142565b806384b0196e1461030d5780638624a3491461033157806395d89b41146103615780639f284be71461037f578063a0712d681461039b57610142565b8063313ce5671161010a578063313ce5671461021357806339c217f7146102315780635356c4291461026157806360277204146102915780636e0505e1146102c157806370a08231146102dd57610142565b806306fdde0314610147578063095ea7b31461016557806318160ddd1461019557806323b872dd146101b357806323db9354146101e3575b600080fd5b61014f6104c3565b60405161015c919061284b565b60405180910390f35b61017f600480360381019061017a9190612915565b610555565b60405161018c9190612970565b60405180910390f35b61019d610578565b6040516101aa919061299a565b60405180910390f35b6101cd60048036038101906101c891906129b5565b610582565b6040516101da9190612970565b60405180910390f35b6101fd60048036038101906101f89190612a08565b6105b1565b60405161020a9190612a83565b60405180910390f35b61021b610638565b6040516102289190612aba565b60405180910390f35b61024b60048036038101906102469190612af9565b610641565b6040516102589190612a83565b60405180910390f35b61027b60048036038101906102769190612b74565b610666565b604051610288919061284b565b60405180910390f35b6102ab60048036038101906102a69190612db1565b610764565b6040516102b8919061284b565b60405180910390f35b6102db60048036038101906102d69190612e49565b61089a565b005b6102f760048036038101906102f29190612e76565b6109d1565b604051610304919061299a565b60405180910390f35b610315610a19565b6040516103289796959493929190612fba565b60405180910390f35b61034b6004803603810190610346919061303e565b610ac3565b6040516103589190612a83565b60405180910390f35b610369610b01565b604051610376919061284b565b60405180910390f35b61039960048036038101906103949190612e49565b610b93565b005b6103b560048036038101906103b091906130ad565b610ca0565b005b6103d160048036038101906103cc9190612915565b610cad565b6040516103de9190612970565b60405180910390f35b61040160048036038101906103fc9190613106565b610cd0565b60405161040e9190612a83565b60405180910390f35b610431600480360381019061042c9190613159565b610cfd565b60405161043e9190612a83565b60405180910390f35b610461600480360381019061045c9190612af9565b610d12565b60405161046e9190612970565b60405180910390f35b610491600480360381019061048c9190612a08565b610d3a565b60405161049e919061299a565b60405180910390f35b6104c160048036038101906104bc9190613199565b610dc1565b005b6060600380546104d290613211565b80601f01602080910402602001604051908101604052809291908181526020018280546104fe90613211565b801561054b5780601f106105205761010080835404028352916020019161054b565b820191906000526020600020905b81548152906001019060200180831161052e57829003601f168201915b5050505050905090565b600080610560610f0f565b905061056d818585610f17565b600191505092915050565b6000600254905090565b60008061058d610f0f565b905061059a858285610f29565b6105a5858585610fbd565b60019150509392505050565b6000600860008473ffffffffffffffffffffffffffffffffffffffff1673ffffffffffffffffffffffffffffffffffffffff16815260200190815260200160002060008373ffffffffffffffffffffffffffffffffffffffff1673ffffffffffffffffffffffffffffffffffffffff16815260200190815260200160002054905092915050565b60006012905090565b600061065e83610659846106549061329a565b6110b1565b610cfd565b905092915050565b606081610672906132ad565b60006106c97f6bdaeb2d29561f159c7ef98b16b27015fb2aeb87209c7ee656226d912f59927d83600001516040516020016106ae9291906132c0565b604051602081830303815290604052805190602001206110c7565b905060006106db8284602001516110e1565b90503373ffffffffffffffffffffffffffffffffffffffff168173ffffffffffffffffffffffffffffffffffffffff1614610742576040517f3093a27700000000000000000000000000000000000000000000000000000000815260040160405180910390fd5b61075961074f33886105b1565b866000013561110d565b935050505092915050565b6060818360006107bf7f6bdaeb2d29561f159c7ef98b16b27015fb2aeb87209c7ee656226d912f59927d84600001516040516020016107a49291906132c0565b604051602081830303815290604052805190602001206110c7565b905060006107d18285602001516110e1565b90508273ffffffffffffffffffffffffffffffffffffffff168173ffffffffffffffffffffffffffffffffffffffff1614610838576040517f51c65eae00000000000000000000000000000000000000000000000000000000815260040160405180910390fd5b61088e8660000151600760008a73ffffffffffffffffffffffffffffffffffffffff1673ffffffffffffffffffffffffffffffffffffffff1681526020019081526020016000205461114390919063ffffffff16565b94505050505092915050565b60006108ab8263ffffffff16611157565b9050600061091461090483600760003373ffffffffffffffffffffffffffffffffffffffff1673ffffffffffffffffffffffffffffffffffffffff1681526020019081526020016000205461116b90919063ffffffff16565b61090e6000611157565b8461117f565b905061095f600760003373ffffffffffffffffffffffffffffffffffffffff1673ffffffffffffffffffffffffffffffffffffffff16815260200190815260200160002054826111fd565b600760003373ffffffffffffffffffffffffffffffffffffffff1673ffffffffffffffffffffffffffffffffffffffff168152602001908152602001600020819055506109ae600954826111fd565b6009819055506109cc336109c183611211565b63ffffffff166112d4565b505050565b60008060008373ffffffffffffffffffffffffffffffffffffffff1673ffffffffffffffffffffffffffffffffffffffff168152602001908152602001600020549050919050565b600060608060008060006060610a2d611356565b610a35611391565b46306000801b600067ffffffffffffffff811115610a5657610a55612bd5565b5b604051908082528060200260200182016040528015610a845781602001602082028036833780820191505090505b507f0f00000000000000000000000000000000000000000000000000000000000000959493929190965096509650965096509650965090919293949596565b600080610ad883610ad39061329a565b6110b1565b90506000610ae78633846113cc565b9050610af4868683611409565b5080925050509392505050565b606060048054610b1090613211565b80601f0160208091040260200160405190810160405280929190818152602001828054610b3c90613211565b8015610b895780601f10610b5e57610100808354040283529160200191610b89565b820191906000526020600020905b815481529060010190602001808311610b6c57829003601f168201915b5050505050905090565b8063ffffffff16610ba3336109d1565b1015610bdb576040517ffda7bbda00000000000000000000000000000000000000000000000000000000815260040160405180910390fd5b610beb338263ffffffff16611596565b6000610bfc8263ffffffff16611157565b9050610c47600760003373ffffffffffffffffffffffffffffffffffffffff1673ffffffffffffffffffffffffffffffffffffffff1681526020019081526020016000205482611618565b600760003373ffffffffffffffffffffffffffffffffffffffff1673ffffffffffffffffffffffffffffffffffffffff16815260200190815260200160002081905550610c9660095482611618565b6009819055505050565b610caa33826112d4565b50565b600080610cb8610f0f565b9050610cc5818585610fbd565b600191505092915050565b6000808290506000610ce38633846113cc565b9050610cf0868683611409565b5080925050509392505050565b6000610d0a338484611409565b905092915050565b6000610d303384610d2b85610d269061329a565b6110b1565b61162c565b6001905092915050565b6000600160008473ffffffffffffffffffffffffffffffffffffffff1673ffffffffffffffffffffffffffffffffffffffff16815260200190815260200160002060008373ffffffffffffffffffffffffffffffffffffffff1673ffffffffffffffffffffffffffffffffffffffff16815260200190815260200160002054905092915050565b6000610dd582610dd09061329a565b6110b1565b9050610e1f600760003373ffffffffffffffffffffffffffffffffffffffff1673ffffffffffffffffffffffffffffffffffffffff16815260200190815260200160002054611796565b610e6c5780600760003373ffffffffffffffffffffffffffffffffffffffff1673ffffffffffffffffffffffffffffffffffffffff16815260200190815260200160002081905550610ef9565b610eb5600760003373ffffffffffffffffffffffffffffffffffffffff1673ffffffffffffffffffffffffffffffffffffffff1681526020019081526020016000205482611618565b600760003373ffffffffffffffffffffffffffffffffffffffff1673ffffffffffffffffffffffffffffffffffffffff168152602001908152602001600020819055505b610f0560095482611618565b6009819055505050565b600033905090565b610f2483838360016117a3565b505050565b6000610f358484610d3a565b90507fffffffffffffffffffffffffffffffffffffffffffffffffffffffffffffffff8114610fb75781811015610fa7578281836040517ffb8f41b2000000000000000000000000000000000000000000000000000000008152600401610f9e939291906132e9565b60405180910390fd5b610fb6848484840360006117a3565b5b50505050565b600073ffffffffffffffffffffffffffffffffffffffff168373ffffffffffffffffffffffffffffffffffffffff160361102f5760006040517f96c6fd1e0000000000000000000000000000000000000000000000000000000081526004016110269190613320565b60405180910390fd5b600073ffffffffffffffffffffffffffffffffffffffff168273ffffffffffffffffffffffffffffffffffffffff16036110a15760006040517fec442f050000000000000000000000000000000000000000000000000000000081526004016110989190613320565b60405180910390fd5b6110ac83838361197a565b505050565b60006110c08260000151611b9f565b9050919050565b60006110da6110d4611bb3565b83611c6a565b9050919050565b6000806000806110f18686611cab565b9250925092506111018282611d07565b82935050505092915050565b606061111883611796565b611129576111266000611157565b92505b600083905061113a60028285611e6b565b91505092915050565b606061114f838361110d565b905092915050565b6000611164826002611f21565b9050919050565b60006111778383611fc3565b905092915050565b600061118a8461203c565b61119b576111986000612049565b93505b6111a483611796565b6111b5576111b26000611157565b92505b6111be82611796565b6111cf576111cc6000611157565b91505b60008490506000849050600084905060006111ed600285858561205d565b9050809450505050509392505050565b60006112098383612115565b905092915050565b600061121c82611796565b61122d5761122a6000611157565b91505b6000829050600061123d8261218e565b90506000608073ffffffffffffffffffffffffffffffffffffffff166373cc01546002846040518363ffffffff1660e01b815260040161127e929190613390565b602060405180830381865afa15801561129b573d6000803e3d6000fd5b505050506040513d601f19601f820116820180604052508101906112bf91906133d5565b90506112ca816121eb565b9350505050919050565b600073ffffffffffffffffffffffffffffffffffffffff168273ffffffffffffffffffffffffffffffffffffffff16036113465760006040517fec442f0500000000000000000000000000000000000000000000000000000000815260040161133d9190613320565b60405180910390fd5b6113526000838361197a565b5050565b606061138c60057f00000000000000000000000000000000000000000000000000000000000000006121f590919063ffffffff16565b905090565b60606113c760067f00000000000000000000000000000000000000000000000000000000000000006121f590919063ffffffff16565b905090565b6000806113d985856105b1565b905060006113e782856122a5565b90506113fd86866113f885856111fd565b61162c565b80925050509392505050565b600080611471611461600760008873ffffffffffffffffffffffffffffffffffffffff1673ffffffffffffffffffffffffffffffffffffffff168152602001908152602001600020548561231e90919063ffffffff16565b8461146c6000611157565b61117f565b90506114bc600760008673ffffffffffffffffffffffffffffffffffffffff1673ffffffffffffffffffffffffffffffffffffffff1681526020019081526020016000205482611618565b600760008673ffffffffffffffffffffffffffffffffffffffff1673ffffffffffffffffffffffffffffffffffffffff16815260200190815260200160002081905550611548600760008773ffffffffffffffffffffffffffffffffffffffff1673ffffffffffffffffffffffffffffffffffffffff16815260200190815260200160002054826111fd565b600760008773ffffffffffffffffffffffffffffffffffffffff1673ffffffffffffffffffffffffffffffffffffffff16815260200190815260200160002081905550809150509392505050565b600073ffffffffffffffffffffffffffffffffffffffff168273ffffffffffffffffffffffffffffffffffffffff16036116085760006040517f96c6fd1e0000000000000000000000000000000000000000000000000000000081526004016115ff9190613320565b60405180910390fd5b6116148260008361197a565b5050565b60006116248383612332565b905092915050565b600073ffffffffffffffffffffffffffffffffffffffff168373ffffffffffffffffffffffffffffffffffffffff160361169e5760006040517fe602df050000000000000000000000000000000000000000000000000000000081526004016116959190613320565b60405180910390fd5b600073ffffffffffffffffffffffffffffffffffffffff168273ffffffffffffffffffffffffffffffffffffffff16036117105760006040517f94280d620000000000000000000000000000000000000000000000000000000081526004016117079190613320565b60405180910390fd5b80600860008573ffffffffffffffffffffffffffffffffffffffff1673ffffffffffffffffffffffffffffffffffffffff16815260200190815260200160002060008473ffffffffffffffffffffffffffffffffffffffff1673ffffffffffffffffffffffffffffffffffffffff16815260200190815260200160002081905550505050565b6000808214159050919050565b600073ffffffffffffffffffffffffffffffffffffffff168473ffffffffffffffffffffffffffffffffffffffff16036118155760006040517fe602df0500000000000000000000000000000000000000000000000000000000815260040161180c9190613320565b60405180910390fd5b600073ffffffffffffffffffffffffffffffffffffffff168373ffffffffffffffffffffffffffffffffffffffff16036118875760006040517f94280d6200000000000000000000000000000000000000000000000000000000815260040161187e9190613320565b60405180910390fd5b81600160008673ffffffffffffffffffffffffffffffffffffffff1673ffffffffffffffffffffffffffffffffffffffff16815260200190815260200160002060008573ffffffffffffffffffffffffffffffffffffffff1673ffffffffffffffffffffffffffffffffffffffff168152602001908152602001600020819055508015611974578273ffffffffffffffffffffffffffffffffffffffff168473ffffffffffffffffffffffffffffffffffffffff167f8c5be1e5ebec7d5bd14f71427d1e84f3dd0314c0f7b2291e5b200ac8c7c3b9258460405161196b919061299a565b60405180910390a35b50505050565b600073ffffffffffffffffffffffffffffffffffffffff168373ffffffffffffffffffffffffffffffffffffffff16036119cc5780600260008282546119c09190613431565b92505081905550611a9f565b60008060008573ffffffffffffffffffffffffffffffffffffffff1673ffffffffffffffffffffffffffffffffffffffff16815260200190815260200160002054905081811015611a58578381836040517fe450d38c000000000000000000000000000000000000000000000000000000008152600401611a4f939291906132e9565b60405180910390fd5b8181036000808673ffffffffffffffffffffffffffffffffffffffff1673ffffffffffffffffffffffffffffffffffffffff16815260200190815260200160002081905550505b600073ffffffffffffffffffffffffffffffffffffffff168273ffffffffffffffffffffffffffffffffffffffff1603611ae85780600260008282540392505081905550611b35565b806000808473ffffffffffffffffffffffffffffffffffffffff1673ffffffffffffffffffffffffffffffffffffffff168152602001908152602001600020600082825401925050819055505b8173ffffffffffffffffffffffffffffffffffffffff168373ffffffffffffffffffffffffffffffffffffffff167fddf252ad1be2c89b69c2b068fc378daa952ba7f163c4a11628f55a4df523b3ef83604051611b92919061299a565b60405180910390a3505050565b6000611bac8260026123aa565b9050919050565b60007f000000000000000000000000000000000000000000000000000000000000000073ffffffffffffffffffffffffffffffffffffffff163073ffffffffffffffffffffffffffffffffffffffff16148015611c2f57507f000000000000000000000000000000000000000000000000000000000000000046145b15611c5c577f00000000000000000000000000000000000000000000000000000000000000009050611c67565b611c64612444565b90505b90565b60006040517f190100000000000000000000000000000000000000000000000000000000000081528360028201528260228201526042812091505092915050565b60008060006041845103611cf05760008060006020870151925060408701519150606087015160001a9050611ce2888285856124da565b955095509550505050611d00565b60006002855160001b9250925092505b9250925092565b60006003811115611d1b57611d1a613465565b5b826003811115611d2e57611d2d613465565b5b0315611e675760016003811115611d4857611d47613465565b5b826003811115611d5b57611d5a613465565b5b03611d92576040517ff645eedf00000000000000000000000000000000000000000000000000000000815260040160405180910390fd5b60026003811115611da657611da5613465565b5b826003811115611db957611db8613465565b5b03611dfe578060001c6040517ffce698f7000000000000000000000000000000000000000000000000000000008152600401611df5919061299a565b60405180910390fd5b600380811115611e1157611e10613465565b5b826003811115611e2457611e23613465565b5b03611e6657806040517fd78bce0c000000000000000000000000000000000000000000000000000000008152600401611e5d9190613494565b60405180910390fd5b5b5050565b6060608073ffffffffffffffffffffffffffffffffffffffff1663a1848ff385611e948661218e565b85604051602001611ea591906134d0565b6040516020818303038152906040526040518463ffffffff1660e01b8152600401611ed2939291906134eb565b600060405180830381865afa158015611eef573d6000803e3d6000fd5b505050506040513d6000823e3d601f19601f82011682018060405250810190611f1891906135d1565b90509392505050565b60006060608073ffffffffffffffffffffffffffffffffffffffff166319e1c5c4611f4b8661218e565b856040518363ffffffff1660e01b8152600401611f6992919061361a565b600060405180830381865afa158015611f86573d6000803e3d6000fd5b505050506040513d6000823e3d601f19601f82011682018060405250810190611faf91906136ba565b9050611fba816125ce565b91505092915050565b6000611fce83611796565b611fdf57611fdc6000611157565b92505b611fe882611796565b611ff957611ff66000611157565b91505b60008390506000839050600061202e60028484608073ffffffffffffffffffffffffffffffffffffffff1663b9c7a54b6125dc565b905080935050505092915050565b6000808214159050919050565b600061205682600d611f21565b9050919050565b60006060608073ffffffffffffffffffffffffffffffffffffffff1663c2d96952876120888861218e565b6120918861218e565b61209a8861218e565b6040518563ffffffff1660e01b81526004016120b99493929190613703565b600060405180830381865afa1580156120d6573d6000803e3d6000fd5b505050506040513d6000823e3d601f19601f820116820180604052508101906120ff91906136ba565b905061210a816125ce565b915050949350505050565b600061212083611796565b6121315761212e6000611157565b92505b61213a82611796565b61214b576121486000611157565b91505b60008390506000839050600061218060028484608073ffffffffffffffffffffffffffffffffffffffff1663cc2cbeff6125dc565b905080935050505092915050565b6060602067ffffffffffffffff8111156121ab576121aa612bd5565b5b6040519080825280601f01601f1916602001820160405280156121dd5781602001600182028036833780820191505090505b509050816020820152919050565b6000819050919050565b606060ff60001b83146122125761220b83612670565b905061229f565b81805461221e90613211565b80601f016020809104026020016040519081016040528092919081815260200182805461224a90613211565b80156122975780601f1061226c57610100808354040283529160200191612297565b820191906000526020600020905b81548152906001019060200180831161227a57829003601f168201915b505050505090505b92915050565b60006122b083611796565b6122c1576122be6000611157565b92505b6122ca82611796565b6122db576122d86000611157565b91505b60008390506000839050600061231060028484608073ffffffffffffffffffffffffffffffffffffffff16635211c6796125dc565b905080935050505092915050565b600061232a83836126e4565b905092915050565b600061233d83611796565b61234e5761234b6000611157565b92505b61235782611796565b612368576123656000611157565b91505b60008390506000839050600061239c60028484608073ffffffffffffffffffffffffffffffffffffffff16622df6196125dc565b905080935050505092915050565b60006060608073ffffffffffffffffffffffffffffffffffffffff16635fa55ca784866040518363ffffffff1660e01b81526004016123ea929190613390565b600060405180830381865afa158015612407573d6000803e3d6000fd5b505050506040513d6000823e3d601f19601f8201168201806040525081019061243091906136ba565b905061243b816125ce565b91505092915050565b60007f8b73c3c69bb8fe3d512ecc4cf759cc79239f7b179b0ffacaa9a75d522b39400f7f00000000000000000000000000000000000000000000000000000000000000007f000000000000000000000000000000000000000000000000000000000000000046306040516020016124bf95949392919061375d565b60405160208183030381529060405280519060200120905090565b60008060007f7fffffffffffffffffffffffffffffff5d576e7357a4501ddfe92f46681b20a08460001c111561251a5760006003859250925092506125c4565b60006001888888886040516000815260200160405260405161253f94939291906137b0565b6020604051602081039080840390855afa158015612561573d6000803e3d6000fd5b505050602060405103519050600073ffffffffffffffffffffffffffffffffffffffff168173ffffffffffffffffffffffffffffffffffffffff16036125b557600060016000801b935093509350506125c4565b8060008060001b935093509350505b9450945094915050565b600060208201519050919050565b600060608383886125ec8961218e565b6125f58961218e565b6040518463ffffffff1660e01b8152600401612613939291906134eb565b600060405180830381865afa158015612630573d6000803e3d6000fd5b505050506040513d6000823e3d601f19601f8201168201806040525081019061265991906136ba565b90506126648161275d565b91505095945050505050565b6060600061267d8361276b565b90506000602067ffffffffffffffff81111561269c5761269b612bd5565b5b6040519080825280601f01601f1916602001820160405280156126ce5781602001600182028036833780820191505090505b5090508181528360208201528092505050919050565b60006126ef83611796565b612700576126fd6000611157565b92505b61270982611796565b61271a576127176000611157565b91505b60008390506000839050600061274f60028484608073ffffffffffffffffffffffffffffffffffffffff1663eb274b776125dc565b905080935050505092915050565b600060208201519050919050565b60008060ff8360001c169050601f8111156127b2576040517fb3512b0c00000000000000000000000000000000000000000000000000000000815260040160405180910390fd5b80915050919050565b600081519050919050565b600082825260208201905092915050565b60005b838110156127f55780820151818401526020810190506127da565b60008484015250505050565b6000601f19601f8301169050919050565b600061281d826127bb565b61282781856127c6565b93506128378185602086016127d7565b61284081612801565b840191505092915050565b600060208201905081810360008301526128658184612812565b905092915050565b6000604051905090565b600080fd5b600080fd5b600073ffffffffffffffffffffffffffffffffffffffff82169050919050565b60006128ac82612881565b9050919050565b6128bc816128a1565b81146128c757600080fd5b50565b6000813590506128d9816128b3565b92915050565b6000819050919050565b6128f2816128df565b81146128fd57600080fd5b50565b60008135905061290f816128e9565b92915050565b6000806040838503121561292c5761292b612877565b5b600061293a858286016128ca565b925050602061294b85828601612900565b9150509250929050565b60008115159050919050565b61296a81612955565b82525050565b60006020820190506129856000830184612961565b92915050565b612994816128df565b82525050565b60006020820190506129af600083018461298b565b92915050565b6000806000606084860312156129ce576129cd612877565b5b60006129dc868287016128ca565b93505060206129ed868287016128ca565b92505060406129fe86828701612900565b9150509250925092565b60008060408385031215612a1f57612a1e612877565b5b6000612a2d858286016128ca565b9250506020612a3e858286016128ca565b9150509250929050565b6000819050919050565b6000612a6d612a68612a63846128df565b612a48565b6128df565b9050919050565b612a7d81612a52565b82525050565b6000602082019050612a986000830184612a74565b92915050565b600060ff82169050919050565b612ab481612a9e565b82525050565b6000602082019050612acf6000830184612aab565b92915050565b600080fd5b600060208284031215612af057612aef612ad5565b5b81905092915050565b60008060408385031215612b1057612b0f612877565b5b6000612b1e858286016128ca565b925050602083013567ffffffffffffffff811115612b3f57612b3e61287c565b5b612b4b85828601612ada565b9150509250929050565b600060408284031215612b6b57612b6a612ad5565b5b81905092915050565b60008060408385031215612b8b57612b8a612877565b5b6000612b99858286016128ca565b925050602083013567ffffffffffffffff811115612bba57612bb961287c565b5b612bc685828601612b55565b9150509250929050565b600080fd5b7f4e487b7100000000000000000000000000000000000000000000000000000000600052604160045260246000fd5b612c0d82612801565b810181811067ffffffffffffffff82111715612c2c57612c2b612bd5565b5b80604052505050565b6000612c3f61286d565b9050612c4b8282612c04565b919050565b600080fd5b6000819050919050565b612c6881612c55565b8114612c7357600080fd5b50565b600081359050612c8581612c5f565b92915050565b600080fd5b600080fd5b600067ffffffffffffffff821115612cb057612caf612bd5565b5b612cb982612801565b9050602081019050919050565b82818337600083830152505050565b6000612ce8612ce384612c95565b612c35565b905082815260208101848484011115612d0457612d03612c90565b5b612d0f848285612cc6565b509392505050565b600082601f830112612d2c57612d2b612c8b565b5b8135612d3c848260208601612cd5565b91505092915050565b600060408284031215612d5b57612d5a612bd0565b5b612d656040612c35565b90506000612d7584828501612c76565b600083015250602082013567ffffffffffffffff811115612d9957612d98612c50565b5b612da584828501612d17565b60208301525092915050565b60008060408385031215612dc857612dc7612877565b5b6000612dd6858286016128ca565b925050602083013567ffffffffffffffff811115612df757612df661287c565b5b612e0385828601612d45565b9150509250929050565b600063ffffffff82169050919050565b612e2681612e0d565b8114612e3157600080fd5b50565b600081359050612e4381612e1d565b92915050565b600060208284031215612e5f57612e5e612877565b5b6000612e6d84828501612e34565b91505092915050565b600060208284031215612e8c57612e8b612877565b5b6000612e9a848285016128ca565b91505092915050565b60007fff0000000000000000000000000000000000000000000000000000000000000082169050919050565b612ed881612ea3565b82525050565b612ee7816128a1565b82525050565b612ef681612c55565b82525050565b600081519050919050565b600082825260208201905092915050565b6000819050602082019050919050565b612f31816128df565b82525050565b6000612f438383612f28565b60208301905092915050565b6000602082019050919050565b6000612f6782612efc565b612f718185612f07565b9350612f7c83612f18565b8060005b83811015612fad578151612f948882612f37565b9750612f9f83612f4f565b925050600181019050612f80565b5085935050505092915050565b600060e082019050612fcf600083018a612ecf565b8181036020830152612fe18189612812565b90508181036040830152612ff58188612812565b9050613004606083018761298b565b6130116080830186612ede565b61301e60a0830185612eed565b81810360c08301526130308184612f5c565b905098975050505050505050565b60008060006060848603121561305757613056612877565b5b6000613065868287016128ca565b9350506020613076868287016128ca565b925050604084013567ffffffffffffffff8111156130975761309661287c565b5b6130a386828701612ada565b9150509250925092565b6000602082840312156130c3576130c2612877565b5b60006130d184828501612900565b91505092915050565b6130e3816128df565b81146130ee57600080fd5b50565b600081359050613100816130da565b92915050565b60008060006060848603121561311f5761311e612877565b5b600061312d868287016128ca565b935050602061313e868287016128ca565b925050604061314f868287016130f1565b9150509250925092565b600080604083850312156131705761316f612877565b5b600061317e858286016128ca565b925050602061318f858286016130f1565b9150509250929050565b6000602082840312156131af576131ae612877565b5b600082013567ffffffffffffffff8111156131cd576131cc61287c565b5b6131d984828501612ada565b91505092915050565b7f4e487b7100000000000000000000000000000000000000000000000000000000600052602260045260246000fd5b6000600282049050600182168061322957607f821691505b60208210810361323c5761323b6131e2565b5b50919050565b60006020828403121561325857613257612bd0565b5b6132626020612c35565b9050600082013567ffffffffffffffff81111561328257613281612c50565b5b61328e84828501612d17565b60008301525092915050565b60006132a63683613242565b9050919050565b60006132b93683612d45565b9050919050565b60006040820190506132d56000830185612eed565b6132e26020830184612eed565b9392505050565b60006060820190506132fe6000830186612ede565b61330b602083018561298b565b613318604083018461298b565b949350505050565b60006020820190506133356000830184612ede565b92915050565b600081519050919050565b600082825260208201905092915050565b60006133628261333b565b61336c8185613346565b935061337c8185602086016127d7565b61338581612801565b840191505092915050565b60006040820190506133a56000830185612aab565b81810360208301526133b78184613357565b90509392505050565b6000815190506133cf816128e9565b92915050565b6000602082840312156133eb576133ea612877565b5b60006133f9848285016133c0565b91505092915050565b7f4e487b7100000000000000000000000000000000000000000000000000000000600052601160045260246000fd5b600061343c826128df565b9150613447836128df565b925082820190508082111561345f5761345e613402565b5b92915050565b7f4e487b7100000000000000000000000000000000000000000000000000000000600052602160045260246000fd5b60006020820190506134a96000830184612eed565b92915050565b6000819050919050565b6134ca6134c582612c55565b6134af565b82525050565b60006134dc82846134b9565b60208201915081905092915050565b60006060820190506135006000830186612aab565b81810360208301526135128185613357565b905081810360408301526135268184613357565b9050949350505050565b600067ffffffffffffffff82111561354b5761354a612bd5565b5b61355482612801565b9050602081019050919050565b600061357461356f84613530565b612c35565b9050828152602081018484840111156135905761358f612c90565b5b61359b8482856127d7565b509392505050565b600082601f8301126135b8576135b7612c8b565b5b81516135c8848260208601613561565b91505092915050565b6000602082840312156135e7576135e6612877565b5b600082015167ffffffffffffffff8111156136055761360461287c565b5b613611848285016135a3565b91505092915050565b600060408201905081810360008301526136348185613357565b90506136436020830184612aab565b9392505050565b600061365d61365884612c95565b612c35565b90508281526020810184848401111561367957613678612c90565b5b6136848482856127d7565b509392505050565b600082601f8301126136a1576136a0612c8b565b5b81516136b184826020860161364a565b91505092915050565b6000602082840312156136d0576136cf612877565b5b600082015167ffffffffffffffff8111156136ee576136ed61287c565b5b6136fa8482850161368c565b91505092915050565b60006080820190506137186000830187612aab565b818103602083015261372a8186613357565b9050818103604083015261373e8185613357565b905081810360608301526137528184613357565b905095945050505050565b600060a0820190506137726000830188612eed565b61377f6020830187612eed565b61378c6040830186612eed565b613799606083018561298b565b6137a66080830184612ede565b9695505050505050565b60006080820190506137c56000830187612eed565b6137d26020830186612aab565b6137df6040830185612eed565b6137ec6060830184612eed565b9594505050505056fea26469706673582212203f90102d758bf47ed6dad0c09cc56484ffea36bfd4944bcd4438883c2b8b098d64736f6c63430008140033",
			"opcodes": "PUSH2 0x160 PUSH1 0x40 MSTORE PUSH3 0x17 PUSH1 0x0 PUSH3 0x22B PUSH1 0x20 SHL PUSH1 0x20 SHR JUMP JUMPDEST PUSH1 0x9 SSTORE CALLVALUE DUP1 ISZERO PUSH3 0x27 JUMPI PUSH1 0x0 DUP1 REVERT JUMPDEST POP PUSH1 0x40 MLOAD PUSH3 0x45F8 CODESIZE SUB DUP1 PUSH3 0x45F8 DUP4 CODECOPY DUP2 DUP2 ADD PUSH1 0x40 MSTORE DUP2 ADD SWAP1 PUSH3 0x4D SWAP2 SWAP1 PUSH3 0x62C JUMP JUMPDEST PUSH1 0x0 DUP3 MLOAD EQ PUSH3 0x5E JUMPI DUP2 PUSH3 0x95 JUMP JUMPDEST PUSH1 0x40 MLOAD DUP1 PUSH1 0x40 ADD PUSH1 0x40 MSTORE DUP1 PUSH1 0x9 DUP2 MSTORE PUSH1 0x20 ADD PUSH32 0x46484520546F6B656E0000000000000000000000000000000000000000000000 DUP2 MSTORE POP JUMPDEST PUSH1 0x0 DUP3 MLOAD EQ PUSH3 0xA6 JUMPI DUP2 PUSH3 0xDD JUMP JUMPDEST PUSH1 0x40 MLOAD DUP1 PUSH1 0x40 ADD PUSH1 0x40 MSTORE DUP1 PUSH1 0x3 DUP2 MSTORE PUSH1 0x20 ADD PUSH32 0x4648450000000000000000000000000000000000000000000000000000000000 DUP2 MSTORE POP JUMPDEST PUSH1 0x40 MLOAD DUP1 PUSH1 0x40 ADD PUSH1 0x40 MSTORE DUP1 PUSH1 0x11 DUP2 MSTORE PUSH1 0x20 ADD PUSH32 0x4668656E6978205065726D697373696F6E000000000000000000000000000000 DUP2 MSTORE POP PUSH1 0x40 MLOAD DUP1 PUSH1 0x40 ADD PUSH1 0x40 MSTORE DUP1 PUSH1 0x3 DUP2 MSTORE PUSH1 0x20 ADD PUSH32 0x312E300000000000000000000000000000000000000000000000000000000000 DUP2 MSTORE POP DUP4 DUP4 DUP2 PUSH1 0x3 SWAP1 DUP2 PUSH3 0x15C SWAP2 SWAP1 PUSH3 0x8FC JUMP JUMPDEST POP DUP1 PUSH1 0x4 SWAP1 DUP2 PUSH3 0x16E SWAP2 SWAP1 PUSH3 0x8FC JUMP JUMPDEST POP POP POP PUSH3 0x187 PUSH1 0x5 DUP4 PUSH3 0x247 PUSH1 0x20 SHL SWAP1 SWAP2 SWAP1 PUSH1 0x20 SHR JUMP JUMPDEST PUSH2 0x120 DUP2 DUP2 MSTORE POP POP PUSH3 0x1A5 PUSH1 0x6 DUP3 PUSH3 0x247 PUSH1 0x20 SHL SWAP1 SWAP2 SWAP1 PUSH1 0x20 SHR JUMP JUMPDEST PUSH2 0x140 DUP2 DUP2 MSTORE POP POP DUP2 DUP1 MLOAD SWAP1 PUSH1 0x20 ADD KECCAK256 PUSH1 0xE0 DUP2 DUP2 MSTORE POP POP DUP1 DUP1 MLOAD SWAP1 PUSH1 0x20 ADD KECCAK256 PUSH2 0x100 DUP2 DUP2 MSTORE POP POP CHAINID PUSH1 0xA0 DUP2 DUP2 MSTORE POP POP PUSH3 0x1E4 PUSH3 0x29F PUSH1 0x20 SHL PUSH1 0x20 SHR JUMP JUMPDEST PUSH1 0x80 DUP2 DUP2 MSTORE POP POP ADDRESS PUSH20 0xFFFFFFFFFFFFFFFFFFFFFFFFFFFFFFFFFFFFFFFF AND PUSH1 0xC0 DUP2 PUSH20 0xFFFFFFFFFFFFFFFFFFFFFFFFFFFFFFFFFFFFFFFF AND DUP2 MSTORE POP POP POP POP POP POP POP POP PUSH3 0xD72 JUMP JUMPDEST PUSH1 0x0 PUSH3 0x240 DUP3 PUSH1 0x2 PUSH3 0x2FC PUSH1 0x20 SHL PUSH1 0x20 SHR JUMP JUMPDEST SWAP1 POP SWAP2 SWAP1 POP JUMP JUMPDEST PUSH1 0x0 PUSH1 0x20 DUP4 MLOAD LT ISZERO PUSH3 0x26D JUMPI PUSH3 0x265 DUP4 PUSH3 0x3B3 PUSH1 0x20 SHL PUSH1 0x20 SHR JUMP JUMPDEST SWAP1 POP PUSH3 0x299 JUMP JUMPDEST DUP3 PUSH3 0x27F DUP4 PUSH3 0x420 PUSH1 0x20 SHL PUSH1 0x20 SHR JUMP JUMPDEST PUSH1 0x0 ADD SWAP1 DUP2 PUSH3 0x290 SWAP2 SWAP1 PUSH3 0x8FC JUMP JUMPDEST POP PUSH1 0xFF PUSH1 0x0 SHL SWAP1 POP JUMPDEST SWAP3 SWAP2 POP POP JUMP JUMPDEST PUSH1 0x0 PUSH32 0x8B73C3C69BB8FE3D512ECC4CF759CC79239F7B179B0FFACAA9A75D522B39400F PUSH1 0xE0 MLOAD PUSH2 0x100 MLOAD CHAINID ADDRESS PUSH1 0x40 MLOAD PUSH1 0x20 ADD PUSH3 0x2E1 SWAP6 SWAP5 SWAP4 SWAP3 SWAP2 SWAP1 PUSH3 0xA54 JUMP JUMPDEST PUSH1 0x40 MLOAD PUSH1 0x20 DUP2 DUP4 SUB SUB DUP2 MSTORE SWAP1 PUSH1 0x40 MSTORE DUP1 MLOAD SWAP1 PUSH1 0x20 ADD KECCAK256 SWAP1 POP SWAP1 JUMP JUMPDEST PUSH1 0x0 PUSH1 0x60 PUSH1 0x80 PUSH20 0xFFFFFFFFFFFFFFFFFFFFFFFFFFFFFFFFFFFFFFFF AND PUSH4 0x19E1C5C4 PUSH3 0x32E DUP7 PUSH3 0x42A PUSH1 0x20 SHL PUSH1 0x20 SHR JUMP JUMPDEST DUP6 PUSH1 0x40 MLOAD DUP4 PUSH4 0xFFFFFFFF AND PUSH1 0xE0 SHL DUP2 MSTORE PUSH1 0x4 ADD PUSH3 0x34E SWAP3 SWAP2 SWAP1 PUSH3 0xB2C JUMP JUMPDEST PUSH1 0x0 PUSH1 0x40 MLOAD DUP1 DUP4 SUB DUP2 DUP7 GAS STATICCALL ISZERO DUP1 ISZERO PUSH3 0x36C JUMPI RETURNDATASIZE PUSH1 0x0 DUP1 RETURNDATACOPY RETURNDATASIZE PUSH1 0x0 REVERT JUMPDEST POP POP POP POP PUSH1 0x40 MLOAD RETURNDATASIZE PUSH1 0x0 DUP3 RETURNDATACOPY RETURNDATASIZE PUSH1 0x1F NOT PUSH1 0x1F DUP3 ADD AND DUP3 ADD DUP1 PUSH1 0x40 MSTORE POP DUP2 ADD SWAP1 PUSH3 0x397 SWAP2 SWAP1 PUSH3 0xC14 JUMP JUMPDEST SWAP1 POP PUSH3 0x3AA DUP2 PUSH3 0x48B PUSH1 0x20 SHL PUSH1 0x20 SHR JUMP JUMPDEST SWAP2 POP POP SWAP3 SWAP2 POP POP JUMP JUMPDEST PUSH1 0x0 DUP1 DUP3 SWAP1 POP PUSH1 0x1F DUP2 MLOAD GT ISZERO PUSH3 0x403 JUMPI DUP3 PUSH1 0x40 MLOAD PUSH32 0x305A27A900000000000000000000000000000000000000000000000000000000 DUP2 MSTORE PUSH1 0x4 ADD PUSH3 0x3FA SWAP2 SWAP1 PUSH3 0xCB7 JUMP JUMPDEST PUSH1 0x40 MLOAD DUP1 SWAP2 SUB SWAP1 REVERT JUMPDEST DUP1 MLOAD DUP2 PUSH3 0x411 SWAP1 PUSH3 0xD02 JUMP JUMPDEST PUSH1 0x0 SHR OR PUSH1 0x0 SHL SWAP2 POP POP SWAP2 SWAP1 POP JUMP JUMPDEST PUSH1 0x0 DUP2 SWAP1 POP SWAP2 SWAP1 POP JUMP JUMPDEST PUSH1 0x60 PUSH1 0x20 PUSH8 0xFFFFFFFFFFFFFFFF DUP2 GT ISZERO PUSH3 0x44A JUMPI PUSH3 0x449 PUSH3 0x4C8 JUMP JUMPDEST JUMPDEST PUSH1 0x40 MLOAD SWAP1 DUP1 DUP3 MSTORE DUP1 PUSH1 0x1F ADD PUSH1 0x1F NOT AND PUSH1 0x20 ADD DUP3 ADD PUSH1 0x40 MSTORE DUP1 ISZERO PUSH3 0x47D JUMPI DUP2 PUSH1 0x20 ADD PUSH1 0x1 DUP3 MUL DUP1 CALLDATASIZE DUP4 CALLDATACOPY DUP1 DUP3 ADD SWAP2 POP POP SWAP1 POP JUMPDEST POP SWAP1 POP DUP2 PUSH1 0x20 DUP3 ADD MSTORE SWAP2 SWAP1 POP JUMP JUMPDEST PUSH1 0x0 PUSH1 0x20 DUP3 ADD MLOAD SWAP1 POP SWAP2 SWAP1 POP JUMP JUMPDEST PUSH1 0x0 PUSH1 0x40 MLOAD SWAP1 POP SWAP1 JUMP JUMPDEST PUSH1 0x0 DUP1 REVERT JUMPDEST PUSH1 0x0 DUP1 REVERT JUMPDEST PUSH1 0x0 DUP1 REVERT JUMPDEST PUSH1 0x0 DUP1 REVERT JUMPDEST PUSH1 0x0 PUSH1 0x1F NOT PUSH1 0x1F DUP4 ADD AND SWAP1 POP SWAP2 SWAP1 POP JUMP JUMPDEST PUSH32 0x4E487B7100000000000000000000000000000000000000000000000000000000 PUSH1 0x0 MSTORE PUSH1 0x41 PUSH1 0x4 MSTORE PUSH1 0x24 PUSH1 0x0 REVERT JUMPDEST PUSH3 0x502 DUP3 PUSH3 0x4B7 JUMP JUMPDEST DUP2 ADD DUP2 DUP2 LT PUSH8 0xFFFFFFFFFFFFFFFF DUP3 GT OR ISZERO PUSH3 0x524 JUMPI PUSH3 0x523 PUSH3 0x4C8 JUMP JUMPDEST JUMPDEST DUP1 PUSH1 0x40 MSTORE POP POP POP JUMP JUMPDEST PUSH1 0x0 PUSH3 0x539 PUSH3 0x499 JUMP JUMPDEST SWAP1 POP PUSH3 0x547 DUP3 DUP3 PUSH3 0x4F7 JUMP JUMPDEST SWAP2 SWAP1 POP JUMP JUMPDEST PUSH1 0x0 PUSH8 0xFFFFFFFFFFFFFFFF DUP3 GT ISZERO PUSH3 0x56A JUMPI PUSH3 0x569 PUSH3 0x4C8 JUMP JUMPDEST JUMPDEST PUSH3 0x575 DUP3 PUSH3 0x4B7 JUMP JUMPDEST SWAP1 POP PUSH1 0x20 DUP2 ADD SWAP1 POP SWAP2 SWAP1 POP JUMP JUMPDEST PUSH1 0x0 JUMPDEST DUP4 DUP2 LT ISZERO PUSH3 0x5A2 JUMPI DUP1 DUP3 ADD MLOAD DUP2 DUP5 ADD MSTORE PUSH1 0x20 DUP2 ADD SWAP1 POP PUSH3 0x585 JUMP JUMPDEST PUSH1 0x0 DUP5 DUP5 ADD MSTORE POP POP POP POP JUMP JUMPDEST PUSH1 0x0 PUSH3 0x5C5 PUSH3 0x5BF DUP5 PUSH3 0x54C JUMP JUMPDEST PUSH3 0x52D JUMP JUMPDEST SWAP1 POP DUP3 DUP2 MSTORE PUSH1 0x20 DUP2 ADD DUP5 DUP5 DUP5 ADD GT ISZERO PUSH3 0x5E4 JUMPI PUSH3 0x5E3 PUSH3 0x4B2 JUMP JUMPDEST JUMPDEST PUSH3 0x5F1 DUP5 DUP3 DUP6 PUSH3 0x582 JUMP JUMPDEST POP SWAP4 SWAP3 POP POP POP JUMP JUMPDEST PUSH1 0x0 DUP3 PUSH1 0x1F DUP4 ADD SLT PUSH3 0x611 JUMPI PUSH3 0x610 PUSH3 0x4AD JUMP JUMPDEST JUMPDEST DUP2 MLOAD PUSH3 0x623 DUP5 DUP3 PUSH1 0x20 DUP7 ADD PUSH3 0x5AE JUMP JUMPDEST SWAP2 POP POP SWAP3 SWAP2 POP POP JUMP JUMPDEST PUSH1 0x0 DUP1 PUSH1 0x40 DUP4 DUP6 SUB SLT ISZERO PUSH3 0x646 JUMPI PUSH3 0x645 PUSH3 0x4A3 JUMP JUMPDEST JUMPDEST PUSH1 0x0 DUP4 ADD MLOAD PUSH8 0xFFFFFFFFFFFFFFFF DUP2 GT ISZERO PUSH3 0x667 JUMPI PUSH3 0x666 PUSH3 0x4A8 JUMP JUMPDEST JUMPDEST PUSH3 0x675 DUP6 DUP3 DUP7 ADD PUSH3 0x5F9 JUMP JUMPDEST SWAP3 POP POP PUSH1 0x20 DUP4 ADD MLOAD PUSH8 0xFFFFFFFFFFFFFFFF DUP2 GT ISZERO PUSH3 0x699 JUMPI PUSH3 0x698 PUSH3 0x4A8 JUMP JUMPDEST JUMPDEST PUSH3 0x6A7 DUP6 DUP3 DUP7 ADD PUSH3 0x5F9 JUMP JUMPDEST SWAP2 POP POP SWAP3 POP SWAP3 SWAP1 POP JUMP JUMPDEST PUSH1 0x0 DUP2 MLOAD SWAP1 POP SWAP2 SWAP1 POP JUMP JUMPDEST PUSH32 0x4E487B7100000000000000000000000000000000000000000000000000000000 PUSH1 0x0 MSTORE PUSH1 0x22 PUSH1 0x4 MSTORE PUSH1 0x24 PUSH1 0x0 REVERT JUMPDEST PUSH1 0x0 PUSH1 0x2 DUP3 DIV SWAP1 POP PUSH1 0x1 DUP3 AND DUP1 PUSH3 0x704 JUMPI PUSH1 0x7F DUP3 AND SWAP2 POP JUMPDEST PUSH1 0x20 DUP3 LT DUP2 SUB PUSH3 0x71A JUMPI PUSH3 0x719 PUSH3 0x6BC JUMP JUMPDEST JUMPDEST POP SWAP2 SWAP1 POP JUMP JUMPDEST PUSH1 0x0 DUP2 SWAP1 POP DUP2 PUSH1 0x0 MSTORE PUSH1 0x20 PUSH1 0x0 KECCAK256 SWAP1 POP SWAP2 SWAP1 POP JUMP JUMPDEST PUSH1 0x0 PUSH1 0x20 PUSH1 0x1F DUP4 ADD DIV SWAP1 POP SWAP2 SWAP1 POP JUMP JUMPDEST PUSH1 0x0 DUP3 DUP3 SHL SWAP1 POP SWAP3 SWAP2 POP POP JUMP JUMPDEST PUSH1 0x0 PUSH1 0x8 DUP4 MUL PUSH3 0x784 PUSH32 0xFFFFFFFFFFFFFFFFFFFFFFFFFFFFFFFFFFFFFFFFFFFFFFFFFFFFFFFFFFFFFFFF DUP3 PUSH3 0x745 JUMP JUMPDEST PUSH3 0x790 DUP7 DUP4 PUSH3 0x745 JUMP JUMPDEST SWAP6 POP DUP1 NOT DUP5 AND SWAP4 POP DUP1 DUP7 AND DUP5 OR SWAP3 POP POP POP SWAP4 SWAP3 POP POP POP JUMP JUMPDEST PUSH1 0x0 DUP2 SWAP1 POP SWAP2 SWAP1 POP JUMP JUMPDEST PUSH1 0x0 DUP2 SWAP1 POP SWAP2 SWAP1 POP JUMP JUMPDEST PUSH1 0x0 PUSH3 0x7DD PUSH3 0x7D7 PUSH3 0x7D1 DUP5 PUSH3 0x7A8 JUMP JUMPDEST PUSH3 0x7B2 JUMP JUMPDEST PUSH3 0x7A8 JUMP JUMPDEST SWAP1 POP SWAP2 SWAP1 POP JUMP JUMPDEST PUSH1 0x0 DUP2 SWAP1 POP SWAP2 SWAP1 POP JUMP JUMPDEST PUSH3 0x7F9 DUP4 PUSH3 0x7BC JUMP JUMPDEST PUSH3 0x811 PUSH3 0x808 DUP3 PUSH3 0x7E4 JUMP JUMPDEST DUP5 DUP5 SLOAD PUSH3 0x752 JUMP JUMPDEST DUP3 SSTORE POP POP POP POP JUMP JUMPDEST PUSH1 0x0 SWAP1 JUMP JUMPDEST PUSH3 0x828 PUSH3 0x819 JUMP JUMPDEST PUSH3 0x835 DUP2 DUP5 DUP5 PUSH3 0x7EE JUMP JUMPDEST POP POP POP JUMP JUMPDEST JUMPDEST DUP2 DUP2 LT ISZERO PUSH3 0x85D JUMPI PUSH3 0x851 PUSH1 0x0 DUP3 PUSH3 0x81E JUMP JUMPDEST PUSH1 0x1 DUP2 ADD SWAP1 POP PUSH3 0x83B JUMP JUMPDEST POP POP JUMP JUMPDEST PUSH1 0x1F DUP3 GT ISZERO PUSH3 0x8AC JUMPI PUSH3 0x876 DUP2 PUSH3 0x720 JUMP JUMPDEST PUSH3 0x881 DUP5 PUSH3 0x735 JUMP JUMPDEST DUP2 ADD PUSH1 0x20 DUP6 LT ISZERO PUSH3 0x891 JUMPI DUP2 SWAP1 POP JUMPDEST PUSH3 0x8A9 PUSH3 0x8A0 DUP6 PUSH3 0x735 JUMP JUMPDEST DUP4 ADD DUP3 PUSH3 0x83A JUMP JUMPDEST POP POP JUMPDEST POP POP POP JUMP JUMPDEST PUSH1 0x0 DUP3 DUP3 SHR SWAP1 POP SWAP3 SWAP2 POP POP JUMP JUMPDEST PUSH1 0x0 PUSH3 0x8D1 PUSH1 0x0 NOT DUP5 PUSH1 0x8 MUL PUSH3 0x8B1 JUMP JUMPDEST NOT DUP1 DUP4 AND SWAP2 POP POP SWAP3 SWAP2 POP POP JUMP JUMPDEST PUSH1 0x0 PUSH3 0x8EC DUP4 DUP4 PUSH3 0x8BE JUMP JUMPDEST SWAP2 POP DUP3 PUSH1 0x2 MUL DUP3 OR SWAP1 POP SWAP3 SWAP2 POP POP JUMP JUMPDEST PUSH3 0x907 DUP3 PUSH3 0x6B1 JUMP JUMPDEST PUSH8 0xFFFFFFFFFFFFFFFF DUP2 GT ISZERO PUSH3 0x923 JUMPI PUSH3 0x922 PUSH3 0x4C8 JUMP JUMPDEST JUMPDEST PUSH3 0x92F DUP3 SLOAD PUSH3 0x6EB JUMP JUMPDEST PUSH3 0x93C DUP3 DUP3 DUP6 PUSH3 0x861 JUMP JUMPDEST PUSH1 0x0 PUSH1 0x20 SWAP1 POP PUSH1 0x1F DUP4 GT PUSH1 0x1 DUP2 EQ PUSH3 0x974 JUMPI PUSH1 0x0 DUP5 ISZERO PUSH3 0x95F JUMPI DUP3 DUP8 ADD MLOAD SWAP1 POP JUMPDEST PUSH3 0x96B DUP6 DUP3 PUSH3 0x8DE JUMP JUMPDEST DUP7 SSTORE POP PUSH3 0x9DB JUMP JUMPDEST PUSH1 0x1F NOT DUP5 AND PUSH3 0x984 DUP7 PUSH3 0x720 JUMP JUMPDEST PUSH1 0x0 JUMPDEST DUP3 DUP2 LT ISZERO PUSH3 0x9AE JUMPI DUP5 DUP10 ADD MLOAD DUP3 SSTORE PUSH1 0x1 DUP3 ADD SWAP2 POP PUSH1 0x20 DUP6 ADD SWAP5 POP PUSH1 0x20 DUP2 ADD SWAP1 POP PUSH3 0x987 JUMP JUMPDEST DUP7 DUP4 LT ISZERO PUSH3 0x9CE JUMPI DUP5 DUP10 ADD MLOAD PUSH3 0x9CA PUSH1 0x1F DUP10 AND DUP3 PUSH3 0x8BE JUMP JUMPDEST DUP4 SSTORE POP JUMPDEST PUSH1 0x1 PUSH1 0x2 DUP9 MUL ADD DUP9 SSTORE POP POP POP JUMPDEST POP POP POP POP POP POP JUMP JUMPDEST PUSH1 0x0 DUP2 SWAP1 POP SWAP2 SWAP1 POP JUMP JUMPDEST PUSH3 0x9F8 DUP2 PUSH3 0x9E3 JUMP JUMPDEST DUP3 MSTORE POP POP JUMP JUMPDEST PUSH3 0xA09 DUP2 PUSH3 0x7A8 JUMP JUMPDEST DUP3 MSTORE POP POP JUMP JUMPDEST PUSH1 0x0 PUSH20 0xFFFFFFFFFFFFFFFFFFFFFFFFFFFFFFFFFFFFFFFF DUP3 AND SWAP1 POP SWAP2 SWAP1 POP JUMP JUMPDEST PUSH1 0x0 PUSH3 0xA3C DUP3 PUSH3 0xA0F JUMP JUMPDEST SWAP1 POP SWAP2 SWAP1 POP JUMP JUMPDEST PUSH3 0xA4E DUP2 PUSH3 0xA2F JUMP JUMPDEST DUP3 MSTORE POP POP JUMP JUMPDEST PUSH1 0x0 PUSH1 0xA0 DUP3 ADD SWAP1 POP PUSH3 0xA6B PUSH1 0x0 DUP4 ADD DUP9 PUSH3 0x9ED JUMP JUMPDEST PUSH3 0xA7A PUSH1 0x20 DUP4 ADD DUP8 PUSH3 0x9ED JUMP JUMPDEST PUSH3 0xA89 PUSH1 0x40 DUP4 ADD DUP7 PUSH3 0x9ED JUMP JUMPDEST PUSH3 0xA98 PUSH1 0x60 DUP4 ADD DUP6 PUSH3 0x9FE JUMP JUMPDEST PUSH3 0xAA7 PUSH1 0x80 DUP4 ADD DUP5 PUSH3 0xA43 JUMP JUMPDEST SWAP7 SWAP6 POP POP POP POP POP POP JUMP JUMPDEST PUSH1 0x0 DUP2 MLOAD SWAP1 POP SWAP2 SWAP1 POP JUMP JUMPDEST PUSH1 0x0 DUP3 DUP3 MSTORE PUSH1 0x20 DUP3 ADD SWAP1 POP SWAP3 SWAP2 POP POP JUMP JUMPDEST PUSH1 0x0 PUSH3 0xADA DUP3 PUSH3 0xAB1 JUMP JUMPDEST PUSH3 0xAE6 DUP2 DUP6 PUSH3 0xABC JUMP JUMPDEST SWAP4 POP PUSH3 0xAF8 DUP2 DUP6 PUSH1 0x20 DUP7 ADD PUSH3 0x582 JUMP JUMPDEST PUSH3 0xB03 DUP2 PUSH3 0x4B7 JUMP JUMPDEST DUP5 ADD SWAP2 POP POP SWAP3 SWAP2 POP POP JUMP JUMPDEST PUSH1 0x0 PUSH1 0xFF DUP3 AND SWAP1 POP SWAP2 SWAP1 POP JUMP JUMPDEST PUSH3 0xB26 DUP2 PUSH3 0xB0E JUMP JUMPDEST DUP3 MSTORE POP POP JUMP JUMPDEST PUSH1 0x0 PUSH1 0x40 DUP3 ADD SWAP1 POP DUP2 DUP2 SUB PUSH1 0x0 DUP4 ADD MSTORE PUSH3 0xB48 DUP2 DUP6 PUSH3 0xACD JUMP JUMPDEST SWAP1 POP PUSH3 0xB59 PUSH1 0x20 DUP4 ADD DUP5 PUSH3 0xB1B JUMP JUMPDEST SWAP4 SWAP3 POP POP POP JUMP JUMPDEST PUSH1 0x0 PUSH8 0xFFFFFFFFFFFFFFFF DUP3 GT ISZERO PUSH3 0xB7E JUMPI PUSH3 0xB7D PUSH3 0x4C8 JUMP JUMPDEST JUMPDEST PUSH3 0xB89 DUP3 PUSH3 0x4B7 JUMP JUMPDEST SWAP1 POP PUSH1 0x20 DUP2 ADD SWAP1 POP SWAP2 SWAP1 POP JUMP JUMPDEST PUSH1 0x0 PUSH3 0xBAD PUSH3 0xBA7 DUP5 PUSH3 0xB60 JUMP JUMPDEST PUSH3 0x52D JUMP JUMPDEST SWAP1 POP DUP3 DUP2 MSTORE PUSH1 0x20 DUP2 ADD DUP5 DUP5 DUP5 ADD GT ISZERO PUSH3 0xBCC JUMPI PUSH3 0xBCB PUSH3 0x4B2 JUMP JUMPDEST JUMPDEST PUSH3 0xBD9 DUP5 DUP3 DUP6 PUSH3 0x582 JUMP JUMPDEST POP SWAP4 SWAP3 POP POP POP JUMP JUMPDEST PUSH1 0x0 DUP3 PUSH1 0x1F DUP4 ADD SLT PUSH3 0xBF9 JUMPI PUSH3 0xBF8 PUSH3 0x4AD JUMP JUMPDEST JUMPDEST DUP2 MLOAD PUSH3 0xC0B DUP5 DUP3 PUSH1 0x20 DUP7 ADD PUSH3 0xB96 JUMP JUMPDEST SWAP2 POP POP SWAP3 SWAP2 POP POP JUMP JUMPDEST PUSH1 0x0 PUSH1 0x20 DUP3 DUP5 SUB SLT ISZERO PUSH3 0xC2D JUMPI PUSH3 0xC2C PUSH3 0x4A3 JUMP JUMPDEST JUMPDEST PUSH1 0x0 DUP3 ADD MLOAD PUSH8 0xFFFFFFFFFFFFFFFF DUP2 GT ISZERO PUSH3 0xC4E JUMPI PUSH3 0xC4D PUSH3 0x4A8 JUMP JUMPDEST JUMPDEST PUSH3 0xC5C DUP5 DUP3 DUP6 ADD PUSH3 0xBE1 JUMP JUMPDEST SWAP2 POP POP SWAP3 SWAP2 POP POP JUMP JUMPDEST PUSH1 0x0 DUP3 DUP3 MSTORE PUSH1 0x20 DUP3 ADD SWAP1 POP SWAP3 SWAP2 POP POP JUMP JUMPDEST PUSH1 0x0 PUSH3 0xC83 DUP3 PUSH3 0x6B1 JUMP JUMPDEST PUSH3 0xC8F DUP2 DUP6 PUSH3 0xC65 JUMP JUMPDEST SWAP4 POP PUSH3 0xCA1 DUP2 DUP6 PUSH1 0x20 DUP7 ADD PUSH3 0x582 JUMP JUMPDEST PUSH3 0xCAC DUP2 PUSH3 0x4B7 JUMP JUMPDEST DUP5 ADD SWAP2 POP POP SWAP3 SWAP2 POP POP JUMP JUMPDEST PUSH1 0x0 PUSH1 0x20 DUP3 ADD SWAP1 POP DUP2 DUP2 SUB PUSH1 0x0 DUP4 ADD MSTORE PUSH3 0xCD3 DUP2 DUP5 PUSH3 0xC76 JUMP JUMPDEST SWAP1 POP SWAP3 SWAP2 POP POP JUMP JUMPDEST PUSH1 0x0 DUP2 SWAP1 POP PUSH1 0x20 DUP3 ADD SWAP1 POP SWAP2 SWAP1 POP JUMP JUMPDEST PUSH1 0x0 PUSH3 0xCF9 DUP3 MLOAD PUSH3 0x9E3 JUMP JUMPDEST DUP1 SWAP2 POP POP SWAP2 SWAP1 POP JUMP JUMPDEST PUSH1 0x0 PUSH3 0xD0F DUP3 PUSH3 0xAB1 JUMP JUMPDEST DUP3 PUSH3 0xD1B DUP5 PUSH3 0xCDB JUMP JUMPDEST SWAP1 POP PUSH3 0xD28 DUP2 PUSH3 0xCEB JUMP JUMPDEST SWAP3 POP PUSH1 0x20 DUP3 LT ISZERO PUSH3 0xD6B JUMPI PUSH3 0xD66 PUSH32 0xFFFFFFFFFFFFFFFFFFFFFFFFFFFFFFFFFFFFFFFFFFFFFFFFFFFFFFFFFFFFFFFF DUP4 PUSH1 0x20 SUB PUSH1 0x8 MUL PUSH3 0x745 JUMP JUMPDEST DUP4 AND SWAP3 POP JUMPDEST POP POP SWAP2 SWAP1 POP JUMP JUMPDEST PUSH1 0x80 MLOAD PUSH1 0xA0 MLOAD PUSH1 0xC0 MLOAD PUSH1 0xE0 MLOAD PUSH2 0x100 MLOAD PUSH2 0x120 MLOAD PUSH2 0x140 MLOAD PUSH2 0x382B PUSH3 0xDCD PUSH1 0x0 CODECOPY PUSH1 0x0 PUSH2 0x139A ADD MSTORE PUSH1 0x0 PUSH2 0x135F ADD MSTORE PUSH1 0x0 PUSH2 0x248A ADD MSTORE PUSH1 0x0 PUSH2 0x2469 ADD MSTORE PUSH1 0x0 PUSH2 0x1BB7 ADD MSTORE PUSH1 0x0 PUSH2 0x1C0D ADD MSTORE PUSH1 0x0 PUSH2 0x1C36 ADD MSTORE PUSH2 0x382B PUSH1 0x0 RETURN INVALID PUSH1 0x80 PUSH1 0x40 MSTORE CALLVALUE DUP1 ISZERO PUSH2 0x10 JUMPI PUSH1 0x0 DUP1 REVERT JUMPDEST POP PUSH1 0x4 CALLDATASIZE LT PUSH2 0x142 JUMPI PUSH1 0x0 CALLDATALOAD PUSH1 0xE0 SHR DUP1 PUSH4 0x84B0196E GT PUSH2 0xB8 JUMPI DUP1 PUSH4 0xA9059CBB GT PUSH2 0x7C JUMPI DUP1 PUSH4 0xA9059CBB EQ PUSH2 0x3B7 JUMPI DUP1 PUSH4 0xAF575A00 EQ PUSH2 0x3E7 JUMPI DUP1 PUSH4 0xC4224C19 EQ PUSH2 0x417 JUMPI DUP1 PUSH4 0xD918156E EQ PUSH2 0x447 JUMPI DUP1 PUSH4 0xDD62ED3E EQ PUSH2 0x477 JUMPI DUP1 PUSH4 0xF4B8EF15 EQ PUSH2 0x4A7 JUMPI PUSH2 0x142 JUMP JUMPDEST DUP1 PUSH4 0x84B0196E EQ PUSH2 0x30D JUMPI DUP1 PUSH4 0x8624A349 EQ PUSH2 0x331 JUMPI DUP1 PUSH4 0x95D89B41 EQ PUSH2 0x361 JUMPI DUP1 PUSH4 0x9F284BE7 EQ PUSH2 0x37F JUMPI DUP1 PUSH4 0xA0712D68 EQ PUSH2 0x39B JUMPI PUSH2 0x142 JUMP JUMPDEST DUP1 PUSH4 0x313CE567 GT PUSH2 0x10A JUMPI DUP1 PUSH4 0x313CE567 EQ PUSH2 0x213 JUMPI DUP1 PUSH4 0x39C217F7 EQ PUSH2 0x231 JUMPI DUP1 PUSH4 0x5356C429 EQ PUSH2 0x261 JUMPI DUP1 PUSH4 0x60277204 EQ PUSH2 0x291 JUMPI DUP1 PUSH4 0x6E0505E1 EQ PUSH2 0x2C1 JUMPI DUP1 PUSH4 0x70A08231 EQ PUSH2 0x2DD JUMPI PUSH2 0x142 JUMP JUMPDEST DUP1 PUSH4 0x6FDDE03 EQ PUSH2 0x147 JUMPI DUP1 PUSH4 0x95EA7B3 EQ PUSH2 0x165 JUMPI DUP1 PUSH4 0x18160DDD EQ PUSH2 0x195 JUMPI DUP1 PUSH4 0x23B872DD EQ PUSH2 0x1B3 JUMPI DUP1 PUSH4 0x23DB9354 EQ PUSH2 0x1E3 JUMPI JUMPDEST PUSH1 0x0 DUP1 REVERT JUMPDEST PUSH2 0x14F PUSH2 0x4C3 JUMP JUMPDEST PUSH1 0x40 MLOAD PUSH2 0x15C SWAP2 SWAP1 PUSH2 0x284B JUMP JUMPDEST PUSH1 0x40 MLOAD DUP1 SWAP2 SUB SWAP1 RETURN JUMPDEST PUSH2 0x17F PUSH1 0x4 DUP1 CALLDATASIZE SUB DUP2 ADD SWAP1 PUSH2 0x17A SWAP2 SWAP1 PUSH2 0x2915 JUMP JUMPDEST PUSH2 0x555 JUMP JUMPDEST PUSH1 0x40 MLOAD PUSH2 0x18C SWAP2 SWAP1 PUSH2 0x2970 JUMP JUMPDEST PUSH1 0x40 MLOAD DUP1 SWAP2 SUB SWAP1 RETURN JUMPDEST PUSH2 0x19D PUSH2 0x578 JUMP JUMPDEST PUSH1 0x40 MLOAD PUSH2 0x1AA SWAP2 SWAP1 PUSH2 0x299A JUMP JUMPDEST PUSH1 0x40 MLOAD DUP1 SWAP2 SUB SWAP1 RETURN JUMPDEST PUSH2 0x1CD PUSH1 0x4 DUP1 CALLDATASIZE SUB DUP2 ADD SWAP1 PUSH2 0x1C8 SWAP2 SWAP1 PUSH2 0x29B5 JUMP JUMPDEST PUSH2 0x582 JUMP JUMPDEST PUSH1 0x40 MLOAD PUSH2 0x1DA SWAP2 SWAP1 PUSH2 0x2970 JUMP JUMPDEST PUSH1 0x40 MLOAD DUP1 SWAP2 SUB SWAP1 RETURN JUMPDEST PUSH2 0x1FD PUSH1 0x4 DUP1 CALLDATASIZE SUB DUP2 ADD SWAP1 PUSH2 0x1F8 SWAP2 SWAP1 PUSH2 0x2A08 JUMP JUMPDEST PUSH2 0x5B1 JUMP JUMPDEST PUSH1 0x40 MLOAD PUSH2 0x20A SWAP2 SWAP1 PUSH2 0x2A83 JUMP JUMPDEST PUSH1 0x40 MLOAD DUP1 SWAP2 SUB SWAP1 RETURN JUMPDEST PUSH2 0x21B PUSH2 0x638 JUMP JUMPDEST PUSH1 0x40 MLOAD PUSH2 0x228 SWAP2 SWAP1 PUSH2 0x2ABA JUMP JUMPDEST PUSH1 0x40 MLOAD DUP1 SWAP2 SUB SWAP1 RETURN JUMPDEST PUSH2 0x24B PUSH1 0x4 DUP1 CALLDATASIZE SUB DUP2 ADD SWAP1 PUSH2 0x246 SWAP2 SWAP1 PUSH2 0x2AF9 JUMP JUMPDEST PUSH2 0x641 JUMP JUMPDEST PUSH1 0x40 MLOAD PUSH2 0x258 SWAP2 SWAP1 PUSH2 0x2A83 JUMP JUMPDEST PUSH1 0x40 MLOAD DUP1 SWAP2 SUB SWAP1 RETURN JUMPDEST PUSH2 0x27B PUSH1 0x4 DUP1 CALLDATASIZE SUB DUP2 ADD SWAP1 PUSH2 0x276 SWAP2 SWAP1 PUSH2 0x2B74 JUMP JUMPDEST PUSH2 0x666 JUMP JUMPDEST PUSH1 0x40 MLOAD PUSH2 0x288 SWAP2 SWAP1 PUSH2 0x284B JUMP JUMPDEST PUSH1 0x40 MLOAD DUP1 SWAP2 SUB SWAP1 RETURN JUMPDEST PUSH2 0x2AB PUSH1 0x4 DUP1 CALLDATASIZE SUB DUP2 ADD SWAP1 PUSH2 0x2A6 SWAP2 SWAP1 PUSH2 0x2DB1 JUMP JUMPDEST PUSH2 0x764 JUMP JUMPDEST PUSH1 0x40 MLOAD PUSH2 0x2B8 SWAP2 SWAP1 PUSH2 0x284B JUMP JUMPDEST PUSH1 0x40 MLOAD DUP1 SWAP2 SUB SWAP1 RETURN JUMPDEST PUSH2 0x2DB PUSH1 0x4 DUP1 CALLDATASIZE SUB DUP2 ADD SWAP1 PUSH2 0x2D6 SWAP2 SWAP1 PUSH2 0x2E49 JUMP JUMPDEST PUSH2 0x89A JUMP JUMPDEST STOP JUMPDEST PUSH2 0x2F7 PUSH1 0x4 DUP1 CALLDATASIZE SUB DUP2 ADD SWAP1 PUSH2 0x2F2 SWAP2 SWAP1 PUSH2 0x2E76 JUMP JUMPDEST PUSH2 0x9D1 JUMP JUMPDEST PUSH1 0x40 MLOAD PUSH2 0x304 SWAP2 SWAP1 PUSH2 0x299A JUMP JUMPDEST PUSH1 0x40 MLOAD DUP1 SWAP2 SUB SWAP1 RETURN JUMPDEST PUSH2 0x315 PUSH2 0xA19 JUMP JUMPDEST PUSH1 0x40 MLOAD PUSH2 0x328 SWAP8 SWAP7 SWAP6 SWAP5 SWAP4 SWAP3 SWAP2 SWAP1 PUSH2 0x2FBA JUMP JUMPDEST PUSH1 0x40 MLOAD DUP1 SWAP2 SUB SWAP1 RETURN JUMPDEST PUSH2 0x34B PUSH1 0x4 DUP1 CALLDATASIZE SUB DUP2 ADD SWAP1 PUSH2 0x346 SWAP2 SWAP1 PUSH2 0x303E JUMP JUMPDEST PUSH2 0xAC3 JUMP JUMPDEST PUSH1 0x40 MLOAD PUSH2 0x358 SWAP2 SWAP1 PUSH2 0x2A83 JUMP JUMPDEST PUSH1 0x40 MLOAD DUP1 SWAP2 SUB SWAP1 RETURN JUMPDEST PUSH2 0x369 PUSH2 0xB01 JUMP JUMPDEST PUSH1 0x40 MLOAD PUSH2 0x376 SWAP2 SWAP1 PUSH2 0x284B JUMP JUMPDEST PUSH1 0x40 MLOAD DUP1 SWAP2 SUB SWAP1 RETURN JUMPDEST PUSH2 0x399 PUSH1 0x4 DUP1 CALLDATASIZE SUB DUP2 ADD SWAP1 PUSH2 0x394 SWAP2 SWAP1 PUSH2 0x2E49 JUMP JUMPDEST PUSH2 0xB93 JUMP JUMPDEST STOP JUMPDEST PUSH2 0x3B5 PUSH1 0x4 DUP1 CALLDATASIZE SUB DUP2 ADD SWAP1 PUSH2 0x3B0 SWAP2 SWAP1 PUSH2 0x30AD JUMP JUMPDEST PUSH2 0xCA0 JUMP JUMPDEST STOP JUMPDEST PUSH2 0x3D1 PUSH1 0x4 DUP1 CALLDATASIZE SUB DUP2 ADD SWAP1 PUSH2 0x3CC SWAP2 SWAP1 PUSH2 0x2915 JUMP JUMPDEST PUSH2 0xCAD JUMP JUMPDEST PUSH1 0x40 MLOAD PUSH2 0x3DE SWAP2 SWAP1 PUSH2 0x2970 JUMP JUMPDEST PUSH1 0x40 MLOAD DUP1 SWAP2 SUB SWAP1 RETURN JUMPDEST PUSH2 0x401 PUSH1 0x4 DUP1 CALLDATASIZE SUB DUP2 ADD SWAP1 PUSH2 0x3FC SWAP2 SWAP1 PUSH2 0x3106 JUMP JUMPDEST PUSH2 0xCD0 JUMP JUMPDEST PUSH1 0x40 MLOAD PUSH2 0x40E SWAP2 SWAP1 PUSH2 0x2A83 JUMP JUMPDEST PUSH1 0x40 MLOAD DUP1 SWAP2 SUB SWAP1 RETURN JUMPDEST PUSH2 0x431 PUSH1 0x4 DUP1 CALLDATASIZE SUB DUP2 ADD SWAP1 PUSH2 0x42C SWAP2 SWAP1 PUSH2 0x3159 JUMP JUMPDEST PUSH2 0xCFD JUMP JUMPDEST PUSH1 0x40 MLOAD PUSH2 0x43E SWAP2 SWAP1 PUSH2 0x2A83 JUMP JUMPDEST PUSH1 0x40 MLOAD DUP1 SWAP2 SUB SWAP1 RETURN JUMPDEST PUSH2 0x461 PUSH1 0x4 DUP1 CALLDATASIZE SUB DUP2 ADD SWAP1 PUSH2 0x45C SWAP2 SWAP1 PUSH2 0x2AF9 JUMP JUMPDEST PUSH2 0xD12 JUMP JUMPDEST PUSH1 0x40 MLOAD PUSH2 0x46E SWAP2 SWAP1 PUSH2 0x2970 JUMP JUMPDEST PUSH1 0x40 MLOAD DUP1 SWAP2 SUB SWAP1 RETURN JUMPDEST PUSH2 0x491 PUSH1 0x4 DUP1 CALLDATASIZE SUB DUP2 ADD SWAP1 PUSH2 0x48C SWAP2 SWAP1 PUSH2 0x2A08 JUMP JUMPDEST PUSH2 0xD3A JUMP JUMPDEST PUSH1 0x40 MLOAD PUSH2 0x49E SWAP2 SWAP1 PUSH2 0x299A JUMP JUMPDEST PUSH1 0x40 MLOAD DUP1 SWAP2 SUB SWAP1 RETURN JUMPDEST PUSH2 0x4C1 PUSH1 0x4 DUP1 CALLDATASIZE SUB DUP2 ADD SWAP1 PUSH2 0x4BC SWAP2 SWAP1 PUSH2 0x3199 JUMP JUMPDEST PUSH2 0xDC1 JUMP JUMPDEST STOP JUMPDEST PUSH1 0x60 PUSH1 0x3 DUP1 SLOAD PUSH2 0x4D2 SWAP1 PUSH2 0x3211 JUMP JUMPDEST DUP1 PUSH1 0x1F ADD PUSH1 0x20 DUP1 SWAP2 DIV MUL PUSH1 0x20 ADD PUSH1 0x40 MLOAD SWAP1 DUP2 ADD PUSH1 0x40 MSTORE DUP1 SWAP3 SWAP2 SWAP1 DUP2 DUP2 MSTORE PUSH1 0x20 ADD DUP3 DUP1 SLOAD PUSH2 0x4FE SWAP1 PUSH2 0x3211 JUMP JUMPDEST DUP1 ISZERO PUSH2 0x54B JUMPI DUP1 PUSH1 0x1F LT PUSH2 0x520 JUMPI PUSH2 0x100 DUP1 DUP4 SLOAD DIV MUL DUP4 MSTORE SWAP2 PUSH1 0x20 ADD SWAP2 PUSH2 0x54B JUMP JUMPDEST DUP3 ADD SWAP2 SWAP1 PUSH1 0x0 MSTORE PUSH1 0x20 PUSH1 0x0 KECCAK256 SWAP1 JUMPDEST DUP2 SLOAD DUP2 MSTORE SWAP1 PUSH1 0x1 ADD SWAP1 PUSH1 0x20 ADD DUP1 DUP4 GT PUSH2 0x52E JUMPI DUP3 SWAP1 SUB PUSH1 0x1F AND DUP3 ADD SWAP2 JUMPDEST POP POP POP POP POP SWAP1 POP SWAP1 JUMP JUMPDEST PUSH1 0x0 DUP1 PUSH2 0x560 PUSH2 0xF0F JUMP JUMPDEST SWAP1 POP PUSH2 0x56D DUP2 DUP6 DUP6 PUSH2 0xF17 JUMP JUMPDEST PUSH1 0x1 SWAP2 POP POP SWAP3 SWAP2 POP POP JUMP JUMPDEST PUSH1 0x0 PUSH1 0x2 SLOAD SWAP1 POP SWAP1 JUMP JUMPDEST PUSH1 0x0 DUP1 PUSH2 0x58D PUSH2 0xF0F JUMP JUMPDEST SWAP1 POP PUSH2 0x59A DUP6 DUP3 DUP6 PUSH2 0xF29 JUMP JUMPDEST PUSH2 0x5A5 DUP6 DUP6 DUP6 PUSH2 0xFBD JUMP JUMPDEST PUSH1 0x1 SWAP2 POP POP SWAP4 SWAP3 POP POP POP JUMP JUMPDEST PUSH1 0x0 PUSH1 0x8 PUSH1 0x0 DUP5 PUSH20 0xFFFFFFFFFFFFFFFFFFFFFFFFFFFFFFFFFFFFFFFF AND PUSH20 0xFFFFFFFFFFFFFFFFFFFFFFFFFFFFFFFFFFFFFFFF AND DUP2 MSTORE PUSH1 0x20 ADD SWAP1 DUP2 MSTORE PUSH1 0x20 ADD PUSH1 0x0 KECCAK256 PUSH1 0x0 DUP4 PUSH20 0xFFFFFFFFFFFFFFFFFFFFFFFFFFFFFFFFFFFFFFFF AND PUSH20 0xFFFFFFFFFFFFFFFFFFFFFFFFFFFFFFFFFFFFFFFF AND DUP2 MSTORE PUSH1 0x20 ADD SWAP1 DUP2 MSTORE PUSH1 0x20 ADD PUSH1 0x0 KECCAK256 SLOAD SWAP1 POP SWAP3 SWAP2 POP POP JUMP JUMPDEST PUSH1 0x0 PUSH1 0x12 SWAP1 POP SWAP1 JUMP JUMPDEST PUSH1 0x0 PUSH2 0x65E DUP4 PUSH2 0x659 DUP5 PUSH2 0x654 SWAP1 PUSH2 0x329A JUMP JUMPDEST PUSH2 0x10B1 JUMP JUMPDEST PUSH2 0xCFD JUMP JUMPDEST SWAP1 POP SWAP3 SWAP2 POP POP JUMP JUMPDEST PUSH1 0x60 DUP2 PUSH2 0x672 SWAP1 PUSH2 0x32AD JUMP JUMPDEST PUSH1 0x0 PUSH2 0x6C9 PUSH32 0x6BDAEB2D29561F159C7EF98B16B27015FB2AEB87209C7EE656226D912F59927D DUP4 PUSH1 0x0 ADD MLOAD PUSH1 0x40 MLOAD PUSH1 0x20 ADD PUSH2 0x6AE SWAP3 SWAP2 SWAP1 PUSH2 0x32C0 JUMP JUMPDEST PUSH1 0x40 MLOAD PUSH1 0x20 DUP2 DUP4 SUB SUB DUP2 MSTORE SWAP1 PUSH1 0x40 MSTORE DUP1 MLOAD SWAP1 PUSH1 0x20 ADD KECCAK256 PUSH2 0x10C7 JUMP JUMPDEST SWAP1 POP PUSH1 0x0 PUSH2 0x6DB DUP3 DUP5 PUSH1 0x20 ADD MLOAD PUSH2 0x10E1 JUMP JUMPDEST SWAP1 POP CALLER PUSH20 0xFFFFFFFFFFFFFFFFFFFFFFFFFFFFFFFFFFFFFFFF AND DUP2 PUSH20 0xFFFFFFFFFFFFFFFFFFFFFFFFFFFFFFFFFFFFFFFF AND EQ PUSH2 0x742 JUMPI PUSH1 0x40 MLOAD PUSH32 0x3093A27700000000000000000000000000000000000000000000000000000000 DUP2 MSTORE PUSH1 0x4 ADD PUSH1 0x40 MLOAD DUP1 SWAP2 SUB SWAP1 REVERT JUMPDEST PUSH2 0x759 PUSH2 0x74F CALLER DUP9 PUSH2 0x5B1 JUMP JUMPDEST DUP7 PUSH1 0x0 ADD CALLDATALOAD PUSH2 0x110D JUMP JUMPDEST SWAP4 POP POP POP POP SWAP3 SWAP2 POP POP JUMP JUMPDEST PUSH1 0x60 DUP2 DUP4 PUSH1 0x0 PUSH2 0x7BF PUSH32 0x6BDAEB2D29561F159C7EF98B16B27015FB2AEB87209C7EE656226D912F59927D DUP5 PUSH1 0x0 ADD MLOAD PUSH1 0x40 MLOAD PUSH1 0x20 ADD PUSH2 0x7A4 SWAP3 SWAP2 SWAP1 PUSH2 0x32C0 JUMP JUMPDEST PUSH1 0x40 MLOAD PUSH1 0x20 DUP2 DUP4 SUB SUB DUP2 MSTORE SWAP1 PUSH1 0x40 MSTORE DUP1 MLOAD SWAP1 PUSH1 0x20 ADD KECCAK256 PUSH2 0x10C7 JUMP JUMPDEST SWAP1 POP PUSH1 0x0 PUSH2 0x7D1 DUP3 DUP6 PUSH1 0x20 ADD MLOAD PUSH2 0x10E1 JUMP JUMPDEST SWAP1 POP DUP3 PUSH20 0xFFFFFFFFFFFFFFFFFFFFFFFFFFFFFFFFFFFFFFFF AND DUP2 PUSH20 0xFFFFFFFFFFFFFFFFFFFFFFFFFFFFFFFFFFFFFFFF AND EQ PUSH2 0x838 JUMPI PUSH1 0x40 MLOAD PUSH32 0x51C65EAE00000000000000000000000000000000000000000000000000000000 DUP2 MSTORE PUSH1 0x4 ADD PUSH1 0x40 MLOAD DUP1 SWAP2 SUB SWAP1 REVERT JUMPDEST PUSH2 0x88E DUP7 PUSH1 0x0 ADD MLOAD PUSH1 0x7 PUSH1 0x0 DUP11 PUSH20 0xFFFFFFFFFFFFFFFFFFFFFFFFFFFFFFFFFFFFFFFF AND PUSH20 0xFFFFFFFFFFFFFFFFFFFFFFFFFFFFFFFFFFFFFFFF AND DUP2 MSTORE PUSH1 0x20 ADD SWAP1 DUP2 MSTORE PUSH1 0x20 ADD PUSH1 0x0 KECCAK256 SLOAD PUSH2 0x1143 SWAP1 SWAP2 SWAP1 PUSH4 0xFFFFFFFF AND JUMP JUMPDEST SWAP5 POP POP POP POP POP SWAP3 SWAP2 POP POP JUMP JUMPDEST PUSH1 0x0 PUSH2 0x8AB DUP3 PUSH4 0xFFFFFFFF AND PUSH2 0x1157 JUMP JUMPDEST SWAP1 POP PUSH1 0x0 PUSH2 0x914 PUSH2 0x904 DUP4 PUSH1 0x7 PUSH1 0x0 CALLER PUSH20 0xFFFFFFFFFFFFFFFFFFFFFFFFFFFFFFFFFFFFFFFF AND PUSH20 0xFFFFFFFFFFFFFFFFFFFFFFFFFFFFFFFFFFFFFFFF AND DUP2 MSTORE PUSH1 0x20 ADD SWAP1 DUP2 MSTORE PUSH1 0x20 ADD PUSH1 0x0 KECCAK256 SLOAD PUSH2 0x116B SWAP1 SWAP2 SWAP1 PUSH4 0xFFFFFFFF AND JUMP JUMPDEST PUSH2 0x90E PUSH1 0x0 PUSH2 0x1157 JUMP JUMPDEST DUP5 PUSH2 0x117F JUMP JUMPDEST SWAP1 POP PUSH2 0x95F PUSH1 0x7 PUSH1 0x0 CALLER PUSH20 0xFFFFFFFFFFFFFFFFFFFFFFFFFFFFFFFFFFFFFFFF AND PUSH20 0xFFFFFFFFFFFFFFFFFFFFFFFFFFFFFFFFFFFFFFFF AND DUP2 MSTORE PUSH1 0x20 ADD SWAP1 DUP2 MSTORE PUSH1 0x20 ADD PUSH1 0x0 KECCAK256 SLOAD DUP3 PUSH2 0x11FD JUMP JUMPDEST PUSH1 0x7 PUSH1 0x0 CALLER PUSH20 0xFFFFFFFFFFFFFFFFFFFFFFFFFFFFFFFFFFFFFFFF AND PUSH20 0xFFFFFFFFFFFFFFFFFFFFFFFFFFFFFFFFFFFFFFFF AND DUP2 MSTORE PUSH1 0x20 ADD SWAP1 DUP2 MSTORE PUSH1 0x20 ADD PUSH1 0x0 KECCAK256 DUP2 SWAP1 SSTORE POP PUSH2 0x9AE PUSH1 0x9 SLOAD DUP3 PUSH2 0x11FD JUMP JUMPDEST PUSH1 0x9 DUP2 SWAP1 SSTORE POP PUSH2 0x9CC CALLER PUSH2 0x9C1 DUP4 PUSH2 0x1211 JUMP JUMPDEST PUSH4 0xFFFFFFFF AND PUSH2 0x12D4 JUMP JUMPDEST POP POP POP JUMP JUMPDEST PUSH1 0x0 DUP1 PUSH1 0x0 DUP4 PUSH20 0xFFFFFFFFFFFFFFFFFFFFFFFFFFFFFFFFFFFFFFFF AND PUSH20 0xFFFFFFFFFFFFFFFFFFFFFFFFFFFFFFFFFFFFFFFF AND DUP2 MSTORE PUSH1 0x20 ADD SWAP1 DUP2 MSTORE PUSH1 0x20 ADD PUSH1 0x0 KECCAK256 SLOAD SWAP1 POP SWAP2 SWAP1 POP JUMP JUMPDEST PUSH1 0x0 PUSH1 0x60 DUP1 PUSH1 0x0 DUP1 PUSH1 0x0 PUSH1 0x60 PUSH2 0xA2D PUSH2 0x1356 JUMP JUMPDEST PUSH2 0xA35 PUSH2 0x1391 JUMP JUMPDEST CHAINID ADDRESS PUSH1 0x0 DUP1 SHL PUSH1 0x0 PUSH8 0xFFFFFFFFFFFFFFFF DUP2 GT ISZERO PUSH2 0xA56 JUMPI PUSH2 0xA55 PUSH2 0x2BD5 JUMP JUMPDEST JUMPDEST PUSH1 0x40 MLOAD SWAP1 DUP1 DUP3 MSTORE DUP1 PUSH1 0x20 MUL PUSH1 0x20 ADD DUP3 ADD PUSH1 0x40 MSTORE DUP1 ISZERO PUSH2 0xA84 JUMPI DUP2 PUSH1 0x20 ADD PUSH1 0x20 DUP3 MUL DUP1 CALLDATASIZE DUP4 CALLDATACOPY DUP1 DUP3 ADD SWAP2 POP POP SWAP1 POP JUMPDEST POP PUSH32 0xF00000000000000000000000000000000000000000000000000000000000000 SWAP6 SWAP5 SWAP4 SWAP3 SWAP2 SWAP1 SWAP7 POP SWAP7 POP SWAP7 POP SWAP7 POP SWAP7 POP SWAP7 POP SWAP7 POP SWAP1 SWAP2 SWAP3 SWAP4 SWAP5 SWAP6 SWAP7 JUMP JUMPDEST PUSH1 0x0 DUP1 PUSH2 0xAD8 DUP4 PUSH2 0xAD3 SWAP1 PUSH2 0x329A JUMP JUMPDEST PUSH2 0x10B1 JUMP JUMPDEST SWAP1 POP PUSH1 0x0 PUSH2 0xAE7 DUP7 CALLER DUP5 PUSH2 0x13CC JUMP JUMPDEST SWAP1 POP PUSH2 0xAF4 DUP7 DUP7 DUP4 PUSH2 0x1409 JUMP JUMPDEST POP DUP1 SWAP3 POP POP POP SWAP4 SWAP3 POP POP POP JUMP JUMPDEST PUSH1 0x60 PUSH1 0x4 DUP1 SLOAD PUSH2 0xB10 SWAP1 PUSH2 0x3211 JUMP JUMPDEST DUP1 PUSH1 0x1F ADD PUSH1 0x20 DUP1 SWAP2 DIV MUL PUSH1 0x20 ADD PUSH1 0x40 MLOAD SWAP1 DUP2 ADD PUSH1 0x40 MSTORE DUP1 SWAP3 SWAP2 SWAP1 DUP2 DUP2 MSTORE PUSH1 0x20 ADD DUP3 DUP1 SLOAD PUSH2 0xB3C SWAP1 PUSH2 0x3211 JUMP JUMPDEST DUP1 ISZERO PUSH2 0xB89 JUMPI DUP1 PUSH1 0x1F LT PUSH2 0xB5E JUMPI PUSH2 0x100 DUP1 DUP4 SLOAD DIV MUL DUP4 MSTORE SWAP2 PUSH1 0x20 ADD SWAP2 PUSH2 0xB89 JUMP JUMPDEST DUP3 ADD SWAP2 SWAP1 PUSH1 0x0 MSTORE PUSH1 0x20 PUSH1 0x0 KECCAK256 SWAP1 JUMPDEST DUP2 SLOAD DUP2 MSTORE SWAP1 PUSH1 0x1 ADD SWAP1 PUSH1 0x20 ADD DUP1 DUP4 GT PUSH2 0xB6C JUMPI DUP3 SWAP1 SUB PUSH1 0x1F AND DUP3 ADD SWAP2 JUMPDEST POP POP POP POP POP SWAP1 POP SWAP1 JUMP JUMPDEST DUP1 PUSH4 0xFFFFFFFF AND PUSH2 0xBA3 CALLER PUSH2 0x9D1 JUMP JUMPDEST LT ISZERO PUSH2 0xBDB JUMPI PUSH1 0x40 MLOAD PUSH32 0xFDA7BBDA00000000000000000000000000000000000000000000000000000000 DUP2 MSTORE PUSH1 0x4 ADD PUSH1 0x40 MLOAD DUP1 SWAP2 SUB SWAP1 REVERT JUMPDEST PUSH2 0xBEB CALLER DUP3 PUSH4 0xFFFFFFFF AND PUSH2 0x1596 JUMP JUMPDEST PUSH1 0x0 PUSH2 0xBFC DUP3 PUSH4 0xFFFFFFFF AND PUSH2 0x1157 JUMP JUMPDEST SWAP1 POP PUSH2 0xC47 PUSH1 0x7 PUSH1 0x0 CALLER PUSH20 0xFFFFFFFFFFFFFFFFFFFFFFFFFFFFFFFFFFFFFFFF AND PUSH20 0xFFFFFFFFFFFFFFFFFFFFFFFFFFFFFFFFFFFFFFFF AND DUP2 MSTORE PUSH1 0x20 ADD SWAP1 DUP2 MSTORE PUSH1 0x20 ADD PUSH1 0x0 KECCAK256 SLOAD DUP3 PUSH2 0x1618 JUMP JUMPDEST PUSH1 0x7 PUSH1 0x0 CALLER PUSH20 0xFFFFFFFFFFFFFFFFFFFFFFFFFFFFFFFFFFFFFFFF AND PUSH20 0xFFFFFFFFFFFFFFFFFFFFFFFFFFFFFFFFFFFFFFFF AND DUP2 MSTORE PUSH1 0x20 ADD SWAP1 DUP2 MSTORE PUSH1 0x20 ADD PUSH1 0x0 KECCAK256 DUP2 SWAP1 SSTORE POP PUSH2 0xC96 PUSH1 0x9 SLOAD DUP3 PUSH2 0x1618 JUMP JUMPDEST PUSH1 0x9 DUP2 SWAP1 SSTORE POP POP POP JUMP JUMPDEST PUSH2 0xCAA CALLER DUP3 PUSH2 0x12D4 JUMP JUMPDEST POP JUMP JUMPDEST PUSH1 0x0 DUP1 PUSH2 0xCB8 PUSH2 0xF0F JUMP JUMPDEST SWAP1 POP PUSH2 0xCC5 DUP2 DUP6 DUP6 PUSH2 0xFBD JUMP JUMPDEST PUSH1 0x1 SWAP2 POP POP SWAP3 SWAP2 POP POP JUMP JUMPDEST PUSH1 0x0 DUP1 DUP3 SWAP1 POP PUSH1 0x0 PUSH2 0xCE3 DUP7 CALLER DUP5 PUSH2 0x13CC JUMP JUMPDEST SWAP1 POP PUSH2 0xCF0 DUP7 DUP7 DUP4 PUSH2 0x1409 JUMP JUMPDEST POP DUP1 SWAP3 POP POP POP SWAP4 SWAP3 POP POP POP JUMP JUMPDEST PUSH1 0x0 PUSH2 0xD0A CALLER DUP5 DUP5 PUSH2 0x1409 JUMP JUMPDEST SWAP1 POP SWAP3 SWAP2 POP POP JUMP JUMPDEST PUSH1 0x0 PUSH2 0xD30 CALLER DUP5 PUSH2 0xD2B DUP6 PUSH2 0xD26 SWAP1 PUSH2 0x329A JUMP JUMPDEST PUSH2 0x10B1 JUMP JUMPDEST PUSH2 0x162C JUMP JUMPDEST PUSH1 0x1 SWAP1 POP SWAP3 SWAP2 POP POP JUMP JUMPDEST PUSH1 0x0 PUSH1 0x1 PUSH1 0x0 DUP5 PUSH20 0xFFFFFFFFFFFFFFFFFFFFFFFFFFFFFFFFFFFFFFFF AND PUSH20 0xFFFFFFFFFFFFFFFFFFFFFFFFFFFFFFFFFFFFFFFF AND DUP2 MSTORE PUSH1 0x20 ADD SWAP1 DUP2 MSTORE PUSH1 0x20 ADD PUSH1 0x0 KECCAK256 PUSH1 0x0 DUP4 PUSH20 0xFFFFFFFFFFFFFFFFFFFFFFFFFFFFFFFFFFFFFFFF AND PUSH20 0xFFFFFFFFFFFFFFFFFFFFFFFFFFFFFFFFFFFFFFFF AND DUP2 MSTORE PUSH1 0x20 ADD SWAP1 DUP2 MSTORE PUSH1 0x20 ADD PUSH1 0x0 KECCAK256 SLOAD SWAP1 POP SWAP3 SWAP2 POP POP JUMP JUMPDEST PUSH1 0x0 PUSH2 0xDD5 DUP3 PUSH2 0xDD0 SWAP1 PUSH2 0x329A JUMP JUMPDEST PUSH2 0x10B1 JUMP JUMPDEST SWAP1 POP PUSH2 0xE1F PUSH1 0x7 PUSH1 0x0 CALLER PUSH20 0xFFFFFFFFFFFFFFFFFFFFFFFFFFFFFFFFFFFFFFFF AND PUSH20 0xFFFFFFFFFFFFFFFFFFFFFFFFFFFFFFFFFFFFFFFF AND DUP2 MSTORE PUSH1 0x20 ADD SWAP1 DUP2 MSTORE PUSH1 0x20 ADD PUSH1 0x0 KECCAK256 SLOAD PUSH2 0x1796 JUMP JUMPDEST PUSH2 0xE6C JUMPI DUP1 PUSH1 0x7 PUSH1 0x0 CALLER PUSH20 0xFFFFFFFFFFFFFFFFFFFFFFFFFFFFFFFFFFFFFFFF AND PUSH20 0xFFFFFFFFFFFFFFFFFFFFFFFFFFFFFFFFFFFFFFFF AND DUP2 MSTORE PUSH1 0x20 ADD SWAP1 DUP2 MSTORE PUSH1 0x20 ADD PUSH1 0x0 KECCAK256 DUP2 SWAP1 SSTORE POP PUSH2 0xEF9 JUMP JUMPDEST PUSH2 0xEB5 PUSH1 0x7 PUSH1 0x0 CALLER PUSH20 0xFFFFFFFFFFFFFFFFFFFFFFFFFFFFFFFFFFFFFFFF AND PUSH20 0xFFFFFFFFFFFFFFFFFFFFFFFFFFFFFFFFFFFFFFFF AND DUP2 MSTORE PUSH1 0x20 ADD SWAP1 DUP2 MSTORE PUSH1 0x20 ADD PUSH1 0x0 KECCAK256 SLOAD DUP3 PUSH2 0x1618 JUMP JUMPDEST PUSH1 0x7 PUSH1 0x0 CALLER PUSH20 0xFFFFFFFFFFFFFFFFFFFFFFFFFFFFFFFFFFFFFFFF AND PUSH20 0xFFFFFFFFFFFFFFFFFFFFFFFFFFFFFFFFFFFFFFFF AND DUP2 MSTORE PUSH1 0x20 ADD SWAP1 DUP2 MSTORE PUSH1 0x20 ADD PUSH1 0x0 KECCAK256 DUP2 SWAP1 SSTORE POP JUMPDEST PUSH2 0xF05 PUSH1 0x9 SLOAD DUP3 PUSH2 0x1618 JUMP JUMPDEST PUSH1 0x9 DUP2 SWAP1 SSTORE POP POP POP JUMP JUMPDEST PUSH1 0x0 CALLER SWAP1 POP SWAP1 JUMP JUMPDEST PUSH2 0xF24 DUP4 DUP4 DUP4 PUSH1 0x1 PUSH2 0x17A3 JUMP JUMPDEST POP POP POP JUMP JUMPDEST PUSH1 0x0 PUSH2 0xF35 DUP5 DUP5 PUSH2 0xD3A JUMP JUMPDEST SWAP1 POP PUSH32 0xFFFFFFFFFFFFFFFFFFFFFFFFFFFFFFFFFFFFFFFFFFFFFFFFFFFFFFFFFFFFFFFF DUP2 EQ PUSH2 0xFB7 JUMPI DUP2 DUP2 LT ISZERO PUSH2 0xFA7 JUMPI DUP3 DUP2 DUP4 PUSH1 0x40 MLOAD PUSH32 0xFB8F41B200000000000000000000000000000000000000000000000000000000 DUP2 MSTORE PUSH1 0x4 ADD PUSH2 0xF9E SWAP4 SWAP3 SWAP2 SWAP1 PUSH2 0x32E9 JUMP JUMPDEST PUSH1 0x40 MLOAD DUP1 SWAP2 SUB SWAP1 REVERT JUMPDEST PUSH2 0xFB6 DUP5 DUP5 DUP5 DUP5 SUB PUSH1 0x0 PUSH2 0x17A3 JUMP JUMPDEST JUMPDEST POP POP POP POP JUMP JUMPDEST PUSH1 0x0 PUSH20 0xFFFFFFFFFFFFFFFFFFFFFFFFFFFFFFFFFFFFFFFF AND DUP4 PUSH20 0xFFFFFFFFFFFFFFFFFFFFFFFFFFFFFFFFFFFFFFFF AND SUB PUSH2 0x102F JUMPI PUSH1 0x0 PUSH1 0x40 MLOAD PUSH32 0x96C6FD1E00000000000000000000000000000000000000000000000000000000 DUP2 MSTORE PUSH1 0x4 ADD PUSH2 0x1026 SWAP2 SWAP1 PUSH2 0x3320 JUMP JUMPDEST PUSH1 0x40 MLOAD DUP1 SWAP2 SUB SWAP1 REVERT JUMPDEST PUSH1 0x0 PUSH20 0xFFFFFFFFFFFFFFFFFFFFFFFFFFFFFFFFFFFFFFFF AND DUP3 PUSH20 0xFFFFFFFFFFFFFFFFFFFFFFFFFFFFFFFFFFFFFFFF AND SUB PUSH2 0x10A1 JUMPI PUSH1 0x0 PUSH1 0x40 MLOAD PUSH32 0xEC442F0500000000000000000000000000000000000000000000000000000000 DUP2 MSTORE PUSH1 0x4 ADD PUSH2 0x1098 SWAP2 SWAP1 PUSH2 0x3320 JUMP JUMPDEST PUSH1 0x40 MLOAD DUP1 SWAP2 SUB SWAP1 REVERT JUMPDEST PUSH2 0x10AC DUP4 DUP4 DUP4 PUSH2 0x197A JUMP JUMPDEST POP POP POP JUMP JUMPDEST PUSH1 0x0 PUSH2 0x10C0 DUP3 PUSH1 0x0 ADD MLOAD PUSH2 0x1B9F JUMP JUMPDEST SWAP1 POP SWAP2 SWAP1 POP JUMP JUMPDEST PUSH1 0x0 PUSH2 0x10DA PUSH2 0x10D4 PUSH2 0x1BB3 JUMP JUMPDEST DUP4 PUSH2 0x1C6A JUMP JUMPDEST SWAP1 POP SWAP2 SWAP1 POP JUMP JUMPDEST PUSH1 0x0 DUP1 PUSH1 0x0 DUP1 PUSH2 0x10F1 DUP7 DUP7 PUSH2 0x1CAB JUMP JUMPDEST SWAP3 POP SWAP3 POP SWAP3 POP PUSH2 0x1101 DUP3 DUP3 PUSH2 0x1D07 JUMP JUMPDEST DUP3 SWAP4 POP POP POP POP SWAP3 SWAP2 POP POP JUMP JUMPDEST PUSH1 0x60 PUSH2 0x1118 DUP4 PUSH2 0x1796 JUMP JUMPDEST PUSH2 0x1129 JUMPI PUSH2 0x1126 PUSH1 0x0 PUSH2 0x1157 JUMP JUMPDEST SWAP3 POP JUMPDEST PUSH1 0x0 DUP4 SWAP1 POP PUSH2 0x113A PUSH1 0x2 DUP3 DUP6 PUSH2 0x1E6B JUMP JUMPDEST SWAP2 POP POP SWAP3 SWAP2 POP POP JUMP JUMPDEST PUSH1 0x60 PUSH2 0x114F DUP4 DUP4 PUSH2 0x110D JUMP JUMPDEST SWAP1 POP SWAP3 SWAP2 POP POP JUMP JUMPDEST PUSH1 0x0 PUSH2 0x1164 DUP3 PUSH1 0x2 PUSH2 0x1F21 JUMP JUMPDEST SWAP1 POP SWAP2 SWAP1 POP JUMP JUMPDEST PUSH1 0x0 PUSH2 0x1177 DUP4 DUP4 PUSH2 0x1FC3 JUMP JUMPDEST SWAP1 POP SWAP3 SWAP2 POP POP JUMP JUMPDEST PUSH1 0x0 PUSH2 0x118A DUP5 PUSH2 0x203C JUMP JUMPDEST PUSH2 0x119B JUMPI PUSH2 0x1198 PUSH1 0x0 PUSH2 0x2049 JUMP JUMPDEST SWAP4 POP JUMPDEST PUSH2 0x11A4 DUP4 PUSH2 0x1796 JUMP JUMPDEST PUSH2 0x11B5 JUMPI PUSH2 0x11B2 PUSH1 0x0 PUSH2 0x1157 JUMP JUMPDEST SWAP3 POP JUMPDEST PUSH2 0x11BE DUP3 PUSH2 0x1796 JUMP JUMPDEST PUSH2 0x11CF JUMPI PUSH2 0x11CC PUSH1 0x0 PUSH2 0x1157 JUMP JUMPDEST SWAP2 POP JUMPDEST PUSH1 0x0 DUP5 SWAP1 POP PUSH1 0x0 DUP5 SWAP1 POP PUSH1 0x0 DUP5 SWAP1 POP PUSH1 0x0 PUSH2 0x11ED PUSH1 0x2 DUP6 DUP6 DUP6 PUSH2 0x205D JUMP JUMPDEST SWAP1 POP DUP1 SWAP5 POP POP POP POP POP SWAP4 SWAP3 POP POP POP JUMP JUMPDEST PUSH1 0x0 PUSH2 0x1209 DUP4 DUP4 PUSH2 0x2115 JUMP JUMPDEST SWAP1 POP SWAP3 SWAP2 POP POP JUMP JUMPDEST PUSH1 0x0 PUSH2 0x121C DUP3 PUSH2 0x1796 JUMP JUMPDEST PUSH2 0x122D JUMPI PUSH2 0x122A PUSH1 0x0 PUSH2 0x1157 JUMP JUMPDEST SWAP2 POP JUMPDEST PUSH1 0x0 DUP3 SWAP1 POP PUSH1 0x0 PUSH2 0x123D DUP3 PUSH2 0x218E JUMP JUMPDEST SWAP1 POP PUSH1 0x0 PUSH1 0x80 PUSH20 0xFFFFFFFFFFFFFFFFFFFFFFFFFFFFFFFFFFFFFFFF AND PUSH4 0x73CC0154 PUSH1 0x2 DUP5 PUSH1 0x40 MLOAD DUP4 PUSH4 0xFFFFFFFF AND PUSH1 0xE0 SHL DUP2 MSTORE PUSH1 0x4 ADD PUSH2 0x127E SWAP3 SWAP2 SWAP1 PUSH2 0x3390 JUMP JUMPDEST PUSH1 0x20 PUSH1 0x40 MLOAD DUP1 DUP4 SUB DUP2 DUP7 GAS STATICCALL ISZERO DUP1 ISZERO PUSH2 0x129B JUMPI RETURNDATASIZE PUSH1 0x0 DUP1 RETURNDATACOPY RETURNDATASIZE PUSH1 0x0 REVERT JUMPDEST POP POP POP POP PUSH1 0x40 MLOAD RETURNDATASIZE PUSH1 0x1F NOT PUSH1 0x1F DUP3 ADD AND DUP3 ADD DUP1 PUSH1 0x40 MSTORE POP DUP2 ADD SWAP1 PUSH2 0x12BF SWAP2 SWAP1 PUSH2 0x33D5 JUMP JUMPDEST SWAP1 POP PUSH2 0x12CA DUP2 PUSH2 0x21EB JUMP JUMPDEST SWAP4 POP POP POP POP SWAP2 SWAP1 POP JUMP JUMPDEST PUSH1 0x0 PUSH20 0xFFFFFFFFFFFFFFFFFFFFFFFFFFFFFFFFFFFFFFFF AND DUP3 PUSH20 0xFFFFFFFFFFFFFFFFFFFFFFFFFFFFFFFFFFFFFFFF AND SUB PUSH2 0x1346 JUMPI PUSH1 0x0 PUSH1 0x40 MLOAD PUSH32 0xEC442F0500000000000000000000000000000000000000000000000000000000 DUP2 MSTORE PUSH1 0x4 ADD PUSH2 0x133D SWAP2 SWAP1 PUSH2 0x3320 JUMP JUMPDEST PUSH1 0x40 MLOAD DUP1 SWAP2 SUB SWAP1 REVERT JUMPDEST PUSH2 0x1352 PUSH1 0x0 DUP4 DUP4 PUSH2 0x197A JUMP JUMPDEST POP POP JUMP JUMPDEST PUSH1 0x60 PUSH2 0x138C PUSH1 0x5 PUSH32 0x0 PUSH2 0x21F5 SWAP1 SWAP2 SWAP1 PUSH4 0xFFFFFFFF AND JUMP JUMPDEST SWAP1 POP SWAP1 JUMP JUMPDEST PUSH1 0x60 PUSH2 0x13C7 PUSH1 0x6 PUSH32 0x0 PUSH2 0x21F5 SWAP1 SWAP2 SWAP1 PUSH4 0xFFFFFFFF AND JUMP JUMPDEST SWAP1 POP SWAP1 JUMP JUMPDEST PUSH1 0x0 DUP1 PUSH2 0x13D9 DUP6 DUP6 PUSH2 0x5B1 JUMP JUMPDEST SWAP1 POP PUSH1 0x0 PUSH2 0x13E7 DUP3 DUP6 PUSH2 0x22A5 JUMP JUMPDEST SWAP1 POP PUSH2 0x13FD DUP7 DUP7 PUSH2 0x13F8 DUP6 DUP6 PUSH2 0x11FD JUMP JUMPDEST PUSH2 0x162C JUMP JUMPDEST DUP1 SWAP3 POP POP POP SWAP4 SWAP3 POP POP POP JUMP JUMPDEST PUSH1 0x0 DUP1 PUSH2 0x1471 PUSH2 0x1461 PUSH1 0x7 PUSH1 0x0 DUP9 PUSH20 0xFFFFFFFFFFFFFFFFFFFFFFFFFFFFFFFFFFFFFFFF AND PUSH20 0xFFFFFFFFFFFFFFFFFFFFFFFFFFFFFFFFFFFFFFFF AND DUP2 MSTORE PUSH1 0x20 ADD SWAP1 DUP2 MSTORE PUSH1 0x20 ADD PUSH1 0x0 KECCAK256 SLOAD DUP6 PUSH2 0x231E SWAP1 SWAP2 SWAP1 PUSH4 0xFFFFFFFF AND JUMP JUMPDEST DUP5 PUSH2 0x146C PUSH1 0x0 PUSH2 0x1157 JUMP JUMPDEST PUSH2 0x117F JUMP JUMPDEST SWAP1 POP PUSH2 0x14BC PUSH1 0x7 PUSH1 0x0 DUP7 PUSH20 0xFFFFFFFFFFFFFFFFFFFFFFFFFFFFFFFFFFFFFFFF AND PUSH20 0xFFFFFFFFFFFFFFFFFFFFFFFFFFFFFFFFFFFFFFFF AND DUP2 MSTORE PUSH1 0x20 ADD SWAP1 DUP2 MSTORE PUSH1 0x20 ADD PUSH1 0x0 KECCAK256 SLOAD DUP3 PUSH2 0x1618 JUMP JUMPDEST PUSH1 0x7 PUSH1 0x0 DUP7 PUSH20 0xFFFFFFFFFFFFFFFFFFFFFFFFFFFFFFFFFFFFFFFF AND PUSH20 0xFFFFFFFFFFFFFFFFFFFFFFFFFFFFFFFFFFFFFFFF AND DUP2 MSTORE PUSH1 0x20 ADD SWAP1 DUP2 MSTORE PUSH1 0x20 ADD PUSH1 0x0 KECCAK256 DUP2 SWAP1 SSTORE POP PUSH2 0x1548 PUSH1 0x7 PUSH1 0x0 DUP8 PUSH20 0xFFFFFFFFFFFFFFFFFFFFFFFFFFFFFFFFFFFFFFFF AND PUSH20 0xFFFFFFFFFFFFFFFFFFFFFFFFFFFFFFFFFFFFFFFF AND DUP2 MSTORE PUSH1 0x20 ADD SWAP1 DUP2 MSTORE PUSH1 0x20 ADD PUSH1 0x0 KECCAK256 SLOAD DUP3 PUSH2 0x11FD JUMP JUMPDEST PUSH1 0x7 PUSH1 0x0 DUP8 PUSH20 0xFFFFFFFFFFFFFFFFFFFFFFFFFFFFFFFFFFFFFFFF AND PUSH20 0xFFFFFFFFFFFFFFFFFFFFFFFFFFFFFFFFFFFFFFFF AND DUP2 MSTORE PUSH1 0x20 ADD SWAP1 DUP2 MSTORE PUSH1 0x20 ADD PUSH1 0x0 KECCAK256 DUP2 SWAP1 SSTORE POP DUP1 SWAP2 POP POP SWAP4 SWAP3 POP POP POP JUMP JUMPDEST PUSH1 0x0 PUSH20 0xFFFFFFFFFFFFFFFFFFFFFFFFFFFFFFFFFFFFFFFF AND DUP3 PUSH20 0xFFFFFFFFFFFFFFFFFFFFFFFFFFFFFFFFFFFFFFFF AND SUB PUSH2 0x1608 JUMPI PUSH1 0x0 PUSH1 0x40 MLOAD PUSH32 0x96C6FD1E00000000000000000000000000000000000000000000000000000000 DUP2 MSTORE PUSH1 0x4 ADD PUSH2 0x15FF SWAP2 SWAP1 PUSH2 0x3320 JUMP JUMPDEST PUSH1 0x40 MLOAD DUP1 SWAP2 SUB SWAP1 REVERT JUMPDEST PUSH2 0x1614 DUP3 PUSH1 0x0 DUP4 PUSH2 0x197A JUMP JUMPDEST POP POP JUMP JUMPDEST PUSH1 0x0 PUSH2 0x1624 DUP4 DUP4 PUSH2 0x2332 JUMP JUMPDEST SWAP1 POP SWAP3 SWAP2 POP POP JUMP JUMPDEST PUSH1 0x0 PUSH20 0xFFFFFFFFFFFFFFFFFFFFFFFFFFFFFFFFFFFFFFFF AND DUP4 PUSH20 0xFFFFFFFFFFFFFFFFFFFFFFFFFFFFFFFFFFFFFFFF AND SUB PUSH2 0x169E JUMPI PUSH1 0x0 PUSH1 0x40 MLOAD PUSH32 0xE602DF0500000000000000000000000000000000000000000000000000000000 DUP2 MSTORE PUSH1 0x4 ADD PUSH2 0x1695 SWAP2 SWAP1 PUSH2 0x3320 JUMP JUMPDEST PUSH1 0x40 MLOAD DUP1 SWAP2 SUB SWAP1 REVERT JUMPDEST PUSH1 0x0 PUSH20 0xFFFFFFFFFFFFFFFFFFFFFFFFFFFFFFFFFFFFFFFF AND DUP3 PUSH20 0xFFFFFFFFFFFFFFFFFFFFFFFFFFFFFFFFFFFFFFFF AND SUB PUSH2 0x1710 JUMPI PUSH1 0x0 PUSH1 0x40 MLOAD PUSH32 0x94280D6200000000000000000000000000000000000000000000000000000000 DUP2 MSTORE PUSH1 0x4 ADD PUSH2 0x1707 SWAP2 SWAP1 PUSH2 0x3320 JUMP JUMPDEST PUSH1 0x40 MLOAD DUP1 SWAP2 SUB SWAP1 REVERT JUMPDEST DUP1 PUSH1 0x8 PUSH1 0x0 DUP6 PUSH20 0xFFFFFFFFFFFFFFFFFFFFFFFFFFFFFFFFFFFFFFFF AND PUSH20 0xFFFFFFFFFFFFFFFFFFFFFFFFFFFFFFFFFFFFFFFF AND DUP2 MSTORE PUSH1 0x20 ADD SWAP1 DUP2 MSTORE PUSH1 0x20 ADD PUSH1 0x0 KECCAK256 PUSH1 0x0 DUP5 PUSH20 0xFFFFFFFFFFFFFFFFFFFFFFFFFFFFFFFFFFFFFFFF AND PUSH20 0xFFFFFFFFFFFFFFFFFFFFFFFFFFFFFFFFFFFFFFFF AND DUP2 MSTORE PUSH1 0x20 ADD SWAP1 DUP2 MSTORE PUSH1 0x20 ADD PUSH1 0x0 KECCAK256 DUP2 SWAP1 SSTORE POP POP POP POP JUMP JUMPDEST PUSH1 0x0 DUP1 DUP3 EQ ISZERO SWAP1 POP SWAP2 SWAP1 POP JUMP JUMPDEST PUSH1 0x0 PUSH20 0xFFFFFFFFFFFFFFFFFFFFFFFFFFFFFFFFFFFFFFFF AND DUP5 PUSH20 0xFFFFFFFFFFFFFFFFFFFFFFFFFFFFFFFFFFFFFFFF AND SUB PUSH2 0x1815 JUMPI PUSH1 0x0 PUSH1 0x40 MLOAD PUSH32 0xE602DF0500000000000000000000000000000000000000000000000000000000 DUP2 MSTORE PUSH1 0x4 ADD PUSH2 0x180C SWAP2 SWAP1 PUSH2 0x3320 JUMP JUMPDEST PUSH1 0x40 MLOAD DUP1 SWAP2 SUB SWAP1 REVERT JUMPDEST PUSH1 0x0 PUSH20 0xFFFFFFFFFFFFFFFFFFFFFFFFFFFFFFFFFFFFFFFF AND DUP4 PUSH20 0xFFFFFFFFFFFFFFFFFFFFFFFFFFFFFFFFFFFFFFFF AND SUB PUSH2 0x1887 JUMPI PUSH1 0x0 PUSH1 0x40 MLOAD PUSH32 0x94280D6200000000000000000000000000000000000000000000000000000000 DUP2 MSTORE PUSH1 0x4 ADD PUSH2 0x187E SWAP2 SWAP1 PUSH2 0x3320 JUMP JUMPDEST PUSH1 0x40 MLOAD DUP1 SWAP2 SUB SWAP1 REVERT JUMPDEST DUP2 PUSH1 0x1 PUSH1 0x0 DUP7 PUSH20 0xFFFFFFFFFFFFFFFFFFFFFFFFFFFFFFFFFFFFFFFF AND PUSH20 0xFFFFFFFFFFFFFFFFFFFFFFFFFFFFFFFFFFFFFFFF AND DUP2 MSTORE PUSH1 0x20 ADD SWAP1 DUP2 MSTORE PUSH1 0x20 ADD PUSH1 0x0 KECCAK256 PUSH1 0x0 DUP6 PUSH20 0xFFFFFFFFFFFFFFFFFFFFFFFFFFFFFFFFFFFFFFFF AND PUSH20 0xFFFFFFFFFFFFFFFFFFFFFFFFFFFFFFFFFFFFFFFF AND DUP2 MSTORE PUSH1 0x20 ADD SWAP1 DUP2 MSTORE PUSH1 0x20 ADD PUSH1 0x0 KECCAK256 DUP2 SWAP1 SSTORE POP DUP1 ISZERO PUSH2 0x1974 JUMPI DUP3 PUSH20 0xFFFFFFFFFFFFFFFFFFFFFFFFFFFFFFFFFFFFFFFF AND DUP5 PUSH20 0xFFFFFFFFFFFFFFFFFFFFFFFFFFFFFFFFFFFFFFFF AND PUSH32 0x8C5BE1E5EBEC7D5BD14F71427D1E84F3DD0314C0F7B2291E5B200AC8C7C3B925 DUP5 PUSH1 0x40 MLOAD PUSH2 0x196B SWAP2 SWAP1 PUSH2 0x299A JUMP JUMPDEST PUSH1 0x40 MLOAD DUP1 SWAP2 SUB SWAP1 LOG3 JUMPDEST POP POP POP POP JUMP JUMPDEST PUSH1 0x0 PUSH20 0xFFFFFFFFFFFFFFFFFFFFFFFFFFFFFFFFFFFFFFFF AND DUP4 PUSH20 0xFFFFFFFFFFFFFFFFFFFFFFFFFFFFFFFFFFFFFFFF AND SUB PUSH2 0x19CC JUMPI DUP1 PUSH1 0x2 PUSH1 0x0 DUP3 DUP3 SLOAD PUSH2 0x19C0 SWAP2 SWAP1 PUSH2 0x3431 JUMP JUMPDEST SWAP3 POP POP DUP2 SWAP1 SSTORE POP PUSH2 0x1A9F JUMP JUMPDEST PUSH1 0x0 DUP1 PUSH1 0x0 DUP6 PUSH20 0xFFFFFFFFFFFFFFFFFFFFFFFFFFFFFFFFFFFFFFFF AND PUSH20 0xFFFFFFFFFFFFFFFFFFFFFFFFFFFFFFFFFFFFFFFF AND DUP2 MSTORE PUSH1 0x20 ADD SWAP1 DUP2 MSTORE PUSH1 0x20 ADD PUSH1 0x0 KECCAK256 SLOAD SWAP1 POP DUP2 DUP2 LT ISZERO PUSH2 0x1A58 JUMPI DUP4 DUP2 DUP4 PUSH1 0x40 MLOAD PUSH32 0xE450D38C00000000000000000000000000000000000000000000000000000000 DUP2 MSTORE PUSH1 0x4 ADD PUSH2 0x1A4F SWAP4 SWAP3 SWAP2 SWAP1 PUSH2 0x32E9 JUMP JUMPDEST PUSH1 0x40 MLOAD DUP1 SWAP2 SUB SWAP1 REVERT JUMPDEST DUP2 DUP2 SUB PUSH1 0x0 DUP1 DUP7 PUSH20 0xFFFFFFFFFFFFFFFFFFFFFFFFFFFFFFFFFFFFFFFF AND PUSH20 0xFFFFFFFFFFFFFFFFFFFFFFFFFFFFFFFFFFFFFFFF AND DUP2 MSTORE PUSH1 0x20 ADD SWAP1 DUP2 MSTORE PUSH1 0x20 ADD PUSH1 0x0 KECCAK256 DUP2 SWAP1 SSTORE POP POP JUMPDEST PUSH1 0x0 PUSH20 0xFFFFFFFFFFFFFFFFFFFFFFFFFFFFFFFFFFFFFFFF AND DUP3 PUSH20 0xFFFFFFFFFFFFFFFFFFFFFFFFFFFFFFFFFFFFFFFF AND SUB PUSH2 0x1AE8 JUMPI DUP1 PUSH1 0x2 PUSH1 0x0 DUP3 DUP3 SLOAD SUB SWAP3 POP POP DUP2 SWAP1 SSTORE POP PUSH2 0x1B35 JUMP JUMPDEST DUP1 PUSH1 0x0 DUP1 DUP5 PUSH20 0xFFFFFFFFFFFFFFFFFFFFFFFFFFFFFFFFFFFFFFFF AND PUSH20 0xFFFFFFFFFFFFFFFFFFFFFFFFFFFFFFFFFFFFFFFF AND DUP2 MSTORE PUSH1 0x20 ADD SWAP1 DUP2 MSTORE PUSH1 0x20 ADD PUSH1 0x0 KECCAK256 PUSH1 0x0 DUP3 DUP3 SLOAD ADD SWAP3 POP POP DUP2 SWAP1 SSTORE POP JUMPDEST DUP2 PUSH20 0xFFFFFFFFFFFFFFFFFFFFFFFFFFFFFFFFFFFFFFFF AND DUP4 PUSH20 0xFFFFFFFFFFFFFFFFFFFFFFFFFFFFFFFFFFFFFFFF AND PUSH32 0xDDF252AD1BE2C89B69C2B068FC378DAA952BA7F163C4A11628F55A4DF523B3EF DUP4 PUSH1 0x40 MLOAD PUSH2 0x1B92 SWAP2 SWAP1 PUSH2 0x299A JUMP JUMPDEST PUSH1 0x40 MLOAD DUP1 SWAP2 SUB SWAP1 LOG3 POP POP POP JUMP JUMPDEST PUSH1 0x0 PUSH2 0x1BAC DUP3 PUSH1 0x2 PUSH2 0x23AA JUMP JUMPDEST SWAP1 POP SWAP2 SWAP1 POP JUMP JUMPDEST PUSH1 0x0 PUSH32 0x0 PUSH20 0xFFFFFFFFFFFFFFFFFFFFFFFFFFFFFFFFFFFFFFFF AND ADDRESS PUSH20 0xFFFFFFFFFFFFFFFFFFFFFFFFFFFFFFFFFFFFFFFF AND EQ DUP1 ISZERO PUSH2 0x1C2F JUMPI POP PUSH32 0x0 CHAINID EQ JUMPDEST ISZERO PUSH2 0x1C5C JUMPI PUSH32 0x0 SWAP1 POP PUSH2 0x1C67 JUMP JUMPDEST PUSH2 0x1C64 PUSH2 0x2444 JUMP JUMPDEST SWAP1 POP JUMPDEST SWAP1 JUMP JUMPDEST PUSH1 0x0 PUSH1 0x40 MLOAD PUSH32 0x1901000000000000000000000000000000000000000000000000000000000000 DUP2 MSTORE DUP4 PUSH1 0x2 DUP3 ADD MSTORE DUP3 PUSH1 0x22 DUP3 ADD MSTORE PUSH1 0x42 DUP2 KECCAK256 SWAP2 POP POP SWAP3 SWAP2 POP POP JUMP JUMPDEST PUSH1 0x0 DUP1 PUSH1 0x0 PUSH1 0x41 DUP5 MLOAD SUB PUSH2 0x1CF0 JUMPI PUSH1 0x0 DUP1 PUSH1 0x0 PUSH1 0x20 DUP8 ADD MLOAD SWAP3 POP PUSH1 0x40 DUP8 ADD MLOAD SWAP2 POP PUSH1 0x60 DUP8 ADD MLOAD PUSH1 0x0 BYTE SWAP1 POP PUSH2 0x1CE2 DUP9 DUP3 DUP6 DUP6 PUSH2 0x24DA JUMP JUMPDEST SWAP6 POP SWAP6 POP SWAP6 POP POP POP POP PUSH2 0x1D00 JUMP JUMPDEST PUSH1 0x0 PUSH1 0x2 DUP6 MLOAD PUSH1 0x0 SHL SWAP3 POP SWAP3 POP SWAP3 POP JUMPDEST SWAP3 POP SWAP3 POP SWAP3 JUMP JUMPDEST PUSH1 0x0 PUSH1 0x3 DUP2 GT ISZERO PUSH2 0x1D1B JUMPI PUSH2 0x1D1A PUSH2 0x3465 JUMP JUMPDEST JUMPDEST DUP3 PUSH1 0x3 DUP2 GT ISZERO PUSH2 0x1D2E JUMPI PUSH2 0x1D2D PUSH2 0x3465 JUMP JUMPDEST JUMPDEST SUB ISZERO PUSH2 0x1E67 JUMPI PUSH1 0x1 PUSH1 0x3 DUP2 GT ISZERO PUSH2 0x1D48 JUMPI PUSH2 0x1D47 PUSH2 0x3465 JUMP JUMPDEST JUMPDEST DUP3 PUSH1 0x3 DUP2 GT ISZERO PUSH2 0x1D5B JUMPI PUSH2 0x1D5A PUSH2 0x3465 JUMP JUMPDEST JUMPDEST SUB PUSH2 0x1D92 JUMPI PUSH1 0x40 MLOAD PUSH32 0xF645EEDF00000000000000000000000000000000000000000000000000000000 DUP2 MSTORE PUSH1 0x4 ADD PUSH1 0x40 MLOAD DUP1 SWAP2 SUB SWAP1 REVERT JUMPDEST PUSH1 0x2 PUSH1 0x3 DUP2 GT ISZERO PUSH2 0x1DA6 JUMPI PUSH2 0x1DA5 PUSH2 0x3465 JUMP JUMPDEST JUMPDEST DUP3 PUSH1 0x3 DUP2 GT ISZERO PUSH2 0x1DB9 JUMPI PUSH2 0x1DB8 PUSH2 0x3465 JUMP JUMPDEST JUMPDEST SUB PUSH2 0x1DFE JUMPI DUP1 PUSH1 0x0 SHR PUSH1 0x40 MLOAD PUSH32 0xFCE698F700000000000000000000000000000000000000000000000000000000 DUP2 MSTORE PUSH1 0x4 ADD PUSH2 0x1DF5 SWAP2 SWAP1 PUSH2 0x299A JUMP JUMPDEST PUSH1 0x40 MLOAD DUP1 SWAP2 SUB SWAP1 REVERT JUMPDEST PUSH1 0x3 DUP1 DUP2 GT ISZERO PUSH2 0x1E11 JUMPI PUSH2 0x1E10 PUSH2 0x3465 JUMP JUMPDEST JUMPDEST DUP3 PUSH1 0x3 DUP2 GT ISZERO PUSH2 0x1E24 JUMPI PUSH2 0x1E23 PUSH2 0x3465 JUMP JUMPDEST JUMPDEST SUB PUSH2 0x1E66 JUMPI DUP1 PUSH1 0x40 MLOAD PUSH32 0xD78BCE0C00000000000000000000000000000000000000000000000000000000 DUP2 MSTORE PUSH1 0x4 ADD PUSH2 0x1E5D SWAP2 SWAP1 PUSH2 0x3494 JUMP JUMPDEST PUSH1 0x40 MLOAD DUP1 SWAP2 SUB SWAP1 REVERT JUMPDEST JUMPDEST POP POP JUMP JUMPDEST PUSH1 0x60 PUSH1 0x80 PUSH20 0xFFFFFFFFFFFFFFFFFFFFFFFFFFFFFFFFFFFFFFFF AND PUSH4 0xA1848FF3 DUP6 PUSH2 0x1E94 DUP7 PUSH2 0x218E JUMP JUMPDEST DUP6 PUSH1 0x40 MLOAD PUSH1 0x20 ADD PUSH2 0x1EA5 SWAP2 SWAP1 PUSH2 0x34D0 JUMP JUMPDEST PUSH1 0x40 MLOAD PUSH1 0x20 DUP2 DUP4 SUB SUB DUP2 MSTORE SWAP1 PUSH1 0x40 MSTORE PUSH1 0x40 MLOAD DUP5 PUSH4 0xFFFFFFFF AND PUSH1 0xE0 SHL DUP2 MSTORE PUSH1 0x4 ADD PUSH2 0x1ED2 SWAP4 SWAP3 SWAP2 SWAP1 PUSH2 0x34EB JUMP JUMPDEST PUSH1 0x0 PUSH1 0x40 MLOAD DUP1 DUP4 SUB DUP2 DUP7 GAS STATICCALL ISZERO DUP1 ISZERO PUSH2 0x1EEF JUMPI RETURNDATASIZE PUSH1 0x0 DUP1 RETURNDATACOPY RETURNDATASIZE PUSH1 0x0 REVERT JUMPDEST POP POP POP POP PUSH1 0x40 MLOAD RETURNDATASIZE PUSH1 0x0 DUP3 RETURNDATACOPY RETURNDATASIZE PUSH1 0x1F NOT PUSH1 0x1F DUP3 ADD AND DUP3 ADD DUP1 PUSH1 0x40 MSTORE POP DUP2 ADD SWAP1 PUSH2 0x1F18 SWAP2 SWAP1 PUSH2 0x35D1 JUMP JUMPDEST SWAP1 POP SWAP4 SWAP3 POP POP POP JUMP JUMPDEST PUSH1 0x0 PUSH1 0x60 PUSH1 0x80 PUSH20 0xFFFFFFFFFFFFFFFFFFFFFFFFFFFFFFFFFFFFFFFF AND PUSH4 0x19E1C5C4 PUSH2 0x1F4B DUP7 PUSH2 0x218E JUMP JUMPDEST DUP6 PUSH1 0x40 MLOAD DUP4 PUSH4 0xFFFFFFFF AND PUSH1 0xE0 SHL DUP2 MSTORE PUSH1 0x4 ADD PUSH2 0x1F69 SWAP3 SWAP2 SWAP1 PUSH2 0x361A JUMP JUMPDEST PUSH1 0x0 PUSH1 0x40 MLOAD DUP1 DUP4 SUB DUP2 DUP7 GAS STATICCALL ISZERO DUP1 ISZERO PUSH2 0x1F86 JUMPI RETURNDATASIZE PUSH1 0x0 DUP1 RETURNDATACOPY RETURNDATASIZE PUSH1 0x0 REVERT JUMPDEST POP POP POP POP PUSH1 0x40 MLOAD RETURNDATASIZE PUSH1 0x0 DUP3 RETURNDATACOPY RETURNDATASIZE PUSH1 0x1F NOT PUSH1 0x1F DUP3 ADD AND DUP3 ADD DUP1 PUSH1 0x40 MSTORE POP DUP2 ADD SWAP1 PUSH2 0x1FAF SWAP2 SWAP1 PUSH2 0x36BA JUMP JUMPDEST SWAP1 POP PUSH2 0x1FBA DUP2 PUSH2 0x25CE JUMP JUMPDEST SWAP2 POP POP SWAP3 SWAP2 POP POP JUMP JUMPDEST PUSH1 0x0 PUSH2 0x1FCE DUP4 PUSH2 0x1796 JUMP JUMPDEST PUSH2 0x1FDF JUMPI PUSH2 0x1FDC PUSH1 0x0 PUSH2 0x1157 JUMP JUMPDEST SWAP3 POP JUMPDEST PUSH2 0x1FE8 DUP3 PUSH2 0x1796 JUMP JUMPDEST PUSH2 0x1FF9 JUMPI PUSH2 0x1FF6 PUSH1 0x0 PUSH2 0x1157 JUMP JUMPDEST SWAP2 POP JUMPDEST PUSH1 0x0 DUP4 SWAP1 POP PUSH1 0x0 DUP4 SWAP1 POP PUSH1 0x0 PUSH2 0x202E PUSH1 0x2 DUP5 DUP5 PUSH1 0x80 PUSH20 0xFFFFFFFFFFFFFFFFFFFFFFFFFFFFFFFFFFFFFFFF AND PUSH4 0xB9C7A54B PUSH2 0x25DC JUMP JUMPDEST SWAP1 POP DUP1 SWAP4 POP POP POP POP SWAP3 SWAP2 POP POP JUMP JUMPDEST PUSH1 0x0 DUP1 DUP3 EQ ISZERO SWAP1 POP SWAP2 SWAP1 POP JUMP JUMPDEST PUSH1 0x0 PUSH2 0x2056 DUP3 PUSH1 0xD PUSH2 0x1F21 JUMP JUMPDEST SWAP1 POP SWAP2 SWAP1 POP JUMP JUMPDEST PUSH1 0x0 PUSH1 0x60 PUSH1 0x80 PUSH20 0xFFFFFFFFFFFFFFFFFFFFFFFFFFFFFFFFFFFFFFFF AND PUSH4 0xC2D96952 DUP8 PUSH2 0x2088 DUP9 PUSH2 0x218E JUMP JUMPDEST PUSH2 0x2091 DUP9 PUSH2 0x218E JUMP JUMPDEST PUSH2 0x209A DUP9 PUSH2 0x218E JUMP JUMPDEST PUSH1 0x40 MLOAD DUP6 PUSH4 0xFFFFFFFF AND PUSH1 0xE0 SHL DUP2 MSTORE PUSH1 0x4 ADD PUSH2 0x20B9 SWAP5 SWAP4 SWAP3 SWAP2 SWAP1 PUSH2 0x3703 JUMP JUMPDEST PUSH1 0x0 PUSH1 0x40 MLOAD DUP1 DUP4 SUB DUP2 DUP7 GAS STATICCALL ISZERO DUP1 ISZERO PUSH2 0x20D6 JUMPI RETURNDATASIZE PUSH1 0x0 DUP1 RETURNDATACOPY RETURNDATASIZE PUSH1 0x0 REVERT JUMPDEST POP POP POP POP PUSH1 0x40 MLOAD RETURNDATASIZE PUSH1 0x0 DUP3 RETURNDATACOPY RETURNDATASIZE PUSH1 0x1F NOT PUSH1 0x1F DUP3 ADD AND DUP3 ADD DUP1 PUSH1 0x40 MSTORE POP DUP2 ADD SWAP1 PUSH2 0x20FF SWAP2 SWAP1 PUSH2 0x36BA JUMP JUMPDEST SWAP1 POP PUSH2 0x210A DUP2 PUSH2 0x25CE JUMP JUMPDEST SWAP2 POP POP SWAP5 SWAP4 POP POP POP POP JUMP JUMPDEST PUSH1 0x0 PUSH2 0x2120 DUP4 PUSH2 0x1796 JUMP JUMPDEST PUSH2 0x2131 JUMPI PUSH2 0x212E PUSH1 0x0 PUSH2 0x1157 JUMP JUMPDEST SWAP3 POP JUMPDEST PUSH2 0x213A DUP3 PUSH2 0x1796 JUMP JUMPDEST PUSH2 0x214B JUMPI PUSH2 0x2148 PUSH1 0x0 PUSH2 0x1157 JUMP JUMPDEST SWAP2 POP JUMPDEST PUSH1 0x0 DUP4 SWAP1 POP PUSH1 0x0 DUP4 SWAP1 POP PUSH1 0x0 PUSH2 0x2180 PUSH1 0x2 DUP5 DUP5 PUSH1 0x80 PUSH20 0xFFFFFFFFFFFFFFFFFFFFFFFFFFFFFFFFFFFFFFFF AND PUSH4 0xCC2CBEFF PUSH2 0x25DC JUMP JUMPDEST SWAP1 POP DUP1 SWAP4 POP POP POP POP SWAP3 SWAP2 POP POP JUMP JUMPDEST PUSH1 0x60 PUSH1 0x20 PUSH8 0xFFFFFFFFFFFFFFFF DUP2 GT ISZERO PUSH2 0x21AB JUMPI PUSH2 0x21AA PUSH2 0x2BD5 JUMP JUMPDEST JUMPDEST PUSH1 0x40 MLOAD SWAP1 DUP1 DUP3 MSTORE DUP1 PUSH1 0x1F ADD PUSH1 0x1F NOT AND PUSH1 0x20 ADD DUP3 ADD PUSH1 0x40 MSTORE DUP1 ISZERO PUSH2 0x21DD JUMPI DUP2 PUSH1 0x20 ADD PUSH1 0x1 DUP3 MUL DUP1 CALLDATASIZE DUP4 CALLDATACOPY DUP1 DUP3 ADD SWAP2 POP POP SWAP1 POP JUMPDEST POP SWAP1 POP DUP2 PUSH1 0x20 DUP3 ADD MSTORE SWAP2 SWAP1 POP JUMP JUMPDEST PUSH1 0x0 DUP2 SWAP1 POP SWAP2 SWAP1 POP JUMP JUMPDEST PUSH1 0x60 PUSH1 0xFF PUSH1 0x0 SHL DUP4 EQ PUSH2 0x2212 JUMPI PUSH2 0x220B DUP4 PUSH2 0x2670 JUMP JUMPDEST SWAP1 POP PUSH2 0x229F JUMP JUMPDEST DUP2 DUP1 SLOAD PUSH2 0x221E SWAP1 PUSH2 0x3211 JUMP JUMPDEST DUP1 PUSH1 0x1F ADD PUSH1 0x20 DUP1 SWAP2 DIV MUL PUSH1 0x20 ADD PUSH1 0x40 MLOAD SWAP1 DUP2 ADD PUSH1 0x40 MSTORE DUP1 SWAP3 SWAP2 SWAP1 DUP2 DUP2 MSTORE PUSH1 0x20 ADD DUP3 DUP1 SLOAD PUSH2 0x224A SWAP1 PUSH2 0x3211 JUMP JUMPDEST DUP1 ISZERO PUSH2 0x2297 JUMPI DUP1 PUSH1 0x1F LT PUSH2 0x226C JUMPI PUSH2 0x100 DUP1 DUP4 SLOAD DIV MUL DUP4 MSTORE SWAP2 PUSH1 0x20 ADD SWAP2 PUSH2 0x2297 JUMP JUMPDEST DUP3 ADD SWAP2 SWAP1 PUSH1 0x0 MSTORE PUSH1 0x20 PUSH1 0x0 KECCAK256 SWAP1 JUMPDEST DUP2 SLOAD DUP2 MSTORE SWAP1 PUSH1 0x1 ADD SWAP1 PUSH1 0x20 ADD DUP1 DUP4 GT PUSH2 0x227A JUMPI DUP3 SWAP1 SUB PUSH1 0x1F AND DUP3 ADD SWAP2 JUMPDEST POP POP POP POP POP SWAP1 POP JUMPDEST SWAP3 SWAP2 POP POP JUMP JUMPDEST PUSH1 0x0 PUSH2 0x22B0 DUP4 PUSH2 0x1796 JUMP JUMPDEST PUSH2 0x22C1 JUMPI PUSH2 0x22BE PUSH1 0x0 PUSH2 0x1157 JUMP JUMPDEST SWAP3 POP JUMPDEST PUSH2 0x22CA DUP3 PUSH2 0x1796 JUMP JUMPDEST PUSH2 0x22DB JUMPI PUSH2 0x22D8 PUSH1 0x0 PUSH2 0x1157 JUMP JUMPDEST SWAP2 POP JUMPDEST PUSH1 0x0 DUP4 SWAP1 POP PUSH1 0x0 DUP4 SWAP1 POP PUSH1 0x0 PUSH2 0x2310 PUSH1 0x2 DUP5 DUP5 PUSH1 0x80 PUSH20 0xFFFFFFFFFFFFFFFFFFFFFFFFFFFFFFFFFFFFFFFF AND PUSH4 0x5211C679 PUSH2 0x25DC JUMP JUMPDEST SWAP1 POP DUP1 SWAP4 POP POP POP POP SWAP3 SWAP2 POP POP JUMP JUMPDEST PUSH1 0x0 PUSH2 0x232A DUP4 DUP4 PUSH2 0x26E4 JUMP JUMPDEST SWAP1 POP SWAP3 SWAP2 POP POP JUMP JUMPDEST PUSH1 0x0 PUSH2 0x233D DUP4 PUSH2 0x1796 JUMP JUMPDEST PUSH2 0x234E JUMPI PUSH2 0x234B PUSH1 0x0 PUSH2 0x1157 JUMP JUMPDEST SWAP3 POP JUMPDEST PUSH2 0x2357 DUP3 PUSH2 0x1796 JUMP JUMPDEST PUSH2 0x2368 JUMPI PUSH2 0x2365 PUSH1 0x0 PUSH2 0x1157 JUMP JUMPDEST SWAP2 POP JUMPDEST PUSH1 0x0 DUP4 SWAP1 POP PUSH1 0x0 DUP4 SWAP1 POP PUSH1 0x0 PUSH2 0x239C PUSH1 0x2 DUP5 DUP5 PUSH1 0x80 PUSH20 0xFFFFFFFFFFFFFFFFFFFFFFFFFFFFFFFFFFFFFFFF AND PUSH3 0x2DF619 PUSH2 0x25DC JUMP JUMPDEST SWAP1 POP DUP1 SWAP4 POP POP POP POP SWAP3 SWAP2 POP POP JUMP JUMPDEST PUSH1 0x0 PUSH1 0x60 PUSH1 0x80 PUSH20 0xFFFFFFFFFFFFFFFFFFFFFFFFFFFFFFFFFFFFFFFF AND PUSH4 0x5FA55CA7 DUP5 DUP7 PUSH1 0x40 MLOAD DUP4 PUSH4 0xFFFFFFFF AND PUSH1 0xE0 SHL DUP2 MSTORE PUSH1 0x4 ADD PUSH2 0x23EA SWAP3 SWAP2 SWAP1 PUSH2 0x3390 JUMP JUMPDEST PUSH1 0x0 PUSH1 0x40 MLOAD DUP1 DUP4 SUB DUP2 DUP7 GAS STATICCALL ISZERO DUP1 ISZERO PUSH2 0x2407 JUMPI RETURNDATASIZE PUSH1 0x0 DUP1 RETURNDATACOPY RETURNDATASIZE PUSH1 0x0 REVERT JUMPDEST POP POP POP POP PUSH1 0x40 MLOAD RETURNDATASIZE PUSH1 0x0 DUP3 RETURNDATACOPY RETURNDATASIZE PUSH1 0x1F NOT PUSH1 0x1F DUP3 ADD AND DUP3 ADD DUP1 PUSH1 0x40 MSTORE POP DUP2 ADD SWAP1 PUSH2 0x2430 SWAP2 SWAP1 PUSH2 0x36BA JUMP JUMPDEST SWAP1 POP PUSH2 0x243B DUP2 PUSH2 0x25CE JUMP JUMPDEST SWAP2 POP POP SWAP3 SWAP2 POP POP JUMP JUMPDEST PUSH1 0x0 PUSH32 0x8B73C3C69BB8FE3D512ECC4CF759CC79239F7B179B0FFACAA9A75D522B39400F PUSH32 0x0 PUSH32 0x0 CHAINID ADDRESS PUSH1 0x40 MLOAD PUSH1 0x20 ADD PUSH2 0x24BF SWAP6 SWAP5 SWAP4 SWAP3 SWAP2 SWAP1 PUSH2 0x375D JUMP JUMPDEST PUSH1 0x40 MLOAD PUSH1 0x20 DUP2 DUP4 SUB SUB DUP2 MSTORE SWAP1 PUSH1 0x40 MSTORE DUP1 MLOAD SWAP1 PUSH1 0x20 ADD KECCAK256 SWAP1 POP SWAP1 JUMP JUMPDEST PUSH1 0x0 DUP1 PUSH1 0x0 PUSH32 0x7FFFFFFFFFFFFFFFFFFFFFFFFFFFFFFF5D576E7357A4501DDFE92F46681B20A0 DUP5 PUSH1 0x0 SHR GT ISZERO PUSH2 0x251A JUMPI PUSH1 0x0 PUSH1 0x3 DUP6 SWAP3 POP SWAP3 POP SWAP3 POP PUSH2 0x25C4 JUMP JUMPDEST PUSH1 0x0 PUSH1 0x1 DUP9 DUP9 DUP9 DUP9 PUSH1 0x40 MLOAD PUSH1 0x0 DUP2 MSTORE PUSH1 0x20 ADD PUSH1 0x40 MSTORE PUSH1 0x40 MLOAD PUSH2 0x253F SWAP5 SWAP4 SWAP3 SWAP2 SWAP1 PUSH2 0x37B0 JUMP JUMPDEST PUSH1 0x20 PUSH1 0x40 MLOAD PUSH1 0x20 DUP2 SUB SWAP1 DUP1 DUP5 SUB SWAP1 DUP6 GAS STATICCALL ISZERO DUP1 ISZERO PUSH2 0x2561 JUMPI RETURNDATASIZE PUSH1 0x0 DUP1 RETURNDATACOPY RETURNDATASIZE PUSH1 0x0 REVERT JUMPDEST POP POP POP PUSH1 0x20 PUSH1 0x40 MLOAD SUB MLOAD SWAP1 POP PUSH1 0x0 PUSH20 0xFFFFFFFFFFFFFFFFFFFFFFFFFFFFFFFFFFFFFFFF AND DUP2 PUSH20 0xFFFFFFFFFFFFFFFFFFFFFFFFFFFFFFFFFFFFFFFF AND SUB PUSH2 0x25B5 JUMPI PUSH1 0x0 PUSH1 0x1 PUSH1 0x0 DUP1 SHL SWAP4 POP SWAP4 POP SWAP4 POP POP PUSH2 0x25C4 JUMP JUMPDEST DUP1 PUSH1 0x0 DUP1 PUSH1 0x0 SHL SWAP4 POP SWAP4 POP SWAP4 POP POP JUMPDEST SWAP5 POP SWAP5 POP SWAP5 SWAP2 POP POP JUMP JUMPDEST PUSH1 0x0 PUSH1 0x20 DUP3 ADD MLOAD SWAP1 POP SWAP2 SWAP1 POP JUMP JUMPDEST PUSH1 0x0 PUSH1 0x60 DUP4 DUP4 DUP9 PUSH2 0x25EC DUP10 PUSH2 0x218E JUMP JUMPDEST PUSH2 0x25F5 DUP10 PUSH2 0x218E JUMP JUMPDEST PUSH1 0x40 MLOAD DUP5 PUSH4 0xFFFFFFFF AND PUSH1 0xE0 SHL DUP2 MSTORE PUSH1 0x4 ADD PUSH2 0x2613 SWAP4 SWAP3 SWAP2 SWAP1 PUSH2 0x34EB JUMP JUMPDEST PUSH1 0x0 PUSH1 0x40 MLOAD DUP1 DUP4 SUB DUP2 DUP7 GAS STATICCALL ISZERO DUP1 ISZERO PUSH2 0x2630 JUMPI RETURNDATASIZE PUSH1 0x0 DUP1 RETURNDATACOPY RETURNDATASIZE PUSH1 0x0 REVERT JUMPDEST POP POP POP POP PUSH1 0x40 MLOAD RETURNDATASIZE PUSH1 0x0 DUP3 RETURNDATACOPY RETURNDATASIZE PUSH1 0x1F NOT PUSH1 0x1F DUP3 ADD AND DUP3 ADD DUP1 PUSH1 0x40 MSTORE POP DUP2 ADD SWAP1 PUSH2 0x2659 SWAP2 SWAP1 PUSH2 0x36BA JUMP JUMPDEST SWAP1 POP PUSH2 0x2664 DUP2 PUSH2 0x275D JUMP JUMPDEST SWAP2 POP POP SWAP6 SWAP5 POP POP POP POP POP JUMP JUMPDEST PUSH1 0x60 PUSH1 0x0 PUSH2 0x267D DUP4 PUSH2 0x276B JUMP JUMPDEST SWAP1 POP PUSH1 0x0 PUSH1 0x20 PUSH8 0xFFFFFFFFFFFFFFFF DUP2 GT ISZERO PUSH2 0x269C JUMPI PUSH2 0x269B PUSH2 0x2BD5 JUMP JUMPDEST JUMPDEST PUSH1 0x40 MLOAD SWAP1 DUP1 DUP3 MSTORE DUP1 PUSH1 0x1F ADD PUSH1 0x1F NOT AND PUSH1 0x20 ADD DUP3 ADD PUSH1 0x40 MSTORE DUP1 ISZERO PUSH2 0x26CE JUMPI DUP2 PUSH1 0x20 ADD PUSH1 0x1 DUP3 MUL DUP1 CALLDATASIZE DUP4 CALLDATACOPY DUP1 DUP3 ADD SWAP2 POP POP SWAP1 POP JUMPDEST POP SWAP1 POP DUP2 DUP2 MSTORE DUP4 PUSH1 0x20 DUP3 ADD MSTORE DUP1 SWAP3 POP POP POP SWAP2 SWAP1 POP JUMP JUMPDEST PUSH1 0x0 PUSH2 0x26EF DUP4 PUSH2 0x1796 JUMP JUMPDEST PUSH2 0x2700 JUMPI PUSH2 0x26FD PUSH1 0x0 PUSH2 0x1157 JUMP JUMPDEST SWAP3 POP JUMPDEST PUSH2 0x2709 DUP3 PUSH2 0x1796 JUMP JUMPDEST PUSH2 0x271A JUMPI PUSH2 0x2717 PUSH1 0x0 PUSH2 0x1157 JUMP JUMPDEST SWAP2 POP JUMPDEST PUSH1 0x0 DUP4 SWAP1 POP PUSH1 0x0 DUP4 SWAP1 POP PUSH1 0x0 PUSH2 0x274F PUSH1 0x2 DUP5 DUP5 PUSH1 0x80 PUSH20 0xFFFFFFFFFFFFFFFFFFFFFFFFFFFFFFFFFFFFFFFF AND PUSH4 0xEB274B77 PUSH2 0x25DC JUMP JUMPDEST SWAP1 POP DUP1 SWAP4 POP POP POP POP SWAP3 SWAP2 POP POP JUMP JUMPDEST PUSH1 0x0 PUSH1 0x20 DUP3 ADD MLOAD SWAP1 POP SWAP2 SWAP1 POP JUMP JUMPDEST PUSH1 0x0 DUP1 PUSH1 0xFF DUP4 PUSH1 0x0 SHR AND SWAP1 POP PUSH1 0x1F DUP2 GT ISZERO PUSH2 0x27B2 JUMPI PUSH1 0x40 MLOAD PUSH32 0xB3512B0C00000000000000000000000000000000000000000000000000000000 DUP2 MSTORE PUSH1 0x4 ADD PUSH1 0x40 MLOAD DUP1 SWAP2 SUB SWAP1 REVERT JUMPDEST DUP1 SWAP2 POP POP SWAP2 SWAP1 POP JUMP JUMPDEST PUSH1 0x0 DUP2 MLOAD SWAP1 POP SWAP2 SWAP1 POP JUMP JUMPDEST PUSH1 0x0 DUP3 DUP3 MSTORE PUSH1 0x20 DUP3 ADD SWAP1 POP SWAP3 SWAP2 POP POP JUMP JUMPDEST PUSH1 0x0 JUMPDEST DUP4 DUP2 LT ISZERO PUSH2 0x27F5 JUMPI DUP1 DUP3 ADD MLOAD DUP2 DUP5 ADD MSTORE PUSH1 0x20 DUP2 ADD SWAP1 POP PUSH2 0x27DA JUMP JUMPDEST PUSH1 0x0 DUP5 DUP5 ADD MSTORE POP POP POP POP JUMP JUMPDEST PUSH1 0x0 PUSH1 0x1F NOT PUSH1 0x1F DUP4 ADD AND SWAP1 POP SWAP2 SWAP1 POP JUMP JUMPDEST PUSH1 0x0 PUSH2 0x281D DUP3 PUSH2 0x27BB JUMP JUMPDEST PUSH2 0x2827 DUP2 DUP6 PUSH2 0x27C6 JUMP JUMPDEST SWAP4 POP PUSH2 0x2837 DUP2 DUP6 PUSH1 0x20 DUP7 ADD PUSH2 0x27D7 JUMP JUMPDEST PUSH2 0x2840 DUP2 PUSH2 0x2801 JUMP JUMPDEST DUP5 ADD SWAP2 POP POP SWAP3 SWAP2 POP POP JUMP JUMPDEST PUSH1 0x0 PUSH1 0x20 DUP3 ADD SWAP1 POP DUP2 DUP2 SUB PUSH1 0x0 DUP4 ADD MSTORE PUSH2 0x2865 DUP2 DUP5 PUSH2 0x2812 JUMP JUMPDEST SWAP1 POP SWAP3 SWAP2 POP POP JUMP JUMPDEST PUSH1 0x0 PUSH1 0x40 MLOAD SWAP1 POP SWAP1 JUMP JUMPDEST PUSH1 0x0 DUP1 REVERT JUMPDEST PUSH1 0x0 DUP1 REVERT JUMPDEST PUSH1 0x0 PUSH20 0xFFFFFFFFFFFFFFFFFFFFFFFFFFFFFFFFFFFFFFFF DUP3 AND SWAP1 POP SWAP2 SWAP1 POP JUMP JUMPDEST PUSH1 0x0 PUSH2 0x28AC DUP3 PUSH2 0x2881 JUMP JUMPDEST SWAP1 POP SWAP2 SWAP1 POP JUMP JUMPDEST PUSH2 0x28BC DUP2 PUSH2 0x28A1 JUMP JUMPDEST DUP2 EQ PUSH2 0x28C7 JUMPI PUSH1 0x0 DUP1 REVERT JUMPDEST POP JUMP JUMPDEST PUSH1 0x0 DUP2 CALLDATALOAD SWAP1 POP PUSH2 0x28D9 DUP2 PUSH2 0x28B3 JUMP JUMPDEST SWAP3 SWAP2 POP POP JUMP JUMPDEST PUSH1 0x0 DUP2 SWAP1 POP SWAP2 SWAP1 POP JUMP JUMPDEST PUSH2 0x28F2 DUP2 PUSH2 0x28DF JUMP JUMPDEST DUP2 EQ PUSH2 0x28FD JUMPI PUSH1 0x0 DUP1 REVERT JUMPDEST POP JUMP JUMPDEST PUSH1 0x0 DUP2 CALLDATALOAD SWAP1 POP PUSH2 0x290F DUP2 PUSH2 0x28E9 JUMP JUMPDEST SWAP3 SWAP2 POP POP JUMP JUMPDEST PUSH1 0x0 DUP1 PUSH1 0x40 DUP4 DUP6 SUB SLT ISZERO PUSH2 0x292C JUMPI PUSH2 0x292B PUSH2 0x2877 JUMP JUMPDEST JUMPDEST PUSH1 0x0 PUSH2 0x293A DUP6 DUP3 DUP7 ADD PUSH2 0x28CA JUMP JUMPDEST SWAP3 POP POP PUSH1 0x20 PUSH2 0x294B DUP6 DUP3 DUP7 ADD PUSH2 0x2900 JUMP JUMPDEST SWAP2 POP POP SWAP3 POP SWAP3 SWAP1 POP JUMP JUMPDEST PUSH1 0x0 DUP2 ISZERO ISZERO SWAP1 POP SWAP2 SWAP1 POP JUMP JUMPDEST PUSH2 0x296A DUP2 PUSH2 0x2955 JUMP JUMPDEST DUP3 MSTORE POP POP JUMP JUMPDEST PUSH1 0x0 PUSH1 0x20 DUP3 ADD SWAP1 POP PUSH2 0x2985 PUSH1 0x0 DUP4 ADD DUP5 PUSH2 0x2961 JUMP JUMPDEST SWAP3 SWAP2 POP POP JUMP JUMPDEST PUSH2 0x2994 DUP2 PUSH2 0x28DF JUMP JUMPDEST DUP3 MSTORE POP POP JUMP JUMPDEST PUSH1 0x0 PUSH1 0x20 DUP3 ADD SWAP1 POP PUSH2 0x29AF PUSH1 0x0 DUP4 ADD DUP5 PUSH2 0x298B JUMP JUMPDEST SWAP3 SWAP2 POP POP JUMP JUMPDEST PUSH1 0x0 DUP1 PUSH1 0x0 PUSH1 0x60 DUP5 DUP7 SUB SLT ISZERO PUSH2 0x29CE JUMPI PUSH2 0x29CD PUSH2 0x2877 JUMP JUMPDEST JUMPDEST PUSH1 0x0 PUSH2 0x29DC DUP7 DUP3 DUP8 ADD PUSH2 0x28CA JUMP JUMPDEST SWAP4 POP POP PUSH1 0x20 PUSH2 0x29ED DUP7 DUP3 DUP8 ADD PUSH2 0x28CA JUMP JUMPDEST SWAP3 POP POP PUSH1 0x40 PUSH2 0x29FE DUP7 DUP3 DUP8 ADD PUSH2 0x2900 JUMP JUMPDEST SWAP2 POP POP SWAP3 POP SWAP3 POP SWAP3 JUMP JUMPDEST PUSH1 0x0 DUP1 PUSH1 0x40 DUP4 DUP6 SUB SLT ISZERO PUSH2 0x2A1F JUMPI PUSH2 0x2A1E PUSH2 0x2877 JUMP JUMPDEST JUMPDEST PUSH1 0x0 PUSH2 0x2A2D DUP6 DUP3 DUP7 ADD PUSH2 0x28CA JUMP JUMPDEST SWAP3 POP POP PUSH1 0x20 PUSH2 0x2A3E DUP6 DUP3 DUP7 ADD PUSH2 0x28CA JUMP JUMPDEST SWAP2 POP POP SWAP3 POP SWAP3 SWAP1 POP JUMP JUMPDEST PUSH1 0x0 DUP2 SWAP1 POP SWAP2 SWAP1 POP JUMP JUMPDEST PUSH1 0x0 PUSH2 0x2A6D PUSH2 0x2A68 PUSH2 0x2A63 DUP5 PUSH2 0x28DF JUMP JUMPDEST PUSH2 0x2A48 JUMP JUMPDEST PUSH2 0x28DF JUMP JUMPDEST SWAP1 POP SWAP2 SWAP1 POP JUMP JUMPDEST PUSH2 0x2A7D DUP2 PUSH2 0x2A52 JUMP JUMPDEST DUP3 MSTORE POP POP JUMP JUMPDEST PUSH1 0x0 PUSH1 0x20 DUP3 ADD SWAP1 POP PUSH2 0x2A98 PUSH1 0x0 DUP4 ADD DUP5 PUSH2 0x2A74 JUMP JUMPDEST SWAP3 SWAP2 POP POP JUMP JUMPDEST PUSH1 0x0 PUSH1 0xFF DUP3 AND SWAP1 POP SWAP2 SWAP1 POP JUMP JUMPDEST PUSH2 0x2AB4 DUP2 PUSH2 0x2A9E JUMP JUMPDEST DUP3 MSTORE POP POP JUMP JUMPDEST PUSH1 0x0 PUSH1 0x20 DUP3 ADD SWAP1 POP PUSH2 0x2ACF PUSH1 0x0 DUP4 ADD DUP5 PUSH2 0x2AAB JUMP JUMPDEST SWAP3 SWAP2 POP POP JUMP JUMPDEST PUSH1 0x0 DUP1 REVERT JUMPDEST PUSH1 0x0 PUSH1 0x20 DUP3 DUP5 SUB SLT ISZERO PUSH2 0x2AF0 JUMPI PUSH2 0x2AEF PUSH2 0x2AD5 JUMP JUMPDEST JUMPDEST DUP2 SWAP1 POP SWAP3 SWAP2 POP POP JUMP JUMPDEST PUSH1 0x0 DUP1 PUSH1 0x40 DUP4 DUP6 SUB SLT ISZERO PUSH2 0x2B10 JUMPI PUSH2 0x2B0F PUSH2 0x2877 JUMP JUMPDEST JUMPDEST PUSH1 0x0 PUSH2 0x2B1E DUP6 DUP3 DUP7 ADD PUSH2 0x28CA JUMP JUMPDEST SWAP3 POP POP PUSH1 0x20 DUP4 ADD CALLDATALOAD PUSH8 0xFFFFFFFFFFFFFFFF DUP2 GT ISZERO PUSH2 0x2B3F JUMPI PUSH2 0x2B3E PUSH2 0x287C JUMP JUMPDEST JUMPDEST PUSH2 0x2B4B DUP6 DUP3 DUP7 ADD PUSH2 0x2ADA JUMP JUMPDEST SWAP2 POP POP SWAP3 POP SWAP3 SWAP1 POP JUMP JUMPDEST PUSH1 0x0 PUSH1 0x40 DUP3 DUP5 SUB SLT ISZERO PUSH2 0x2B6B JUMPI PUSH2 0x2B6A PUSH2 0x2AD5 JUMP JUMPDEST JUMPDEST DUP2 SWAP1 POP SWAP3 SWAP2 POP POP JUMP JUMPDEST PUSH1 0x0 DUP1 PUSH1 0x40 DUP4 DUP6 SUB SLT ISZERO PUSH2 0x2B8B JUMPI PUSH2 0x2B8A PUSH2 0x2877 JUMP JUMPDEST JUMPDEST PUSH1 0x0 PUSH2 0x2B99 DUP6 DUP3 DUP7 ADD PUSH2 0x28CA JUMP JUMPDEST SWAP3 POP POP PUSH1 0x20 DUP4 ADD CALLDATALOAD PUSH8 0xFFFFFFFFFFFFFFFF DUP2 GT ISZERO PUSH2 0x2BBA JUMPI PUSH2 0x2BB9 PUSH2 0x287C JUMP JUMPDEST JUMPDEST PUSH2 0x2BC6 DUP6 DUP3 DUP7 ADD PUSH2 0x2B55 JUMP JUMPDEST SWAP2 POP POP SWAP3 POP SWAP3 SWAP1 POP JUMP JUMPDEST PUSH1 0x0 DUP1 REVERT JUMPDEST PUSH32 0x4E487B7100000000000000000000000000000000000000000000000000000000 PUSH1 0x0 MSTORE PUSH1 0x41 PUSH1 0x4 MSTORE PUSH1 0x24 PUSH1 0x0 REVERT JUMPDEST PUSH2 0x2C0D DUP3 PUSH2 0x2801 JUMP JUMPDEST DUP2 ADD DUP2 DUP2 LT PUSH8 0xFFFFFFFFFFFFFFFF DUP3 GT OR ISZERO PUSH2 0x2C2C JUMPI PUSH2 0x2C2B PUSH2 0x2BD5 JUMP JUMPDEST JUMPDEST DUP1 PUSH1 0x40 MSTORE POP POP POP JUMP JUMPDEST PUSH1 0x0 PUSH2 0x2C3F PUSH2 0x286D JUMP JUMPDEST SWAP1 POP PUSH2 0x2C4B DUP3 DUP3 PUSH2 0x2C04 JUMP JUMPDEST SWAP2 SWAP1 POP JUMP JUMPDEST PUSH1 0x0 DUP1 REVERT JUMPDEST PUSH1 0x0 DUP2 SWAP1 POP SWAP2 SWAP1 POP JUMP JUMPDEST PUSH2 0x2C68 DUP2 PUSH2 0x2C55 JUMP JUMPDEST DUP2 EQ PUSH2 0x2C73 JUMPI PUSH1 0x0 DUP1 REVERT JUMPDEST POP JUMP JUMPDEST PUSH1 0x0 DUP2 CALLDATALOAD SWAP1 POP PUSH2 0x2C85 DUP2 PUSH2 0x2C5F JUMP JUMPDEST SWAP3 SWAP2 POP POP JUMP JUMPDEST PUSH1 0x0 DUP1 REVERT JUMPDEST PUSH1 0x0 DUP1 REVERT JUMPDEST PUSH1 0x0 PUSH8 0xFFFFFFFFFFFFFFFF DUP3 GT ISZERO PUSH2 0x2CB0 JUMPI PUSH2 0x2CAF PUSH2 0x2BD5 JUMP JUMPDEST JUMPDEST PUSH2 0x2CB9 DUP3 PUSH2 0x2801 JUMP JUMPDEST SWAP1 POP PUSH1 0x20 DUP2 ADD SWAP1 POP SWAP2 SWAP1 POP JUMP JUMPDEST DUP3 DUP2 DUP4 CALLDATACOPY PUSH1 0x0 DUP4 DUP4 ADD MSTORE POP POP POP JUMP JUMPDEST PUSH1 0x0 PUSH2 0x2CE8 PUSH2 0x2CE3 DUP5 PUSH2 0x2C95 JUMP JUMPDEST PUSH2 0x2C35 JUMP JUMPDEST SWAP1 POP DUP3 DUP2 MSTORE PUSH1 0x20 DUP2 ADD DUP5 DUP5 DUP5 ADD GT ISZERO PUSH2 0x2D04 JUMPI PUSH2 0x2D03 PUSH2 0x2C90 JUMP JUMPDEST JUMPDEST PUSH2 0x2D0F DUP5 DUP3 DUP6 PUSH2 0x2CC6 JUMP JUMPDEST POP SWAP4 SWAP3 POP POP POP JUMP JUMPDEST PUSH1 0x0 DUP3 PUSH1 0x1F DUP4 ADD SLT PUSH2 0x2D2C JUMPI PUSH2 0x2D2B PUSH2 0x2C8B JUMP JUMPDEST JUMPDEST DUP2 CALLDATALOAD PUSH2 0x2D3C DUP5 DUP3 PUSH1 0x20 DUP7 ADD PUSH2 0x2CD5 JUMP JUMPDEST SWAP2 POP POP SWAP3 SWAP2 POP POP JUMP JUMPDEST PUSH1 0x0 PUSH1 0x40 DUP3 DUP5 SUB SLT ISZERO PUSH2 0x2D5B JUMPI PUSH2 0x2D5A PUSH2 0x2BD0 JUMP JUMPDEST JUMPDEST PUSH2 0x2D65 PUSH1 0x40 PUSH2 0x2C35 JUMP JUMPDEST SWAP1 POP PUSH1 0x0 PUSH2 0x2D75 DUP5 DUP3 DUP6 ADD PUSH2 0x2C76 JUMP JUMPDEST PUSH1 0x0 DUP4 ADD MSTORE POP PUSH1 0x20 DUP3 ADD CALLDATALOAD PUSH8 0xFFFFFFFFFFFFFFFF DUP2 GT ISZERO PUSH2 0x2D99 JUMPI PUSH2 0x2D98 PUSH2 0x2C50 JUMP JUMPDEST JUMPDEST PUSH2 0x2DA5 DUP5 DUP3 DUP6 ADD PUSH2 0x2D17 JUMP JUMPDEST PUSH1 0x20 DUP4 ADD MSTORE POP SWAP3 SWAP2 POP POP JUMP JUMPDEST PUSH1 0x0 DUP1 PUSH1 0x40 DUP4 DUP6 SUB SLT ISZERO PUSH2 0x2DC8 JUMPI PUSH2 0x2DC7 PUSH2 0x2877 JUMP JUMPDEST JUMPDEST PUSH1 0x0 PUSH2 0x2DD6 DUP6 DUP3 DUP7 ADD PUSH2 0x28CA JUMP JUMPDEST SWAP3 POP POP PUSH1 0x20 DUP4 ADD CALLDATALOAD PUSH8 0xFFFFFFFFFFFFFFFF DUP2 GT ISZERO PUSH2 0x2DF7 JUMPI PUSH2 0x2DF6 PUSH2 0x287C JUMP JUMPDEST JUMPDEST PUSH2 0x2E03 DUP6 DUP3 DUP7 ADD PUSH2 0x2D45 JUMP JUMPDEST SWAP2 POP POP SWAP3 POP SWAP3 SWAP1 POP JUMP JUMPDEST PUSH1 0x0 PUSH4 0xFFFFFFFF DUP3 AND SWAP1 POP SWAP2 SWAP1 POP JUMP JUMPDEST PUSH2 0x2E26 DUP2 PUSH2 0x2E0D JUMP JUMPDEST DUP2 EQ PUSH2 0x2E31 JUMPI PUSH1 0x0 DUP1 REVERT JUMPDEST POP JUMP JUMPDEST PUSH1 0x0 DUP2 CALLDATALOAD SWAP1 POP PUSH2 0x2E43 DUP2 PUSH2 0x2E1D JUMP JUMPDEST SWAP3 SWAP2 POP POP JUMP JUMPDEST PUSH1 0x0 PUSH1 0x20 DUP3 DUP5 SUB SLT ISZERO PUSH2 0x2E5F JUMPI PUSH2 0x2E5E PUSH2 0x2877 JUMP JUMPDEST JUMPDEST PUSH1 0x0 PUSH2 0x2E6D DUP5 DUP3 DUP6 ADD PUSH2 0x2E34 JUMP JUMPDEST SWAP2 POP POP SWAP3 SWAP2 POP POP JUMP JUMPDEST PUSH1 0x0 PUSH1 0x20 DUP3 DUP5 SUB SLT ISZERO PUSH2 0x2E8C JUMPI PUSH2 0x2E8B PUSH2 0x2877 JUMP JUMPDEST JUMPDEST PUSH1 0x0 PUSH2 0x2E9A DUP5 DUP3 DUP6 ADD PUSH2 0x28CA JUMP JUMPDEST SWAP2 POP POP SWAP3 SWAP2 POP POP JUMP JUMPDEST PUSH1 0x0 PUSH32 0xFF00000000000000000000000000000000000000000000000000000000000000 DUP3 AND SWAP1 POP SWAP2 SWAP1 POP JUMP JUMPDEST PUSH2 0x2ED8 DUP2 PUSH2 0x2EA3 JUMP JUMPDEST DUP3 MSTORE POP POP JUMP JUMPDEST PUSH2 0x2EE7 DUP2 PUSH2 0x28A1 JUMP JUMPDEST DUP3 MSTORE POP POP JUMP JUMPDEST PUSH2 0x2EF6 DUP2 PUSH2 0x2C55 JUMP JUMPDEST DUP3 MSTORE POP POP JUMP JUMPDEST PUSH1 0x0 DUP2 MLOAD SWAP1 POP SWAP2 SWAP1 POP JUMP JUMPDEST PUSH1 0x0 DUP3 DUP3 MSTORE PUSH1 0x20 DUP3 ADD SWAP1 POP SWAP3 SWAP2 POP POP JUMP JUMPDEST PUSH1 0x0 DUP2 SWAP1 POP PUSH1 0x20 DUP3 ADD SWAP1 POP SWAP2 SWAP1 POP JUMP JUMPDEST PUSH2 0x2F31 DUP2 PUSH2 0x28DF JUMP JUMPDEST DUP3 MSTORE POP POP JUMP JUMPDEST PUSH1 0x0 PUSH2 0x2F43 DUP4 DUP4 PUSH2 0x2F28 JUMP JUMPDEST PUSH1 0x20 DUP4 ADD SWAP1 POP SWAP3 SWAP2 POP POP JUMP JUMPDEST PUSH1 0x0 PUSH1 0x20 DUP3 ADD SWAP1 POP SWAP2 SWAP1 POP JUMP JUMPDEST PUSH1 0x0 PUSH2 0x2F67 DUP3 PUSH2 0x2EFC JUMP JUMPDEST PUSH2 0x2F71 DUP2 DUP6 PUSH2 0x2F07 JUMP JUMPDEST SWAP4 POP PUSH2 0x2F7C DUP4 PUSH2 0x2F18 JUMP JUMPDEST DUP1 PUSH1 0x0 JUMPDEST DUP4 DUP2 LT ISZERO PUSH2 0x2FAD JUMPI DUP2 MLOAD PUSH2 0x2F94 DUP9 DUP3 PUSH2 0x2F37 JUMP JUMPDEST SWAP8 POP PUSH2 0x2F9F DUP4 PUSH2 0x2F4F JUMP JUMPDEST SWAP3 POP POP PUSH1 0x1 DUP2 ADD SWAP1 POP PUSH2 0x2F80 JUMP JUMPDEST POP DUP6 SWAP4 POP POP POP POP SWAP3 SWAP2 POP POP JUMP JUMPDEST PUSH1 0x0 PUSH1 0xE0 DUP3 ADD SWAP1 POP PUSH2 0x2FCF PUSH1 0x0 DUP4 ADD DUP11 PUSH2 0x2ECF JUMP JUMPDEST DUP2 DUP2 SUB PUSH1 0x20 DUP4 ADD MSTORE PUSH2 0x2FE1 DUP2 DUP10 PUSH2 0x2812 JUMP JUMPDEST SWAP1 POP DUP2 DUP2 SUB PUSH1 0x40 DUP4 ADD MSTORE PUSH2 0x2FF5 DUP2 DUP9 PUSH2 0x2812 JUMP JUMPDEST SWAP1 POP PUSH2 0x3004 PUSH1 0x60 DUP4 ADD DUP8 PUSH2 0x298B JUMP JUMPDEST PUSH2 0x3011 PUSH1 0x80 DUP4 ADD DUP7 PUSH2 0x2EDE JUMP JUMPDEST PUSH2 0x301E PUSH1 0xA0 DUP4 ADD DUP6 PUSH2 0x2EED JUMP JUMPDEST DUP2 DUP2 SUB PUSH1 0xC0 DUP4 ADD MSTORE PUSH2 0x3030 DUP2 DUP5 PUSH2 0x2F5C JUMP JUMPDEST SWAP1 POP SWAP9 SWAP8 POP POP POP POP POP POP POP POP JUMP JUMPDEST PUSH1 0x0 DUP1 PUSH1 0x0 PUSH1 0x60 DUP5 DUP7 SUB SLT ISZERO PUSH2 0x3057 JUMPI PUSH2 0x3056 PUSH2 0x2877 JUMP JUMPDEST JUMPDEST PUSH1 0x0 PUSH2 0x3065 DUP7 DUP3 DUP8 ADD PUSH2 0x28CA JUMP JUMPDEST SWAP4 POP POP PUSH1 0x20 PUSH2 0x3076 DUP7 DUP3 DUP8 ADD PUSH2 0x28CA JUMP JUMPDEST SWAP3 POP POP PUSH1 0x40 DUP5 ADD CALLDATALOAD PUSH8 0xFFFFFFFFFFFFFFFF DUP2 GT ISZERO PUSH2 0x3097 JUMPI PUSH2 0x3096 PUSH2 0x287C JUMP JUMPDEST JUMPDEST PUSH2 0x30A3 DUP7 DUP3 DUP8 ADD PUSH2 0x2ADA JUMP JUMPDEST SWAP2 POP POP SWAP3 POP SWAP3 POP SWAP3 JUMP JUMPDEST PUSH1 0x0 PUSH1 0x20 DUP3 DUP5 SUB SLT ISZERO PUSH2 0x30C3 JUMPI PUSH2 0x30C2 PUSH2 0x2877 JUMP JUMPDEST JUMPDEST PUSH1 0x0 PUSH2 0x30D1 DUP5 DUP3 DUP6 ADD PUSH2 0x2900 JUMP JUMPDEST SWAP2 POP POP SWAP3 SWAP2 POP POP JUMP JUMPDEST PUSH2 0x30E3 DUP2 PUSH2 0x28DF JUMP JUMPDEST DUP2 EQ PUSH2 0x30EE JUMPI PUSH1 0x0 DUP1 REVERT JUMPDEST POP JUMP JUMPDEST PUSH1 0x0 DUP2 CALLDATALOAD SWAP1 POP PUSH2 0x3100 DUP2 PUSH2 0x30DA JUMP JUMPDEST SWAP3 SWAP2 POP POP JUMP JUMPDEST PUSH1 0x0 DUP1 PUSH1 0x0 PUSH1 0x60 DUP5 DUP7 SUB SLT ISZERO PUSH2 0x311F JUMPI PUSH2 0x311E PUSH2 0x2877 JUMP JUMPDEST JUMPDEST PUSH1 0x0 PUSH2 0x312D DUP7 DUP3 DUP8 ADD PUSH2 0x28CA JUMP JUMPDEST SWAP4 POP POP PUSH1 0x20 PUSH2 0x313E DUP7 DUP3 DUP8 ADD PUSH2 0x28CA JUMP JUMPDEST SWAP3 POP POP PUSH1 0x40 PUSH2 0x314F DUP7 DUP3 DUP8 ADD PUSH2 0x30F1 JUMP JUMPDEST SWAP2 POP POP SWAP3 POP SWAP3 POP SWAP3 JUMP JUMPDEST PUSH1 0x0 DUP1 PUSH1 0x40 DUP4 DUP6 SUB SLT ISZERO PUSH2 0x3170 JUMPI PUSH2 0x316F PUSH2 0x2877 JUMP JUMPDEST JUMPDEST PUSH1 0x0 PUSH2 0x317E DUP6 DUP3 DUP7 ADD PUSH2 0x28CA JUMP JUMPDEST SWAP3 POP POP PUSH1 0x20 PUSH2 0x318F DUP6 DUP3 DUP7 ADD PUSH2 0x30F1 JUMP JUMPDEST SWAP2 POP POP SWAP3 POP SWAP3 SWAP1 POP JUMP JUMPDEST PUSH1 0x0 PUSH1 0x20 DUP3 DUP5 SUB SLT ISZERO PUSH2 0x31AF JUMPI PUSH2 0x31AE PUSH2 0x2877 JUMP JUMPDEST JUMPDEST PUSH1 0x0 DUP3 ADD CALLDATALOAD PUSH8 0xFFFFFFFFFFFFFFFF DUP2 GT ISZERO PUSH2 0x31CD JUMPI PUSH2 0x31CC PUSH2 0x287C JUMP JUMPDEST JUMPDEST PUSH2 0x31D9 DUP5 DUP3 DUP6 ADD PUSH2 0x2ADA JUMP JUMPDEST SWAP2 POP POP SWAP3 SWAP2 POP POP JUMP JUMPDEST PUSH32 0x4E487B7100000000000000000000000000000000000000000000000000000000 PUSH1 0x0 MSTORE PUSH1 0x22 PUSH1 0x4 MSTORE PUSH1 0x24 PUSH1 0x0 REVERT JUMPDEST PUSH1 0x0 PUSH1 0x2 DUP3 DIV SWAP1 POP PUSH1 0x1 DUP3 AND DUP1 PUSH2 0x3229 JUMPI PUSH1 0x7F DUP3 AND SWAP2 POP JUMPDEST PUSH1 0x20 DUP3 LT DUP2 SUB PUSH2 0x323C JUMPI PUSH2 0x323B PUSH2 0x31E2 JUMP JUMPDEST JUMPDEST POP SWAP2 SWAP1 POP JUMP JUMPDEST PUSH1 0x0 PUSH1 0x20 DUP3 DUP5 SUB SLT ISZERO PUSH2 0x3258 JUMPI PUSH2 0x3257 PUSH2 0x2BD0 JUMP JUMPDEST JUMPDEST PUSH2 0x3262 PUSH1 0x20 PUSH2 0x2C35 JUMP JUMPDEST SWAP1 POP PUSH1 0x0 DUP3 ADD CALLDATALOAD PUSH8 0xFFFFFFFFFFFFFFFF DUP2 GT ISZERO PUSH2 0x3282 JUMPI PUSH2 0x3281 PUSH2 0x2C50 JUMP JUMPDEST JUMPDEST PUSH2 0x328E DUP5 DUP3 DUP6 ADD PUSH2 0x2D17 JUMP JUMPDEST PUSH1 0x0 DUP4 ADD MSTORE POP SWAP3 SWAP2 POP POP JUMP JUMPDEST PUSH1 0x0 PUSH2 0x32A6 CALLDATASIZE DUP4 PUSH2 0x3242 JUMP JUMPDEST SWAP1 POP SWAP2 SWAP1 POP JUMP JUMPDEST PUSH1 0x0 PUSH2 0x32B9 CALLDATASIZE DUP4 PUSH2 0x2D45 JUMP JUMPDEST SWAP1 POP SWAP2 SWAP1 POP JUMP JUMPDEST PUSH1 0x0 PUSH1 0x40 DUP3 ADD SWAP1 POP PUSH2 0x32D5 PUSH1 0x0 DUP4 ADD DUP6 PUSH2 0x2EED JUMP JUMPDEST PUSH2 0x32E2 PUSH1 0x20 DUP4 ADD DUP5 PUSH2 0x2EED JUMP JUMPDEST SWAP4 SWAP3 POP POP POP JUMP JUMPDEST PUSH1 0x0 PUSH1 0x60 DUP3 ADD SWAP1 POP PUSH2 0x32FE PUSH1 0x0 DUP4 ADD DUP7 PUSH2 0x2EDE JUMP JUMPDEST PUSH2 0x330B PUSH1 0x20 DUP4 ADD DUP6 PUSH2 0x298B JUMP JUMPDEST PUSH2 0x3318 PUSH1 0x40 DUP4 ADD DUP5 PUSH2 0x298B JUMP JUMPDEST SWAP5 SWAP4 POP POP POP POP JUMP JUMPDEST PUSH1 0x0 PUSH1 0x20 DUP3 ADD SWAP1 POP PUSH2 0x3335 PUSH1 0x0 DUP4 ADD DUP5 PUSH2 0x2EDE JUMP JUMPDEST SWAP3 SWAP2 POP POP JUMP JUMPDEST PUSH1 0x0 DUP2 MLOAD SWAP1 POP SWAP2 SWAP1 POP JUMP JUMPDEST PUSH1 0x0 DUP3 DUP3 MSTORE PUSH1 0x20 DUP3 ADD SWAP1 POP SWAP3 SWAP2 POP POP JUMP JUMPDEST PUSH1 0x0 PUSH2 0x3362 DUP3 PUSH2 0x333B JUMP JUMPDEST PUSH2 0x336C DUP2 DUP6 PUSH2 0x3346 JUMP JUMPDEST SWAP4 POP PUSH2 0x337C DUP2 DUP6 PUSH1 0x20 DUP7 ADD PUSH2 0x27D7 JUMP JUMPDEST PUSH2 0x3385 DUP2 PUSH2 0x2801 JUMP JUMPDEST DUP5 ADD SWAP2 POP POP SWAP3 SWAP2 POP POP JUMP JUMPDEST PUSH1 0x0 PUSH1 0x40 DUP3 ADD SWAP1 POP PUSH2 0x33A5 PUSH1 0x0 DUP4 ADD DUP6 PUSH2 0x2AAB JUMP JUMPDEST DUP2 DUP2 SUB PUSH1 0x20 DUP4 ADD MSTORE PUSH2 0x33B7 DUP2 DUP5 PUSH2 0x3357 JUMP JUMPDEST SWAP1 POP SWAP4 SWAP3 POP POP POP JUMP JUMPDEST PUSH1 0x0 DUP2 MLOAD SWAP1 POP PUSH2 0x33CF DUP2 PUSH2 0x28E9 JUMP JUMPDEST SWAP3 SWAP2 POP POP JUMP JUMPDEST PUSH1 0x0 PUSH1 0x20 DUP3 DUP5 SUB SLT ISZERO PUSH2 0x33EB JUMPI PUSH2 0x33EA PUSH2 0x2877 JUMP JUMPDEST JUMPDEST PUSH1 0x0 PUSH2 0x33F9 DUP5 DUP3 DUP6 ADD PUSH2 0x33C0 JUMP JUMPDEST SWAP2 POP POP SWAP3 SWAP2 POP POP JUMP JUMPDEST PUSH32 0x4E487B7100000000000000000000000000000000000000000000000000000000 PUSH1 0x0 MSTORE PUSH1 0x11 PUSH1 0x4 MSTORE PUSH1 0x24 PUSH1 0x0 REVERT JUMPDEST PUSH1 0x0 PUSH2 0x343C DUP3 PUSH2 0x28DF JUMP JUMPDEST SWAP2 POP PUSH2 0x3447 DUP4 PUSH2 0x28DF JUMP JUMPDEST SWAP3 POP DUP3 DUP3 ADD SWAP1 POP DUP1 DUP3 GT ISZERO PUSH2 0x345F JUMPI PUSH2 0x345E PUSH2 0x3402 JUMP JUMPDEST JUMPDEST SWAP3 SWAP2 POP POP JUMP JUMPDEST PUSH32 0x4E487B7100000000000000000000000000000000000000000000000000000000 PUSH1 0x0 MSTORE PUSH1 0x21 PUSH1 0x4 MSTORE PUSH1 0x24 PUSH1 0x0 REVERT JUMPDEST PUSH1 0x0 PUSH1 0x20 DUP3 ADD SWAP1 POP PUSH2 0x34A9 PUSH1 0x0 DUP4 ADD DUP5 PUSH2 0x2EED JUMP JUMPDEST SWAP3 SWAP2 POP POP JUMP JUMPDEST PUSH1 0x0 DUP2 SWAP1 POP SWAP2 SWAP1 POP JUMP JUMPDEST PUSH2 0x34CA PUSH2 0x34C5 DUP3 PUSH2 0x2C55 JUMP JUMPDEST PUSH2 0x34AF JUMP JUMPDEST DUP3 MSTORE POP POP JUMP JUMPDEST PUSH1 0x0 PUSH2 0x34DC DUP3 DUP5 PUSH2 0x34B9 JUMP JUMPDEST PUSH1 0x20 DUP3 ADD SWAP2 POP DUP2 SWAP1 POP SWAP3 SWAP2 POP POP JUMP JUMPDEST PUSH1 0x0 PUSH1 0x60 DUP3 ADD SWAP1 POP PUSH2 0x3500 PUSH1 0x0 DUP4 ADD DUP7 PUSH2 0x2AAB JUMP JUMPDEST DUP2 DUP2 SUB PUSH1 0x20 DUP4 ADD MSTORE PUSH2 0x3512 DUP2 DUP6 PUSH2 0x3357 JUMP JUMPDEST SWAP1 POP DUP2 DUP2 SUB PUSH1 0x40 DUP4 ADD MSTORE PUSH2 0x3526 DUP2 DUP5 PUSH2 0x3357 JUMP JUMPDEST SWAP1 POP SWAP5 SWAP4 POP POP POP POP JUMP JUMPDEST PUSH1 0x0 PUSH8 0xFFFFFFFFFFFFFFFF DUP3 GT ISZERO PUSH2 0x354B JUMPI PUSH2 0x354A PUSH2 0x2BD5 JUMP JUMPDEST JUMPDEST PUSH2 0x3554 DUP3 PUSH2 0x2801 JUMP JUMPDEST SWAP1 POP PUSH1 0x20 DUP2 ADD SWAP1 POP SWAP2 SWAP1 POP JUMP JUMPDEST PUSH1 0x0 PUSH2 0x3574 PUSH2 0x356F DUP5 PUSH2 0x3530 JUMP JUMPDEST PUSH2 0x2C35 JUMP JUMPDEST SWAP1 POP DUP3 DUP2 MSTORE PUSH1 0x20 DUP2 ADD DUP5 DUP5 DUP5 ADD GT ISZERO PUSH2 0x3590 JUMPI PUSH2 0x358F PUSH2 0x2C90 JUMP JUMPDEST JUMPDEST PUSH2 0x359B DUP5 DUP3 DUP6 PUSH2 0x27D7 JUMP JUMPDEST POP SWAP4 SWAP3 POP POP POP JUMP JUMPDEST PUSH1 0x0 DUP3 PUSH1 0x1F DUP4 ADD SLT PUSH2 0x35B8 JUMPI PUSH2 0x35B7 PUSH2 0x2C8B JUMP JUMPDEST JUMPDEST DUP2 MLOAD PUSH2 0x35C8 DUP5 DUP3 PUSH1 0x20 DUP7 ADD PUSH2 0x3561 JUMP JUMPDEST SWAP2 POP POP SWAP3 SWAP2 POP POP JUMP JUMPDEST PUSH1 0x0 PUSH1 0x20 DUP3 DUP5 SUB SLT ISZERO PUSH2 0x35E7 JUMPI PUSH2 0x35E6 PUSH2 0x2877 JUMP JUMPDEST JUMPDEST PUSH1 0x0 DUP3 ADD MLOAD PUSH8 0xFFFFFFFFFFFFFFFF DUP2 GT ISZERO PUSH2 0x3605 JUMPI PUSH2 0x3604 PUSH2 0x287C JUMP JUMPDEST JUMPDEST PUSH2 0x3611 DUP5 DUP3 DUP6 ADD PUSH2 0x35A3 JUMP JUMPDEST SWAP2 POP POP SWAP3 SWAP2 POP POP JUMP JUMPDEST PUSH1 0x0 PUSH1 0x40 DUP3 ADD SWAP1 POP DUP2 DUP2 SUB PUSH1 0x0 DUP4 ADD MSTORE PUSH2 0x3634 DUP2 DUP6 PUSH2 0x3357 JUMP JUMPDEST SWAP1 POP PUSH2 0x3643 PUSH1 0x20 DUP4 ADD DUP5 PUSH2 0x2AAB JUMP JUMPDEST SWAP4 SWAP3 POP POP POP JUMP JUMPDEST PUSH1 0x0 PUSH2 0x365D PUSH2 0x3658 DUP5 PUSH2 0x2C95 JUMP JUMPDEST PUSH2 0x2C35 JUMP JUMPDEST SWAP1 POP DUP3 DUP2 MSTORE PUSH1 0x20 DUP2 ADD DUP5 DUP5 DUP5 ADD GT ISZERO PUSH2 0x3679 JUMPI PUSH2 0x3678 PUSH2 0x2C90 JUMP JUMPDEST JUMPDEST PUSH2 0x3684 DUP5 DUP3 DUP6 PUSH2 0x27D7 JUMP JUMPDEST POP SWAP4 SWAP3 POP POP POP JUMP JUMPDEST PUSH1 0x0 DUP3 PUSH1 0x1F DUP4 ADD SLT PUSH2 0x36A1 JUMPI PUSH2 0x36A0 PUSH2 0x2C8B JUMP JUMPDEST JUMPDEST DUP2 MLOAD PUSH2 0x36B1 DUP5 DUP3 PUSH1 0x20 DUP7 ADD PUSH2 0x364A JUMP JUMPDEST SWAP2 POP POP SWAP3 SWAP2 POP POP JUMP JUMPDEST PUSH1 0x0 PUSH1 0x20 DUP3 DUP5 SUB SLT ISZERO PUSH2 0x36D0 JUMPI PUSH2 0x36CF PUSH2 0x2877 JUMP JUMPDEST JUMPDEST PUSH1 0x0 DUP3 ADD MLOAD PUSH8 0xFFFFFFFFFFFFFFFF DUP2 GT ISZERO PUSH2 0x36EE JUMPI PUSH2 0x36ED PUSH2 0x287C JUMP JUMPDEST JUMPDEST PUSH2 0x36FA DUP5 DUP3 DUP6 ADD PUSH2 0x368C JUMP JUMPDEST SWAP2 POP POP SWAP3 SWAP2 POP POP JUMP JUMPDEST PUSH1 0x0 PUSH1 0x80 DUP3 ADD SWAP1 POP PUSH2 0x3718 PUSH1 0x0 DUP4 ADD DUP8 PUSH2 0x2AAB JUMP JUMPDEST DUP2 DUP2 SUB PUSH1 0x20 DUP4 ADD MSTORE PUSH2 0x372A DUP2 DUP7 PUSH2 0x3357 JUMP JUMPDEST SWAP1 POP DUP2 DUP2 SUB PUSH1 0x40 DUP4 ADD MSTORE PUSH2 0x373E DUP2 DUP6 PUSH2 0x3357 JUMP JUMPDEST SWAP1 POP DUP2 DUP2 SUB PUSH1 0x60 DUP4 ADD MSTORE PUSH2 0x3752 DUP2 DUP5 PUSH2 0x3357 JUMP JUMPDEST SWAP1 POP SWAP6 SWAP5 POP POP POP POP POP JUMP JUMPDEST PUSH1 0x0 PUSH1 0xA0 DUP3 ADD SWAP1 POP PUSH2 0x3772 PUSH1 0x0 DUP4 ADD DUP9 PUSH2 0x2EED JUMP JUMPDEST PUSH2 0x377F PUSH1 0x20 DUP4 ADD DUP8 PUSH2 0x2EED JUMP JUMPDEST PUSH2 0x378C PUSH1 0x40 DUP4 ADD DUP7 PUSH2 0x2EED JUMP JUMPDEST PUSH2 0x3799 PUSH1 0x60 DUP4 ADD DUP6 PUSH2 0x298B JUMP JUMPDEST PUSH2 0x37A6 PUSH1 0x80 DUP4 ADD DUP5 PUSH2 0x2EDE JUMP JUMPDEST SWAP7 SWAP6 POP POP POP POP POP POP JUMP JUMPDEST PUSH1 0x0 PUSH1 0x80 DUP3 ADD SWAP1 POP PUSH2 0x37C5 PUSH1 0x0 DUP4 ADD DUP8 PUSH2 0x2EED JUMP JUMPDEST PUSH2 0x37D2 PUSH1 0x20 DUP4 ADD DUP7 PUSH2 0x2AAB JUMP JUMPDEST PUSH2 0x37DF PUSH1 0x40 DUP4 ADD DUP6 PUSH2 0x2EED JUMP JUMPDEST PUSH2 0x37EC PUSH1 0x60 DUP4 ADD DUP5 PUSH2 0x2EED JUMP JUMPDEST SWAP6 SWAP5 POP POP POP POP POP JUMP INVALID LOG2 PUSH5 0x6970667358 0x22 SLT KECCAK256 EXTCODEHASH SWAP1 LT 0x2D PUSH22 0x8BF47ED6DAD0C09CC56484FFEA36BFD4944BCD443888 EXTCODECOPY 0x2B DUP12 MULMOD DUP14 PUSH5 0x736F6C6343 STOP ADDMOD EQ STOP CALLER "
		},
		"gasEstimates": {
			"creation": {
				"codeDepositCost": "2875800",
				"executionCost": "infinite",
				"totalCost": "infinite"
			},
			"external": {
				"_allowanceEncrypted(address,address)": "infinite",
				"allowance(address,address)": "infinite",
				"allowanceEncrypted(address,(bytes32,bytes))": "infinite",
				"approve(address,uint256)": "infinite",
				"approveEncrypted(address,(bytes))": "infinite",
				"balanceOf(address)": "2974",
				"balanceOfEncrypted(address,(bytes32,bytes))": "infinite",
				"decimals()": "366",
				"eip712Domain()": "infinite",
				"mint(uint256)": "infinite",
				"mintEncrypted((bytes))": "infinite",
				"name()": "infinite",
				"symbol()": "infinite",
				"totalSupply()": "2505",
				"transfer(address,uint256)": "infinite",
				"transferEncrypted(address,(bytes))": "infinite",
				"transferEncrypted(address,uint256)": "infinite",
				"transferFrom(address,address,uint256)": "infinite",
				"transferFromEncrypted(address,address,(bytes))": "infinite",
				"transferFromEncrypted(address,address,uint256)": "infinite",
				"unwrap(uint32)": "infinite",
				"wrap(uint32)": "infinite"
			}
		},
		"methodIdentifiers": {
			"_allowanceEncrypted(address,address)": "23db9354",
			"allowance(address,address)": "dd62ed3e",
			"allowanceEncrypted(address,(bytes32,bytes))": "5356c429",
			"approve(address,uint256)": "095ea7b3",
			"approveEncrypted(address,(bytes))": "d918156e",
			"balanceOf(address)": "70a08231",
			"balanceOfEncrypted(address,(bytes32,bytes))": "60277204",
			"decimals()": "313ce567",
			"eip712Domain()": "84b0196e",
			"mint(uint256)": "a0712d68",
			"mintEncrypted((bytes))": "f4b8ef15",
			"name()": "06fdde03",
			"symbol()": "95d89b41",
			"totalSupply()": "18160ddd",
			"transfer(address,uint256)": "a9059cbb",
			"transferEncrypted(address,(bytes))": "39c217f7",
			"transferEncrypted(address,uint256)": "c4224c19",
			"transferFrom(address,address,uint256)": "23b872dd",
			"transferFromEncrypted(address,address,(bytes))": "8624a349",
			"transferFromEncrypted(address,address,uint256)": "af575a00",
			"unwrap(uint32)": "6e0505e1",
			"wrap(uint32)": "9f284be7"
		}
	},
	"abi": [
		{
			"inputs": [
				{
					"internalType": "string",
					"name": "name",
					"type": "string"
				},
				{
					"internalType": "string",
					"name": "symbol",
					"type": "string"
				}
			],
			"stateMutability": "nonpayable",
			"type": "constructor"
		},
		{
			"inputs": [],
			"name": "ECDSAInvalidSignature",
			"type": "error"
		},
		{
			"inputs": [
				{
					"internalType": "uint256",
					"name": "length",
					"type": "uint256"
				}
			],
			"name": "ECDSAInvalidSignatureLength",
			"type": "error"
		},
		{
			"inputs": [
				{
					"internalType": "bytes32",
					"name": "s",
					"type": "bytes32"
				}
			],
			"name": "ECDSAInvalidSignatureS",
			"type": "error"
		},
		{
			"inputs": [
				{
					"internalType": "address",
					"name": "spender",
					"type": "address"
				},
				{
					"internalType": "uint256",
					"name": "allowance",
					"type": "uint256"
				},
				{
					"internalType": "uint256",
					"name": "needed",
					"type": "uint256"
				}
			],
			"name": "ERC20InsufficientAllowance",
			"type": "error"
		},
		{
			"inputs": [
				{
					"internalType": "address",
					"name": "sender",
					"type": "address"
				},
				{
					"internalType": "uint256",
					"name": "balance",
					"type": "uint256"
				},
				{
					"internalType": "uint256",
					"name": "needed",
					"type": "uint256"
				}
			],
			"name": "ERC20InsufficientBalance",
			"type": "error"
		},
		{
			"inputs": [
				{
					"internalType": "address",
					"name": "approver",
					"type": "address"
				}
			],
			"name": "ERC20InvalidApprover",
			"type": "error"
		},
		{
			"inputs": [
				{
					"internalType": "address",
					"name": "receiver",
					"type": "address"
				}
			],
			"name": "ERC20InvalidReceiver",
			"type": "error"
		},
		{
			"inputs": [
				{
					"internalType": "address",
					"name": "sender",
					"type": "address"
				}
			],
			"name": "ERC20InvalidSender",
			"type": "error"
		},
		{
			"inputs": [
				{
					"internalType": "address",
					"name": "spender",
					"type": "address"
				}
			],
			"name": "ERC20InvalidSpender",
			"type": "error"
		},
		{
			"inputs": [],
			"name": "ErrorInsufficientFunds",
			"type": "error"
		},
		{
			"inputs": [],
			"name": "InvalidShortString",
			"type": "error"
		},
		{
			"inputs": [],
			"name": "SignerNotMessageSender",
			"type": "error"
		},
		{
			"inputs": [],
			"name": "SignerNotOwner",
			"type": "error"
		},
		{
			"inputs": [
				{
					"internalType": "string",
					"name": "str",
					"type": "string"
				}
			],
			"name": "StringTooLong",
			"type": "error"
		},
		{
			"anonymous": false,
			"inputs": [
				{
					"indexed": true,
					"internalType": "address",
					"name": "owner",
					"type": "address"
				},
				{
					"indexed": true,
					"internalType": "address",
					"name": "spender",
					"type": "address"
				},
				{
					"indexed": false,
					"internalType": "uint256",
					"name": "value",
					"type": "uint256"
				}
			],
			"name": "Approval",
			"type": "event"
		},
		{
			"anonymous": false,
			"inputs": [
				{
					"indexed": true,
					"internalType": "address",
					"name": "owner",
					"type": "address"
				},
				{
					"indexed": true,
					"internalType": "address",
					"name": "spender",
					"type": "address"
				}
			],
			"name": "ApprovalEncrypted",
			"type": "event"
		},
		{
			"anonymous": false,
			"inputs": [],
			"name": "EIP712DomainChanged",
			"type": "event"
		},
		{
			"anonymous": false,
			"inputs": [
				{
					"indexed": true,
					"internalType": "address",
					"name": "from",
					"type": "address"
				},
				{
					"indexed": true,
					"internalType": "address",
					"name": "to",
					"type": "address"
				},
				{
					"indexed": false,
					"internalType": "uint256",
					"name": "value",
					"type": "uint256"
				}
			],
			"name": "Transfer",
			"type": "event"
		},
		{
			"anonymous": false,
			"inputs": [
				{
					"indexed": true,
					"internalType": "address",
					"name": "from",
					"type": "address"
				},
				{
					"indexed": true,
					"internalType": "address",
					"name": "to",
					"type": "address"
				}
			],
			"name": "TransferEncrypted",
			"type": "event"
		},
		{
			"inputs": [
				{
					"internalType": "address",
					"name": "owner",
					"type": "address"
				},
				{
					"internalType": "address",
					"name": "spender",
					"type": "address"
				}
			],
			"name": "_allowanceEncrypted",
			"outputs": [
				{
					"internalType": "euint32",
					"name": "",
					"type": "uint256"
				}
			],
			"stateMutability": "view",
			"type": "function"
		},
		{
			"inputs": [
				{
					"internalType": "address",
					"name": "owner",
					"type": "address"
				},
				{
					"internalType": "address",
					"name": "spender",
					"type": "address"
				}
			],
			"name": "allowance",
			"outputs": [
				{
					"internalType": "uint256",
					"name": "",
					"type": "uint256"
				}
			],
			"stateMutability": "view",
			"type": "function"
		},
		{
			"inputs": [
				{
					"internalType": "address",
					"name": "spender",
					"type": "address"
				},
				{
					"components": [
						{
							"internalType": "bytes32",
							"name": "publicKey",
							"type": "bytes32"
						},
						{
							"internalType": "bytes",
							"name": "signature",
							"type": "bytes"
						}
					],
					"internalType": "struct Permission",
					"name": "permission",
					"type": "tuple"
				}
			],
			"name": "allowanceEncrypted",
			"outputs": [
				{
					"internalType": "string",
					"name": "",
					"type": "string"
				}
			],
			"stateMutability": "view",
			"type": "function"
		},
		{
			"inputs": [
				{
					"internalType": "address",
					"name": "spender",
					"type": "address"
				},
				{
					"internalType": "uint256",
					"name": "value",
					"type": "uint256"
				}
			],
			"name": "approve",
			"outputs": [
				{
					"internalType": "bool",
					"name": "",
					"type": "bool"
				}
			],
			"stateMutability": "nonpayable",
			"type": "function"
		},
		{
			"inputs": [
				{
					"internalType": "address",
					"name": "spender",
					"type": "address"
				},
				{
					"components": [
						{
							"internalType": "bytes",
							"name": "data",
							"type": "bytes"
						}
					],
					"internalType": "struct inEuint32",
					"name": "value",
					"type": "tuple"
				}
			],
			"name": "approveEncrypted",
			"outputs": [
				{
					"internalType": "bool",
					"name": "",
					"type": "bool"
				}
			],
			"stateMutability": "nonpayable",
			"type": "function"
		},
		{
			"inputs": [
				{
					"internalType": "address",
					"name": "account",
					"type": "address"
				}
			],
			"name": "balanceOf",
			"outputs": [
				{
					"internalType": "uint256",
					"name": "",
					"type": "uint256"
				}
			],
			"stateMutability": "view",
			"type": "function"
		},
		{
			"inputs": [
				{
					"internalType": "address",
					"name": "account",
					"type": "address"
				},
				{
					"components": [
						{
							"internalType": "bytes32",
							"name": "publicKey",
							"type": "bytes32"
						},
						{
							"internalType": "bytes",
							"name": "signature",
							"type": "bytes"
						}
					],
					"internalType": "struct Permission",
					"name": "auth",
					"type": "tuple"
				}
			],
			"name": "balanceOfEncrypted",
			"outputs": [
				{
					"internalType": "string",
					"name": "",
					"type": "string"
				}
			],
			"stateMutability": "view",
			"type": "function"
		},
		{
			"inputs": [],
			"name": "decimals",
			"outputs": [
				{
					"internalType": "uint8",
					"name": "",
					"type": "uint8"
				}
			],
			"stateMutability": "view",
			"type": "function"
		},
		{
			"inputs": [],
			"name": "eip712Domain",
			"outputs": [
				{
					"internalType": "bytes1",
					"name": "fields",
					"type": "bytes1"
				},
				{
					"internalType": "string",
					"name": "name",
					"type": "string"
				},
				{
					"internalType": "string",
					"name": "version",
					"type": "string"
				},
				{
					"internalType": "uint256",
					"name": "chainId",
					"type": "uint256"
				},
				{
					"internalType": "address",
					"name": "verifyingContract",
					"type": "address"
				},
				{
					"internalType": "bytes32",
					"name": "salt",
					"type": "bytes32"
				},
				{
					"internalType": "uint256[]",
					"name": "extensions",
					"type": "uint256[]"
				}
			],
			"stateMutability": "view",
			"type": "function"
		},
		{
			"inputs": [
				{
					"internalType": "uint256",
					"name": "amount",
					"type": "uint256"
				}
			],
			"name": "mint",
			"outputs": [],
			"stateMutability": "nonpayable",
			"type": "function"
		},
		{
			"inputs": [
				{
					"components": [
						{
							"internalType": "bytes",
							"name": "data",
							"type": "bytes"
						}
					],
					"internalType": "struct inEuint32",
					"name": "encryptedAmount",
					"type": "tuple"
				}
			],
			"name": "mintEncrypted",
			"outputs": [],
			"stateMutability": "nonpayable",
			"type": "function"
		},
		{
			"inputs": [],
			"name": "name",
			"outputs": [
				{
					"internalType": "string",
					"name": "",
					"type": "string"
				}
			],
			"stateMutability": "view",
			"type": "function"
		},
		{
			"inputs": [],
			"name": "symbol",
			"outputs": [
				{
					"internalType": "string",
					"name": "",
					"type": "string"
				}
			],
			"stateMutability": "view",
			"type": "function"
		},
		{
			"inputs": [],
			"name": "totalSupply",
			"outputs": [
				{
					"internalType": "uint256",
					"name": "",
					"type": "uint256"
				}
			],
			"stateMutability": "view",
			"type": "function"
		},
		{
			"inputs": [
				{
					"internalType": "address",
					"name": "to",
					"type": "address"
				},
				{
					"internalType": "uint256",
					"name": "value",
					"type": "uint256"
				}
			],
			"name": "transfer",
			"outputs": [
				{
					"internalType": "bool",
					"name": "",
					"type": "bool"
				}
			],
			"stateMutability": "nonpayable",
			"type": "function"
		},
		{
			"inputs": [
				{
					"internalType": "address",
					"name": "to",
					"type": "address"
				},
				{
					"components": [
						{
							"internalType": "bytes",
							"name": "data",
							"type": "bytes"
						}
					],
					"internalType": "struct inEuint32",
					"name": "encryptedAmount",
					"type": "tuple"
				}
			],
			"name": "transferEncrypted",
			"outputs": [
				{
					"internalType": "euint32",
					"name": "",
					"type": "uint256"
				}
			],
			"stateMutability": "nonpayable",
			"type": "function"
		},
		{
			"inputs": [
				{
					"internalType": "address",
					"name": "to",
					"type": "address"
				},
				{
					"internalType": "euint32",
					"name": "amount",
					"type": "uint256"
				}
			],
			"name": "transferEncrypted",
			"outputs": [
				{
					"internalType": "euint32",
					"name": "",
					"type": "uint256"
				}
			],
			"stateMutability": "nonpayable",
			"type": "function"
		},
		{
			"inputs": [
				{
					"internalType": "address",
					"name": "from",
					"type": "address"
				},
				{
					"internalType": "address",
					"name": "to",
					"type": "address"
				},
				{
					"internalType": "uint256",
					"name": "value",
					"type": "uint256"
				}
			],
			"name": "transferFrom",
			"outputs": [
				{
					"internalType": "bool",
					"name": "",
					"type": "bool"
				}
			],
			"stateMutability": "nonpayable",
			"type": "function"
		},
		{
			"inputs": [
				{
					"internalType": "address",
					"name": "from",
					"type": "address"
				},
				{
					"internalType": "address",
					"name": "to",
					"type": "address"
				},
				{
					"components": [
						{
							"internalType": "bytes",
							"name": "data",
							"type": "bytes"
						}
					],
					"internalType": "struct inEuint32",
					"name": "value",
					"type": "tuple"
				}
			],
			"name": "transferFromEncrypted",
			"outputs": [
				{
					"internalType": "euint32",
					"name": "",
					"type": "uint256"
				}
			],
			"stateMutability": "nonpayable",
			"type": "function"
		},
		{
			"inputs": [
				{
					"internalType": "address",
					"name": "from",
					"type": "address"
				},
				{
					"internalType": "address",
					"name": "to",
					"type": "address"
				},
				{
					"internalType": "euint32",
					"name": "value",
					"type": "uint256"
				}
			],
			"name": "transferFromEncrypted",
			"outputs": [
				{
					"internalType": "euint32",
					"name": "",
					"type": "uint256"
				}
			],
			"stateMutability": "nonpayable",
			"type": "function"
		},
		{
			"inputs": [
				{
					"internalType": "uint32",
					"name": "amount",
					"type": "uint32"
				}
			],
			"name": "unwrap",
			"outputs": [],
			"stateMutability": "nonpayable",
			"type": "function"
		},
		{
			"inputs": [
				{
					"internalType": "uint32",
					"name": "amount",
					"type": "uint32"
				}
			],
			"name": "wrap",
			"outputs": [],
			"stateMutability": "nonpayable",
			"type": "function"
		}
	]
}